:020000040800F2
:10000000E80800204D020008712300088D22000836
:100010006D23000843040008A52300080000000029
:10002000000000000000000000000000772300082E
:1000300089040008000000007523000879230008E7
:1000400067020008670200086702000867020008EC
:1000500067020008670200086702000867020008DC
:1000600067020008670200086702000867020008CC
:1000700067020008670200086702000867020008BC
:100080006904000879040008670200086702000894
:1000900049040008590400086702000867020008C4
:1000A000670200086702000867020008670200088C
:1000B000670200086702000867020008670200087C
:1000C000670200086702000867020008670200086C
:1000D000670200086702000895230008670200080D
:1000E000670200086702000867020008670200084C
:1000F000670200086702000867020008670200083C
:10010000670200086702000867020008670200082B
:10011000670200086702000867020008670200081B
:10012000670200086702000867020008670200080B
:1001300067020008670200086702000867020008FB
:1001400067020008670200086702000867020008EB
:1001500067020008670200086702000867020008DB
:1001600067020008670200086702000867020008CB
:10017000670200086702000867020008000000002C
:1001800067020008670200086702000867020008AB
:10019000670200086702000867020008670200089B
:1001A00000000000000000006702000800F002F8F4
:1001B00000F03CF80AA090E8000C82448344AAF1C5
:1001C0000107DA4501D100F031F8AFF2090EBAE8C3
:1001D0000F0013F0010F18BFFB1A43F0010318477B
:1001E0003435000054350000103A24BF78C878C177
:1001F000FAD8520724BF30C830C144BF04680C602D
:10020000704700000023002400250026103A28BF74
:1002100078C1FBD8520728BF30C148BF0B60704778
:100220001FB503F061FA1FBD10B510BD00F0CFF887
:100230001146FFF7F5FF02F04FFF00F0EDF803B4B1
:10024000FFF7F2FF03BC00F0F5F800000948804713
:1002500009480047FEE7FEE7FEE7FEE7FEE7FEE7A8
:10026000FEE7FEE7FEE7FEE704480549054A064BC0
:100270007047000081230008AD010008E80200205B
:10028000E8080020E8040020E804002053EA020CFB
:1002900000F069802DE9F04B4FF00006002B1FBFE6
:1002A000B3FA83F503FA05F424FA05F65E4012BFAB
:1002B0001643B2FA82F502FA05F4C5F120051EBF15
:1002C00022FA05FC44EA0C04203556EA044C4FEAB5
:1002D000144418BF641C4FF000084FF0000990420E
:1002E00071EB030C39D3002919BFB1FA81F701FA78
:1002F00007F6B0FA80F700FA07F6C7F120071EBF2D
:1003000020FA07FC46EA0C062037B6FBF4FCA7EB04
:100310000507103F07F01F0BCBF120060CFA0BFB73
:100320002CFA06F644BFB3460026202FA4BF5E4633
:100330004FF0000B5BEA060C08BF4FF0010B19EB06
:100340000B09ABFB027C48EB0608C01B06FB02CC8A
:100350000BFB03CC71EB0C01C1E70B460246414697
:100360004846BDE8F08B13B54FF000004FF0000198
:10037000AFF30080BDE81C4070474FF0000200B5AD
:10038000134694469646203922BFA0E80C50A0E8B8
:100390000C50B1F12001BFF4F7AF090728BFA0E866
:1003A0000C5048BF0CC05DF804EB890028BF40F832
:1003B000042B08BF704748BF20F8022B11F0804F74
:1003C00018BF00F8012B704770477047704775469B
:1003D00000F02CF8AE4605006946534620F00700B1
:1003E000854618B020B5FFF73FFFBDE820404FF02D
:1003F00000064FF000074FF000084FF0000B21F00F
:100400000701AC46ACE8C009ACE8C009ACE8C009DB
:10041000ACE8C0098D46704710B50446AFF30080C4
:100420002046BDE81040FFF70ABF000000487047B3
:100430008402002001491820ABBEFEE7260002001E
:10044000704700BFFEE7000010B5024800F0C1FA97
:1004500010BD00003401002010B5024800F0B9FAC8
:1004600010BD00003401002010B5024800F0E4FD8A
:1004700010BD0000A401002010B5024800F0DCFD12
:1004800010BD000004020020704772B600BFFEE7F6
:1004900010B5002201B909E0012901D10A0205E0E5
:1004A000022901D10A0201E04FF440720B2800D961
:1004B000001D0E4B1B6823F440730C4C2360234635
:1004C0001B681343236023461B6823F0F803236053
:1004D00023461B68022444EAC0042343034C2360E0
:1004E00023461B6843F48033236010BD103C024058
:1004F0001C48006800F40070B0B11A48006820F48D
:1005000000701849086000BF0846006840F40060A9
:1005100008600846006820F40060086000BF0846D4
:10052000006840F4007008600E48006800F48060C5
:10053000B0B10C48006820F480600A49086000BF30
:100540000846006840F4805008600846006820F4BF
:100550008050086000BF0846006840F48060086072
:1005600070470000003C024070B5044600250020A2
:100570001449C86101F06AF8054609E0601C38B109
:1005800024B101F063F8401BA04201D9032070BDE3
:100590000D48006800F480300028EFD10A48006858
:1005A00000F0010010B1012007490860064800680A
:1005B00000F4F97018B102F0C3FC0120E7E7002055
:1005C000E5E70000640200200C3C0240F0B5044660
:1005D0000D461E4694F8207020688368A86800B90C
:1005E00000E000BF012F01D0022F7DD103F0806019
:1005F00030B903F0006018B903F0805000287ED0B5
:10060000C3F30161012088403060A86860B9B5F883
:1006100000C0E86840EA4C5C206800F5C07000EB60
:100620000110C0F800C00FE0D5E901C040EACC00DD
:10063000D5F80CC040EA0C00D4F800C00CF5C07C22
:100640000CEB011CCCF80000D5F810C0206800F5B8
:10065000C07000EB0110C0F804C0287D01280ED145
:10066000206800F5C07000EB0110406840F4807C09
:10067000206800F5C07000EB0110C0F804C0D0790C
:10068000000692F806C040EA0C4092F805C040EA25
:100690000C2092F804C040EA0C00D4F800C00CF51D
:1006A000C07C0CEB011CCCF80C00D078000692F852
:1006B00002C040EA0C4092F801C040EA0C2092F8D7
:1006C00000C040EA0C00D4F800C00CF5C07C0CEB74
:1006D000011CCCF80800206800F5C07000EB011088
:1006E000006840F0010C01E00FE008E0206800F530
:1006F000C07000EB0110C0F800C00020F0BD606ABF
:1007000040F4001060620120F8E7606A40F4802045
:1007100060620120F2E70000F0B504460A46216855
:1007200094F82050012D01D0022D7ED1424901F5CF
:100730000071086840F001000860086820F47C50EF
:1007400008600868566A40EA06200860107D00F0DC
:100750001F06012000FA06F3C8699843C861A1F595
:100760000071D069C8B9D1F80C029843C1F80C02E5
:10077000908880B2968940EA064601F51070576964
:1007800040F83760108880B2168940EA064601F5C5
:100790001070576900EBC7004660D069012819D175
:1007A000D1F80C021843C1F80C02908880B2168868
:1007B00040EA064601F51070576940F837609089A5
:1007C00080B2168940EA064601F51070576900EBC1
:1007D000C7004660906928B9D1F804029843C1F86F
:1007E000040204E0D1F804021843C1F804021069BD
:1007F00028B9D1F814029843C1F8140204E0D1F8E2
:1008000014021843C1F81402106A012804D1D1F867
:100810001C021843C1F81C02D1F8000220F00100AC
:10082000C1F800020020F0BDFFE7606A40F48020BC
:1008300060620120F7E7000000640040704770B577
:10084000044694F82050012D01D0022D7DD151B9DC
:100850002068C06800F0030080B9606A40F40010AE
:100860006062012070BD2068006900F0030028B9B3
:10087000606A40F4001060620120F3E7206800F530
:10088000D87000EB0110006800F0040090609068E0
:1008900040B9206800F5D87000EB01100068400DE9
:1008A000106007E0206800F5D87000EB01100068C8
:1008B000C0085060206800F5D87000EB0110006897
:1008C00000F00200D060206800F5D87000EB011045
:1008D000406800F00F00082802D30820106108E0EB
:1008E000206800F5D87000EB0110406800F00F00A0
:1008F0001061206800F5D87000EB0110406800F42A
:100900007F40000A9061206800F5D87000EB01106C
:100910004068000C5061206800F5D87000EB0110B1
:1009200080681870206800F5D87000EB01108068AE
:1009300000F47F40000A5870206800F5D87000EB82
:100940000110806800F47F0000E03CE0000C98702B
:10095000206800F5D87000EB01108068000ED87098
:10096000206800F5D87000EB0110C068187120688D
:1009700000F5D87000EB0110C06800F47F40000A59
:100980005871206800F5D87000EB0110C06800F4C1
:100990007F00000C9871206800F5D87000EB011002
:1009A000C068000ED87131B92068C06840F02000DE
:1009B0002668F06005E02068006940F020002668A5
:1009C000306100204EE7606A40F4802060620120C0
:1009D00048E72DE9F05F0446002520684669206855
:1009E000D0F80490206887682068D0F80CA02068B0
:1009F000D0F810B02068D0F8188006F00100002868
:100A000055D007F00100C0B101202168886007F0CF
:100A1000020018B1204600F09EFA0EE007F0040034
:100A200010B145F4006508E007F0080010B145F486
:100A3000805502E0204600F08DFA07F48070C8B1BE
:100A40004FF480702168886007F4007018B1204668
:100A500000F083FA0EE007F4806010B145F4005511
:100A600008E007F4006010B145F4804502E020463C
:100A700000F072FA07F48030C8B14FF4803021687A
:100A8000886007F4003018B1204600F068FA0EE0E4
:100A900007F4802010B145F4004508E007F4002079
:100AA00010B145F4803502E0204600F057FA06F018
:100AB000080038B10AF0100020B145F4007510208C
:100AC0002168C86006F0040040B10AF0080028B1AF
:100AD00008202168C860204600F0B0F906F0020046
:100AE00038B12068C06800F0030010B1204600F063
:100AF000A7F906F0400038B10BF0100020B145F422
:100B0000806510202168086106F0200040B10BF0DC
:100B1000080028B1082021680861204600F0BCF9CF
:100B200006F0100038B12068006900F0030010B131
:100B3000204600F0B3F906F4003040B109F010008F
:100B400028B1102021684860204600F0D3F906F44F
:100B5000803040B109F0080028B1082021684860C1
:100B6000204600F0FDF906F4004088B309F00400C7
:100B700078B306F4807020B108F0010008B145F0A8
:100B8000010506F4007020B108F0020008B145F03C
:100B9000020506F4806020B108F0040008B145F0B9
:100BA000040506F40060A0B108F0700088B108F0F8
:100BB0007000402817D006DC10280BD020280CD05D
:100BC000302819D10CE0502810D0602814D110E042
:100BD0001DE019E045F008050FE045F010050CE0B8
:100BE00045F0200509E045F0400506E045F08005A8
:100BF00003E045F4807500E000BF00BF2068806915
:100C000020F07000216888610420216848602DB1BF
:100C1000606A284360622046FFF710FEBDE8F09F3F
:100C200070B504460CB9012070BD94F8200010B9CD
:100C3000204600F0AFF82068006840F0010021680D
:100C4000086000F003FD05460DE000F0FFFC401BCE
:100C50000A2808D9606A40F400306062052084F8F0
:100C600020000120E0E72068406800F00100002833
:100C7000EBD02068006820F002002168086000F0D6
:100C8000E5FC05460DE000F0E1FC401B0A2808D910
:100C9000606A40F400306062052084F82000012082
:100CA000C2E72068406800F002000028EBD1207EF7
:100CB000012806D12068006840F0800021680860A3
:100CC00005E02068006820F0800021680860607EF0
:100CD000012806D12068006840F0400021680860C3
:100CE00005E02068006820F0400021680860A07ED0
:100CF000012806D12068006840F0200021680860C3
:100D000005E02068006820F0200021680860E07E8F
:100D1000012806D12068006820F0100021680860D2
:100D200005E02068006840F0100021680860207F1E
:100D3000012806D12068006840F00800216808609A
:100D400005E02068006820F0080021680860607FE6
:100D5000012806D12068006840F00400216808607E
:100D600005E02068006820F0040021680860D4E9EC
:100D70000201084321690843616908436168491E0B
:100D800008432168C86100206062012084F82000C7
:100D9000002049E710B586B00446142101A8FFF7EA
:100DA000ECFA2349206888423FD100BF0020009020
:100DB0002048006840F000701E490860084600683E
:100DC00000F00070009000BF00BF00BF0020009046
:100DD00018481038006840F00800164910390860BB
:100DE0000846006800F00800009000BF00BF032024
:100DF000019002200290002003900320049009201B
:100E0000059001A90C4800F013FB002211461420A4
:100E100000F0AAFC142000F093FC002211461520DB
:100E200000F0A2FC152000F08BFC06B010BD000005
:100E30000064004040380240000C0240704700004F
:100E400010B504461049206888420CD10F4BA3F11D
:100E50001C0200212046FFF7F2FC0C482038816A72
:100E6000001D88470FE00A49206888420BD1094BD2
:100E7000A3F11C0200212046FFF7E1FC05482038C1
:100E8000816A001D884710BD00640040FC000020FE
:100E900000680040280100207047000010B504469B
:100EA0001049206888420CD10F4BA3F11C0201218C
:100EB0002046FFF7C4FC0C482038816A001D884793
:100EC0000FE00A49206888420BD1094BA3F11C02AC
:100ED00001212046FFF7B3FC05482038816A001D38
:100EE000884710BD00640040FC00002000680040FE
:100EF00028010020704770B5044694F820000128AE
:100F000022D1022084F820002068006820F001002F
:100F10002168086000F09AFB05460DE000F096FBA2
:100F2000401B0A2808D9606A40F40030606205203E
:100F300084F82000012070BD2068406800F00100A6
:100F40000028EBD16062F6E7606A40F4002060623E
:100F50000120F0E77047704770477047704770474F
:100F6000704770B50446A56D00F070FB064694F816
:100F70003500022808D08020606500BF002084F87A
:100F8000340000BF012070BD2068006820F016000A
:100F9000216808602068406920F08000216848616D
:100FA000206C08B9A06C28B12068006820F0080007
:100FB000216808602068006820F00100216808604E
:100FC00010E000F043FB801B05280BD92020606552
:100FD000032084F8350000BF002084F8340000BFEF
:100FE0000320D0E72068006800F001000028E8D165
:100FF00094F85C103F208840A860012084F83500F8
:1010000000BF002084F8340000BF00BFBBE70146EA
:1010100091F83500022803D08020486501207047F0
:10102000052081F835000868006820F001000A6892
:1010300010600020F3E70000F8B50446002000909F
:101040008C4800684FF41651B0FBF1F7A56D2E687F
:1010500094F85C1008208840304098B120680068FF
:1010600000F0040070B12068006820F004002168DE
:10107000086094F85C1008208840A860606D40F01B
:101080000100606594F85C1001208840304068B130
:101090002068406900F0800040B194F85C100120A5
:1010A0008840A860606D40F00200606594F85C10B4
:1010B00004208840304068B12068006800F00200D9
:1010C00040B194F85C1004208840A860606D40F046
:1010D0000400606594F85C1010208840304078B3BC
:1010E0002068006800F0080050B394F85C101020ED
:1010F0008840A8602068006800F4802080B12068E3
:10110000006800F4002028B9206CC8B12046216C8A
:10111000884715E0A06C98B12046A16C88470FE085
:101120002068006800F4807028B92068006820F00A
:10113000080021680860206C10B12046216C8847A7
:1011400094F85C10202088403040002865D020684A
:10115000006800F0100000285FD094F85C10202098
:101160008840A86094F83500052828D120680068D8
:1011700020F01600216808602068406920F0800097
:1011800021684861206C08B9A06C28B1206800680B
:1011900020F008002168086094F85C103F20884027
:1011A000A860012084F8350000BF002084F83400D6
:1011B00000BF206D10B12046216D8847F8BD206822
:1011C000006800F4802080B12068006800F40020EE
:1011D00028B9606C10B12046616C88471DE0E06B57
:1011E000D8B12046E16B884717E02068006800F41A
:1011F000807068B92068006820F0100021680860DD
:10120000012084F8350000BF002084F8340000BFBE
:10121000E06B10B12046E16B8847606D38B3606DBC
:1012200000F00100F0B1052084F835002068006866
:1012300020F001002168086000BF0098401C009069
:10124000B84200D905E02068006800F001000028DD
:10125000F3D100BF012084F8350000BF002084F8DE
:10126000340000BFE06C10B12046E16C884700BF3D
:10127000A4E70000D800002070B5044600F0E6F9AD
:1012800006462546681C10B104480078054400BF96
:1012900000F0DCF9801BA842FAD370BDD400002016
:1012A0002DE9F04104460E460127002500BF2648DF
:1012B000007E012802D10220BDE8F08101202249F0
:1012C000087600BF4CF25030FFF74EF90746002F6A
:1012D00032D1401E30602068012810D1207C616826
:1012E00001F0D0FE4CF25030FFF73EF907461748A8
:1012F000006848F204018843144908601AE0A568B0
:1013000012E0217C2846FFF7C3F84CF25030FFF77B
:101310002BF907460D48006820F0FA000B490860D9
:101320000FB1356005E06D1CD4E902100844A842F5
:10133000E7D800BFFFF7DCF800BF002002490876BD
:1013400000BF3846B8E7000064020020103C0240AD
:101350000348006840F000400149086000207047E1
:10136000103C02402DE9F04106460F4614461D464A
:101370004FF0010800BF1F48007E012802D1022063
:10138000BDE8F08101201B49087600BF4CF25030C7
:10139000FFF7EAF88046B8F1000F23D126B9E1B291
:1013A000384601F0A7FD12E0012E04D1A1B2384663
:1013B00001F020FE0BE0022E04D12146384601F058
:1013C000ABFD04E022462B46384601F027FE4CF2E6
:1013D0005030FFF7C9F880460748006820F0010048
:1013E0000549086000BF00200249087600BF40465A
:1013F000C6E7000064020020103C024000200949BA
:10140000096801F0004159B10749064A0C3A1160D8
:10141000064911600349096801F0004101B101204A
:1014200070470000103C024023016745AB89EFCDB7
:10143000F8B502460B460025002400200021E0E01C
:10144000012606FA01F51E6806EA0504AC4274D1CD
:101450001E7906F00306012E04D01E7906F003065D
:10146000022E13D190684F000326BE40B0434F00B8
:10147000DE68BE4030439060506801268E40B04325
:101480001E79C6F300168E40304350601E7906F078
:101490000306032E09D0D0684F000326BE40B04398
:1014A0004F009E68BE403043D0601E7906F00306B0
:1014B000022E13D1CF0802F1200656F827004E075E
:1014C000F70E0F26BE40B0434F07FF0E1E69BE4009
:1014D0003043CF0802F1200646F8270010684F007D
:1014E0000326BE40B0431E7906F003064F00BE40FF
:1014F000304310605E6806F44036002E1DD000BFF9
:1015000000260096414E366846F480463F4F3E60C6
:101510003E46366806F48046009600BF00BF3C4E4B
:101520008F0856F827008E07370F0F26BE40B043AE
:10153000384EB24202D100262EE061E0364EB24271
:1015400001D1012628E0354EB24201D1022623E026
:10155000334EB24201D103261EE0324EB24201D1D7
:10156000042619E0304EB24201D1052614E02F4E78
:10157000B24201D106260FE02D4EB24201D107261C
:101580000AE02C4EB24201D1082605E02A4EB242B2
:1015900001D1092600E00A268F073F0FBE403043E5
:1015A0001B4E8F0846F82700244E3068A0435E6823
:1015B00006F4801606B12043204E3060361D306898
:1015C000A0435E6806F4001606B120431B4E361D8C
:1015D00030601A4E361F3068A0435E6806F400364D
:1015E00006B12043154E361F3060361F3068A043C9
:1015F0005E6806F4803606B12043104E083E306027
:10160000491C1029FFF41CAFF8BD0000443802400B
:101610000838014000000240000402400008024077
:10162000000C02400010024000140240001802406A
:10163000001C02400020024000240240083C0140FF
:101640000AB1816101E00B048361704701480068C1
:1016500070470000CC000020034800680349097867
:101660000844014908607047CC000020D4000020E5
:1016700010B50D48006840F400700B49086008463A
:10168000006840F4806008600846006840F480709C
:101690000860032000F0A6F80F2000F007F800F023
:1016A0002BF8002010BD0000003C024070B504463D
:1016B0000E4800784FF47A71B1FBF0F00C490968DC
:1016C000B1FBF0F5284600F04FFC08B1012070BDD9
:1016D000102C07D200222146501E00F045F8054884
:1016E000046001E00120F2E70020F0E7D4000020D0
:1016F000D8000020D000002008B500BF00200090D6
:101700000E48006840F480400C49086008460068B4
:1017100000F48040009000BF00BF00BF0020009098
:10172000081F006840F08050091F086008460068E4
:1017300000F08050009000BF00BF08BD4438024058
:101740000146084600280DDB00BF00BF00F01F0364
:1017500001229A4043099B0003F1E023C3F80021D2
:1017600000BF00BF00BF70472DE9F05F80460D4607
:101770001646002701F07EFC074639462A463346C6
:1017800001F00700C0F1070ABAF1040F02D94FF0C7
:10179000040A01E0C0F1070AD14600F1040ABAF1D7
:1017A000070F02D24FF0000A01E0A0F1030AD4466D
:1017B0004FF0010A0AFA09FAAAF1010A0AEA020A32
:1017C0000AFA0CFA4FF0010B0BFA0CFBABF1010B10
:1017D0000BEA030B4AEA0B042146404601F036FCB3
:1017E000BDE8F09F00BF00F00702064B19684FF6F6
:1017F000FF031940044B0B4343EA0221014B1960DC
:1018000000BF70470CED00E00000FA0538B5002479
:1018100000BF002000901D48006840F080501B4928
:1018200008600846006800F08050009000BF00BFCC
:10183000012017490864FFF709FF044607E0FFF796
:1018400005FF001BB0F57A7F01D9032038BD114890
:10185000406800F48030B0F5803FF0D101200C49A1
:101860004864FFF7F3FE044607E0FFF7EFFE001BB6
:10187000B0F57A7F01D90320E8E70648406800F414
:101880000030B0F5003FF0D10020DFE740380240E3
:1018900000000E420070004070B504460D460CB9C1
:1018A000012070BD5848006800F00F00A84209D21E
:1018B00055490D700846006800F00F00A84201D09D
:1018C0000120EEE7207800F0020002281DD12078E8
:1018D00000F00400042805D14C48006840F4E050B2
:1018E0004A490860207800F00800082805D14748D8
:1018F000006840F46040454908604448006820F0B2
:10190000F000A168084341490860207800F0010018
:10191000A8B36068012807D13C4808380068C0F3C4
:101920004040B8B90120BCE76068022802D0606876
:10193000032807D1354808380068C0F3406048B92B
:101940000120AEE7314808380068C0F3400008B90C
:101950000120A6E72D48006820F0030061680843D5
:101960002A490860FFF772FE064609E0FFF76EFE9F
:10197000801B41F28831884202D9032091E707E0B9
:101980002248006800F00C006168B0EB810FEDD1D7
:101990001D48006800F00F00A84209D91A490D70CF
:1019A0000846006800F00F00A84201D0012078E747
:1019B000207800F00400042807D11448006820F4BF
:1019C000E050E168084311490860207800F0080001
:1019D000082808D10D48006820F46040216940EAD9
:1019E000C1000A49086000F019F808490968C1F304
:1019F0000311074A515CC840064908600648006860
:101A0000FFF754FE00204CE7003C0240083802403B
:101A1000FA360008D8000020D00000202DE9F04759
:101A2000002400250026A1462548006800F00C008F
:101A300020B1042805D008283AD105E0DFF88490C9
:101A400039E0DFF8849036E01D48001F006800F0A0
:101A50003F041B48001F006800F4800078B11A485A
:101A60001749091F0968C1F38811A0FB01700146DD
:101A7000224600233846FEF709FC05460EE01148D1
:101A80000F49091F0968C1F38811A0FB01700146C5
:101A9000224600233846FEF7F9FB05460848001F9A
:101AA0000068C0F30140401C4600B5FBF6F902E0B7
:101AB000DFF8109000BF00BF4846BDE8F087000087
:101AC000083802400024F400001BB700F8B50446B3
:101AD0000CB90120F8BD207800F00100002874D076
:101AE000F948006800F00C0004280DD0F6480068A2
:101AF00000F00C00082813D1F348001F006800F420
:101B00008000B0F5800F0BD1EF4808380068C0F3B3
:101B10004040002859D06068002856D10120D9E7FC
:101B200000BF6068B0F5803F08D1E748083800681A
:101B300040F48030E449083908601EE06068B0F580
:101B4000A02F0DD1E0480838006840F48020DE491D
:101B5000083908600846006840F4803008600CE0EE
:101B6000D9480838006820F48030D749083908601F
:101B70000846006820F48020086000BF606890B1CB
:101B8000FFF764FD054606E0FFF760FD401B642893
:101B900001D903209EE7CC4808380068C0F34040D4
:101BA0000028F1D011E0FFF751FD054606E0FFF7F0
:101BB0004DFD401B642801D903208BE7C24808383B
:101BC0000068C0F340400028F1D1207800F0020006
:101BD00002285FD1BC48006800F00C0058B1BA4838
:101BE000006800F00C0008281CD1B748001F0068EE
:101BF00000F48000B0B9B44808380068C0F3400071
:101C000020B1E068012801D0012063E7AE48083820
:101C1000006820F0F800216940EAC100AA490839AB
:101C2000086037E0E06800B30120A8490860FFF7CA
:101C30000DFD054606E0FFF709FD401B022801D90E
:101C4000032047E7A04808380068C0F34000002898
:101C5000F1D09D480838006820F0F800216940EA7A
:101C6000C10099490839086014E0002097490860CC
:101C7000FFF7ECFC054606E0FFF7E8FC401B0228F6
:101C800001D9032026E7904808380068C0F34000D7
:101C90000028F1D1207800F0080008282CD16069D4
:101CA000A8B101208A490860FFF7D0FC054606E08C
:101CB000FFF7CCFC401B022801D903200AE7824829
:101CC0006C300068C0F340000028F1D014E0002020
:101CD0007F490860FFF7BAFC054606E0FFF7B6FC4F
:101CE000401B022801D90320F4E677486C300068D5
:101CF000C0F340000028F1D1207800F0040004284F
:101D000070D1002770483830006800F0805090B9DA
:101D100000BF002000906C483830006840F08050D0
:101D20006949383108600846006800F0805000902A
:101D300000BF00BF01276748006800F48070B0B999
:101D40006448006840F4807062490860FFF77EFCD8
:101D5000054606E0FFF77AFC401B022801D9032064
:101D6000B8E65C48006800F480700028F2D000BF3C
:101D7000A068012808D154486830006840F001008C
:101D80005149683108601DE0A06805280DD14E4812
:101D90006830006840F004004B496831086008462C
:101DA000006840F0010008600CE0474868300068B7
:101DB00020F001004449683108600846006820F0BE
:101DC0000400086000BFA068A8B1FFF73FFC05460B
:101DD00009E0FFF73BFC401B41F28831884202D901
:101DE000032077E626E0384868300068C0F34000FA
:101DF0000028EED013E0FFF729FC054608E0FFF7C6
:101E000025FC401B41F28831884201D9032061E65C
:101E10002D4868300068C0F340000028EFD1012F42
:101E200007D129483830006820F0805026493831E1
:101E3000086000BFA069002845D02348006800F072
:101E40000C0008285DD0A069022845D100201F4958
:101E50000866FFF7FBFB054606E0FFF7F7FB401BB4
:101E6000022801D9032035E6174808380068C0F376
:101E700040600028F1D1D4E907010843616A40EAD3
:101E800081110122A06AC2EB500041EA00412C20DE
:101E9000005D41EA00600C49091F086001200B4900
:101EA0000866FFF7D3FB054606E0FFF7CFFB401BB4
:101EB000022801D903200DE6034808380068C0F362
:101EC00040600028F1D049E0083802400000474255
:101ED000800E474200700040002021490866FFF74D
:101EE000B5FB054606E0FFF7B1FB401B022801D910
:101EF0000320EFE51B480068C0F340600028F2D1E2
:101F00002CE0A069012800D1E4E51648001D066810
:101F1000A069012820D006F48001E06981421BD12C
:101F200006F03F01206A814216D147F6C07030406A
:101F3000616AB0EB811F0FD106F440310122A06A23
:101F4000C2EB5000B1EB004F06D106F070612C20BF
:101F5000005DB1EB006F01D00120BBE50020B9E5C9
:101F6000000047420038024070B504462546681E0E
:101F7000B0F1807F01D301200FE0681E4FF0E02117
:101F800048610F214FF0FF3001F060F800204FF062
:101F9000E021886107200861002070BD704770470C
:101FA0002DE9F84F0446206805682068C668206857
:101FB00047694FF00009CA4605F00F09B9F1000F53
:101FC0000AD105F0200038B106F0200020B12046EB
:101FD00000F092FEBDE8F88FB9F1000F7CD007F059
:101FE000010018B906F49070002875D005F00100C2
:101FF00030B106F4807018B1606C40F0010060648C
:1020000005F0040030B107F0010018B1606C40F039
:102010000200606405F0020030B107F0010018B161
:10202000606C40F00400606405F0080048B106F000
:10203000200010B907F0010018B1606C40F00800F2
:102040006064606C002846D005F0200028B106F0DE
:10205000200010B1204600F04FFE20684069C0F318
:10206000801A606C00F0080010B9BAF1000F2DD092
:10207000204600F0EFFE2068406900F04000402854
:1020800020D100BF00BF2168143151E8001F21F0AA
:1020900040002168143141E80002002AF3D100BF5A
:1020A000E06B50B17748E16B0865E06BFEF7AFFF7E
:1020B00088B1E06B016D88470DE02046FFF76FFFA8
:1020C00009E009E02046FFF76AFF04E02046FFF739
:1020D00066FF002060647DE7206B012878D105F061
:1020E0001000002874D006F010000028FAD000BFBD
:1020F00000200090206800680090206840680090F0
:1021000000BF00BF2068406900F04000402860D157
:10211000E06B006840681FFA80F8B8F1000F56D0F5
:10212000A08D404553DDA4F82E80E06BC069B0F56A
:10213000807F43D000BF00BF21680C3151E8001FF1
:1021400021F4807021680C3141E80002002AF3D1AB
:1021500000BF00BF00BF2168143151E8001F21F00B
:1021600001002168143141E80002002AF3D100BFC8
:1021700000BF00BF2168143151E8001F21F040006A
:102180002168143141E80002002AF3D100BF202069
:1021900084F842000020206300BF00BF21680C319A
:1021A00051E8001F21F0100021680C3141E80002C5
:1021B000002AF3D100BFE06BFEF7D3FE022060637C
:1021C000A08DE28D801A81B22046FFF7E7FE01E77D
:1021D00042E0A08DE18D401A1FFA80F8E08DD0B367
:1021E000B8F1000F37D000BF00BF21680C3151E8B3
:1021F000001F21F4907021680C3141E80002002A90
:10220000F3D100BF00BF00BF2168143151E8001FA7
:1022100021F001002168143141E80002002AF3D1C5
:1022200000BF202084F842000020206300BF00BFD0
:1022300021680C3151E8001F21F0100021680C3199
:1022400041E80002002AF3D100BF0220606341464A
:102250002046FFF7A3FEBDE605F0800030B106F092
:10226000800018B1204600F0C5FDB3E605F040003F
:1022700030B106F0400018B1204600F021FEA9E67A
:1022800000BFA7E6E12E00087047704700BFFEE7D9
:1022900010B50E480E4908600920486000210C481E
:1022A0008160C1604FF48031016109014161002109
:1022B00001760121417600218176C176017741774F
:1022C000FEF7AEFC08B1FEF7E0F810BD0064004078
:1022D0003401002000B587B0142102A8FEF74DF8A4
:1022E00000BF002001901F48006840F001001D4918
:1022F00008600846006800F00100019000BF00BFC0
:1023000000BF002001900846006840F00800086007
:102310000846006800F00800019000BF00BF00BF41
:10232000002001900846006840F0800008600846E0
:10233000006800F08000019000BF00BF00223C2137
:102340000948FFF77DF93C2002900120039002200C
:1023500004900020059002A90348FFF769F807B030
:1023600000BD000030380240001C024000BFFEE704
:1023700000BFFEE77047704710B5FFF76DF910BD5D
:102380000348006840F4700001490860704700008D
:1023900088ED00E010B50248FFF702FE10BD000016
:1023A0005C01002000BFFEE7F0B587B006460C4692
:1023B00017461D4601940020029003900490059555
:1023C0006B463A4601A93046FEF700F907B0F0BD6A
:1023D00000B593B0302107A8FDF7CFFF142102A864
:1023E000FDF7CBFF00BF002001902648006840F0B9
:1023F0008050244908600846006800F08050019031
:1024000000BF00BF00BF002001901F48006840F4DB
:1024100040401D4908600846006800F440400190B3
:1024200000BF00BF012007900004089002200D901B
:1024300041050E9106210F91B421109102211191B5
:102440000421129107A8FFF741FB08B1FEF71DF820
:10245000FFF7DCF908B1FEF718F80F200290022010
:102460000390002004904FF4A05005904FF480504A
:102470000690052102A8FFF70FFA08B1FEF705F84C
:1024800013B000BD403802400070004070B50546F2
:1024900005F11C0457480068401C56490860207824
:1024A000BA2806D160785449087001205349087051
:1024B0009EE02078B22808D1601C00F08BFB5049C8
:1024C000086001204F49087092E02078D02808D198
:1024D000601C00F07FFB4C49086001204B490870EC
:1024E00086E02078D12808D1601C00F073FB4849B1
:1024F00008600120474908707AE02078B32808D1A5
:10250000601C00F067FB44490860012043490870E3
:102510006EE02078B6280FD1601C00F04CFB4048DC
:1025200080ED000A01203F4908703D4890ED000A07
:102530003D4880ED000A5BE02078B7280FD1601C91
:1025400000F039FB394880ED000A01203849087055
:10255000364890ED000A374880ED000A48E02078C0
:10256000B8280FD1601C00F026FB334880ED000A2C
:10257000012032490870304890ED000A304880ED63
:10258000000A35E02078B9280FD1601C00F013FB59
:102590002C4880ED000A01202B490870294890ED55
:1025A000000A2A4880ED000A22E02078A3280ED0F5
:1025B0002078C2280BD02078C32808D02078C428DF
:1025C00005D02078DA2802D02078DC2805D1E01C5C
:1025D00000F000FB1E4908600AE02078A22802D023
:1025E0002078C12804D1601C00F0F4FA1949086071
:1025F00070BD000008000020C8000020C9000020B5
:102600004C000020AE00002044000020AC00002060
:1026100048000020AD00002050000020AF00002046
:1026200094000020A40000207000002098000020EA
:10263000A5000020740000209C000020A6000020BF
:102640007C000020A0000020A700002080000020C7
:102650000000002004000020F0B58BB007460C46B7
:1026600015461E4604F0020080B1E8040190E8001F
:1026700004F0030140EA41000290F0040390F000EE
:1026800004F0030140EA4100049009E06801019070
:10269000A007400F029070010390A007400F049024
:1026A000E0100690C4F380000590012009900020FE
:1026B0000790012008900E200A9001A93846FEF7E5
:1026C0002BF80BB0F0BD000070B504460D46204657
:1026D000FEF711FC2068406940F002002168486163
:1026E0002068406940F01000216848611349206863
:1026F00088420FD112480460856200231A461946A9
:102700002046FFF7A9FF00231A460C212046FFF7B9
:10271000A3FF12E00B49206888420ED10A480460EA
:10272000856200231A4670212046FFF795FF00239B
:102730001A467C212046FFF78FFF70BD00640040E1
:10274000DC000020006800400801002070B54F4800
:1027500004684F480068052817D2DFE800F0031727
:10276000253474004B48007878B14B480068201A33
:102770000BD4B42000F02CF980034FF4B47190FB1B
:10278000F1F5284600F09AF800BF7DE04348006864
:10279000201A3C2807D3002000F0B0F902203C4961
:1027A00008603E4804606FE03C480068201AC82872
:1027B00008D33B48006800F073F9032034490860EF
:1027C0003648046060E000F00FF936490968451AA0
:1027D00015F1100F07DD102D05DA04202C490860D3
:1027E0002E4804602EE0304800683049096888426D
:1027F00011D12A480068201A40F6B83188420AD917
:102800000420234908602548046029480068401CCA
:102810002749086016E0244800682449096888426E
:1028200010D01E480068201A47F23051884209D95A
:10283000042017490860194804601D480068401CBE
:102840001B49086020E015480068201A50281AD358
:102850001848007810B141F2883001E04FF4FA6076
:102860000546002013490870012000F047F90020B8
:102870000749086010480068401C0F49086060194B
:102880000549086000BF00BF00BF70BD30000020D8
:10289000200000202C000020B4000020BC000020FC
:1028A000100000200C00002008000020B8000020CC
:1028B0003800002088000020340000202DE9F0417D
:1028C00004461B48006808B1BDE8F08100F08CF8B0
:1028D0000546601B00F028F9074616480068C6192F
:1028E0001548046015480660204600F01DF900EE0A
:1028F000100AB8EEC00ADFED120A20EE200ADFED62
:10290000110A80EE201A104880ED001A0F48006866
:102910000F4908600120064908600E4800680E490A
:1029200008600448006800F0BBF800BFCCE7000076
:1029300020000020000000200C00002010000020DB
:102940000000B4430000804614000020080000206E
:10295000B800002030000020BC00002004480068BF
:102960000449884201D1012070470020FCE70000A3
:1029700000000108015A5A5A00B587B000200190A2
:10298000FEF73CFD002002900420049001200590F9
:102990000220069001A902A8FEF782FC20B1FEF7F2
:1029A000D7FC002007B000BD074A002307490220DA
:1029B000FEF7D8FC18B1FEF7CBFC0020F2E7FEF7DB
:1029C000C7FC0120EEE70000015A5A5A0000010836
:1029D00010B5044600F0CAF86100491CB0FBF1F2E2
:1029E00001FB1200001B10BD10B504490968044A20
:1029F0001268881A00F098F810BD0000000000204E
:102A00003C0000201CB505A103C9CDE90001082246
:102A10006946FF2000F09CF81CBD000000FF00FF8D
:102A200000FF00FF08B504A000680090012269467D
:102A3000104600F08DF808BDA300000038B504462C
:102A400005A0006800908DF8014002226946FF2031
:102A500000F07EF838BD0000BA0000001CB5044646
:102A600007A103C9CDE9000121460DF1010000F0E5
:102A70003BF905226946012000F06AF81CBD000000
:102A8000B30000000000000008B504A0006800903A
:102A900001226946104600F05BF808BDB100000055
:102AA0001CB5044607A103C9CDE9000121460DF17B
:102AB000020000F019F906226946012000F048F8EA
:102AC0001CBD0000DA000000000000001CB5044638
:102AD00008A103C9CDE90001642004FB00F10DF158
:102AE000010000F001F905226946012000F030F8EC
:102AF0001CBD0000B20000000000000038B5044614
:102B0000CE208DF800000CB1012000E000208DF8EF
:102B1000010002226946012000F01AF80148047001
:102B200038BD00002400002001460A46CB1701EB07
:102B300093439B13A1EB8330B0F5005F02DBA0F55C
:102B4000804004E010F5005F01DC00F58040704734
:102B500070B504460D46164633462A4621460248BD
:102B6000FFF722FC70BD000034010020054800681A
:102B70000549484305490844024908600846006879
:102B800070470000C40000200D6619005FF36E3C22
:102B90007CB504460D460020009001908DF8004061
:102BA00029460DF1010000F09FF805226946012039
:102BB000FFF7CEFF7CBD08B50278437842EA0322D6
:102BC000837842EA0342C37842EA036100919DEDB3
:102BD000000A08BD014608784A7840EA02208A784F
:102BE00040EA0240CA7840EA026070477CB5274854
:102BF0000068FFF755FF3C20FEF73EFB0020FFF783
:102C00007DFFC820FEF738FBC4200190012201A9F6
:102C10001046FFF79DFF1D480668FEF717FD0446A6
:102C200025462DE0A3200090FEF710FD001B40F686
:102C3000C411884200D924E0012269461046FFF7FA
:102C400087FF1420FEF718FB10480068B04205D03B
:102C50000E480668FEF7FAFC054606E0FEF7F6FCAD
:102C6000401BB0F5C87F00D30BE00948006830B9BD
:102C7000FEF7ECFC001BB0F5966F00D901E000BF39
:102C8000D0E700BF0120FFF739FF7CBD0000002026
:102C90000800002010B52DED028B82B00446B0EE86
:102CA000408A0020009001908DF80040B0EE480A64
:102CB0000DF1010000F009F8052269460120FFF737
:102CC00047FF02B0BDEC028B10BD08B58DED000AC8
:102CD000009901700099090A41700099090C8170EE
:102CE0000099090EC17008BD01700A0A42700A0CF1
:102CF00082700A0EC2707047F8B5044694F842001C
:102D0000222875D1A068B0F5805F0CD1206950B938
:102D10000025A66A20684068C0F308003080A06AD9
:102D2000801CA06215E0A56A0026A068B0F5805F4F
:102D300003D0A06828B9206918B9206840682870B5
:102D400004E02068406800F07F002870A06A401C02
:102D5000A062E08D401E80B2E085002846D1206848
:102D6000C06820F020002168C8602068C06820F496
:102D700080702168C8602068406920F001002168E7
:102D80004861202084F8420000206063206B012805
:102D900026D10020206300BF00BF21680C3151E81C
:102DA000001F21F0100021680C3141E80002002AC8
:102DB000F3D100BF2068006800F0100010280AD18D
:102DC00000BF0020009020680068009020684068E4
:102DD000009000BF00BFA18D2046FFF7DFF802E0A2
:102DE0002046FFF751FA0020F8BD01E00020FBE784
:102DF0000220F9E7014691F84100212828D188688E
:102E0000B0F5805F0BD1086948B90A6A1088C0F331
:102E100008000B685860086A801C086205E00B6AAD
:102E2000581C086218780B685860C88C401E80B225
:102E3000C88458B90868C06820F080000B68D86062
:102E40000868C06840F040000B68D86000207047F8
:102E50000220FCE700BF00BF02680C3252E8002FDE
:102E600022F4907102680C3242E80013002BF3D177
:102E700000BF00BF00BF0268143252E8002F22F0EA
:102E800001010268143242E80013002BF3D100BFA5
:102E9000016B01290ED100BF00BF02680C3252E85D
:102EA000002F22F0100102680C3242E80013002BC0
:102EB000F3D100BF202180F8421000210163704748
:102EC00010B504462068C06820F040002168C86042
:102ED000202084F841002046FFF7D7F9002010BDDC
:102EE00070B50546AC6B0020E085E0842046FFF716
:102EF00056F870BD074A126822F44072054B1A60FA
:102F00001A4612681A601A46126842F001021A60E4
:102F100001707047103C0240084A126822F4407267
:102F2000064B1A601A46126842F400721A601A467A
:102F3000126842F001021A6001607047103C0240C2
:102F40002A48006800F0100040B12948C06940F0EC
:102F500010002749C86110202449086023480068F0
:102F600000F0200040B12248C06940F0080020492C
:102F7000C86120201D4908601C48006800F040001E
:102F800040B11B48C06940F004001949C8614020A5
:102F9000164908601548006800F0800040B11448E8
:102FA000C06940F002001249C86180200F490860E2
:102FB0000E48006800F4807048B10D48C06940F0C8
:102FC00001000B49C8614FF4807008490860074848
:102FD000006800F0020040B10548C06940F02000E0
:102FE0000349C86102200149086070470C3C024057
:102FF00064020020084A126822F44072064B1A60EC
:103000001A46126842F480721A601A46126842F038
:1030100001021A6001807047103C024010B50A4955
:10302000096821F44071084C21602146096841F487
:10303000407121602146096841F001012160026070
:10304000BFF36F8F436010BD103C024010B50028E5
:1030500004DB0A07130E054A135406E00A07140E90
:10306000034A00F00F031B1FD45410BD00E400E01E
:1030700018ED00E002480068C0F30220704700002D
:103080000CED00E0134A126822F44072114B1A60F2
:10309000032906D11A461268DB131A430D4B1A6036
:1030A0000EE0012906D10B4A126842F00402094BD6
:1030B0001A6005E0074A126842F40042054B1A60A4
:1030C000044A12684FF4803343EA00231A43014B49
:1030D0001A607047103C024008B5FEF7C9FAFFF7C6
:1030E00077F9FFF7F7F8FFF7D3F8FB49FB48FFF74D
:1030F000EBFA0020FA4908600024FAA0006800906A
:103100000020F949087001226946FF20FFF720FDE1
:10311000FEF79CFA054602E00220FEF7ADF8F24801
:10312000007828B9FEF792FA401BB0F5967FF3D3EA
:10313000ED48007808B9012404E0EC480078012843
:1031400000D001245CB10120FFF778FC9620FEF747
:1031500093F8FFF757FC40F6AC50FEF78DF843F6B6
:103160009821D020FFF714FD43F69821D120FFF7D6
:103170000FFD5A20FFF7AAFC42F26020FFF76EFC19
:10318000FFF7ECFB90B9FFF77FFCFFF7F5FBA320FF
:103190000090012269461046FFF7DAFC9620FEF700
:1031A0006BF8D3480068D349086005E0FFF71EFDBF
:1031B000CF480068CF4908600020CF490870FEF76B
:1031C00045FACE490860C648006841F28831084493
:1031D000CB4908606EE2FEF739FA0446C048046045
:1031E000C3490968C34A1268881AFFF79DFC00EEBC
:1031F000100AB8EEC00ADFEDC30A20EE200ADFEDA8
:10320000C20A80EE201AC14880ED001AC04800684A
:1032100000EE100AB8EEC00ADFEDBE0A20EE200A6A
:10322000BD4880ED000A90ED000AB5EEC00AF1EE4F
:1032300010FA14D290ED000AB1EE400AB748D0ED72
:10324000000AB4EEE00AF1EE10FA19DDB24890ED92
:10325000000AB1EE400AB14880ED000A10E0AE4825
:1032600090ED000AAD48D0ED000AB4EEE00AF1EEB0
:1032700010FA05DDA84890ED000AA84880ED000A84
:10328000A748007808B1322000E00020A549086076
:10329000A5480068201A64287ED30026A24804604E
:1032A000A248006800EE100AB8EEC00ADFED990AE5
:1032B00020EE200A9E4880ED000A9E48006800EE3D
:1032C000100AB8EEC00ADFED9C0A20EE200A9B48E7
:1032D00080ED000A9A48007800284AD19948007881
:1032E00058B1994890ED000A984880ED000A0020F6
:1032F000944908700120964908709648007858B1A2
:10330000954890ED000A954880ED000A002091490B
:1033100008700120924908709248007858B192488C
:1033200090ED000A914880ED000A00208D49087058
:1033300001208F4908708F48007858B18E4890ED71
:10334000000A8E4880ED000A00208A49087001209A
:103350008B4908707E48007858B18148007840B1A8
:103360008348007828B18648007810B1012074495C
:103370000870002549E1082D14D2DFE805F0041497
:10338000224E7E94ABAA7F48007858B17E480068F0
:1033900043F69821884200E054E103D0D020FFF7A3
:1033A000F7FB01262EE17948007848B1784800689B
:1033B00043F69821884203D0D120FFF7E9FB01268C
:1033C00020E17448007838B3734890ED000AF6EEB7
:1033D000000A30EE600A5648D0ED000AB4EEE00A6A
:1033E000F1EE10FA0EDC6C4890ED000AF6EE000AE1
:1033F00030EE200A4E48D0ED000AB4EEE00AF1EEBD
:1034000010FA09D2644890ED000ABDEEC00A10EE31
:10341000100AFFF75BFB0126F4E06048007858B320
:103420005F4890ED000ADFED5F0A30EE600A434826
:10343000D0ED000AB4EEE00AF1EE10FA0EDC5848C6
:1034400090ED000ADFED570A30EE200A3B48D0ED40
:10345000000AB4EEE00AF1EE10FA0DD2504991EDF7
:10346000000ADFED510A20EE200ABCEEC00A10EE81
:10347000100AFFF7F3FA0126C4E03148007888B15A
:10348000324890ED000A3048D0ED000AB4EE600AF0
:10349000F1EE10FA06D02D4890ED000AB620FFF7A5
:1034A000F9FB0126AEE02648007888B12B4890ED64
:1034B000000A2948D0ED000AB4EE600AF1EE10FAD5
:1034C00006D0264890ED000AB720FFF7E3FB01265F
:1034D00098E081E06AE000008D24000834010020BB
:1034E00030000020BA000000C9000020C800002001
:1034F000000000203C00002088000020C4000020C4
:10350000B40000200000B4430000804618000020F2
:10351000040000200AD7233C1C00002040000020AB
:1035200024000020280000208C0000204C000020F7
:1035300078000020500000206F12833A84000020A1
:10354000B0000020A40000209400002054000020BF
:10355000A8000020A50000209800002058000020AE
:10356000A9000020A60000209C0000206000002090
:10357000AA000020A7000020A00000206400002076
:10358000AB000020AC00002044000020AD00002073
:1035900048000020AE0000205C000020AF000020AA
:1035A00068000020CDCC4C3D00007A4442480078B1
:1035B00088B1424890ED000A4148D0ED000AB4EECF
:1035C000600AF1EE10FA06D03C4890ED000AB820EF
:1035D000FFF760FB012615E03748007888B13948CD
:1035E00090ED000A3848D0ED000AB4EE600AF1EE22
:1035F00010FA06D0334890ED000AB920FFF74AFBD5
:10360000012600BF00BF681CC5B2082D02DA002EDB
:103610003FF4B1AEAEB92D482D490978405C009019
:103620002B490978481CC11700EB5171C910A0EB58
:10363000C101274A1170012269461046FFF788FA36
:1036400000BF00BF23480068201A142803D3214874
:103650000460FFF7E7F9FFF779F81F4890ED000ADB
:103660001E48D0ED000AB4EE600AF1EE10FA1DD04B
:103670001B480068D0B9184890ED000A174880ED43
:10368000000A002017490870134890ED000A5FED0A
:10369000620A20EE200A5FED650A80EE201ABDEE78
:1036A000C10A10EE105A2846FFF708F90520FDF769
:1036B000E3FD00BF8FE50000B000002060000020A7
:1036C0009C00002064000020A0000020F2360008CA
:1036D00089000020C00000206C0000209000002025
:1036E000200000202C0000204FF04070E1EE100A76
:1036F0007047D0D1B2B3B6B7B8B90000000000002F
:10370000000001020304060708090000000001028E
:10371000030400003437000800000020DC00000033
:10372000E801000810380008DC0000200C08000048
:10373000040200080000000000000000000000007B
:103740000000000000000000000000000000000079
:103750000000000000000000010000003200000036
:103760000000000000000000000000000000000059
:103770000000000000000000000000000000000049
:103780000000000000000000000000000000000039
:103790000000B4420000000000000000CDCC0C414D
:1037A0000000000000000000000000000000000019
:1037B0000000000000000000000000000100000008
:1037C00000000000000000000000000000000000F9
:1037D00000000000000000000000000000000000E9
:1037E00000000000000000000000000000000000D9
:1037F0000000000000000000B979379E00000000C2
:103800000000000010000000010000000024F4008F
:04000005080001AD41
:00000001FF
