:020000040800F2
:10000000380C00208D020008ED2A0008892900081C
:10001000E92A000883040008E92B0008000000001A
:10002000000000000000000000000000F32A0008AB
:10003000C904000800000000F12A0008F52A0008A1
:10004000A7020008A7020008A7020008A7020008EC
:10005000A7020008A7020008A7020008A7020008DC
:10006000A7020008A7020008A7020008A7020008CC
:10007000A7020008A7020008A7020008A7020008BC
:10008000A9040008B9040008A7020008A702000894
:100090008904000899040008A7020008A7020008C4
:1000A000A7020008A7020008A7020008A70200088C
:1000B000A7020008A7020008A7020008A70200087C
:1000C000A7020008A7020008A7020008A70200086C
:1000D000A7020008A7020008D92B0008A702000801
:1000E000A7020008A7020008A7020008A70200084C
:1000F000A7020008A7020008A7020008A70200083C
:10010000A7020008A7020008A7020008A70200082B
:10011000A7020008A7020008A7020008A70200081B
:10012000A7020008A7020008A7020008A70200080B
:10013000A7020008A7020008A7020008A7020008FB
:10014000A7020008A7020008A7020008A7020008EB
:10015000A7020008A7020008A7020008A7020008DB
:10016000A7020008A7020008A7020008A7020008CB
:10017000A7020008A7020008A7020008000000006C
:10018000A7020008A7020008A7020008A7020008AB
:10019000A7020008A7020008A7020008A70200089B
:1001A0000000000000000000A702000800F002F8B4
:1001B00000F05CF80AA090E8000C82448344AAF1A5
:1001C0000107DA4501D100F051F8AFF2090EBAE8A3
:1001D0000F0013F0010F18BFFB1A43F0010318477B
:1001E000004B0000204B00000A444FF0000C10F8B8
:1001F000013B13F0070408BF10F8014B1D1108BFA5
:1002000010F8015B641E05D010F8016B641E01F844
:10021000016BF9D113F0080F1EBF10F8014BAD1C94
:100220000C1B09D16D1E58BF01F801CBFAD505E0B2
:1002300014F8016B01F8016B6D1EF9D59142D6D30C
:10024000704700000023002400250026103A28BF34
:1002500078C1FBD8520728BF30C148BF0B60704738
:100260001FB504F023FD1FBD10B510BD00F0CFF881
:100270001146FFF7F5FF04F0FFFA00F0EDF803B4C4
:10028000FFF7F2FF03BC00F0F5F8000009488047D3
:1002900009480047FEE7FEE7FEE7FEE7FEE7FEE768
:1002A000FEE7FEE7FEE7FEE704480549054A064B80
:1002B00070470000FD2A0008AD0100083806002044
:1002C000380C0020380800203808002053EA020CBF
:1002D00000F069802DE9F04B4FF00006002B1FBFA6
:1002E000B3FA83F503FA05F424FA05F65E4012BF6B
:1002F0001643B2FA82F502FA05F4C5F120051EBFD5
:1003000022FA05FC44EA0C04203556EA044C4FEA74
:10031000144418BF641C4FF000084FF000099042CD
:1003200071EB030C39D3002919BFB1FA81F701FA37
:1003300007F6B0FA80F700FA07F6C7F120071EBFEC
:1003400020FA07FC46EA0C062037B6FBF4FCA7EBC4
:100350000507103F07F01F0BCBF120060CFA0BFB33
:100360002CFA06F644BFB3460026202FA4BF5E46F3
:100370004FF0000B5BEA060C08BF4FF0010B19EBC6
:100380000B09ABFB027C48EB0608C01B06FB02CC4A
:100390000BFB03CC71EB0C01C1E70B460246414657
:1003A0004846BDE8F08B13B54FF000004FF0000158
:1003B000AFF30080BDE81C4070474FF0000200B56D
:1003C000134694469646203922BFA0E80C50A0E878
:1003D0000C50B1F12001BFF4F7AF090728BFA0E826
:1003E0000C5048BF0CC05DF804EB890028BF40F8F2
:1003F000042B08BF704748BF20F8022B11F0804F34
:1004000018BF00F8012B704770477047704775465A
:1004100000F02CF8AE4605006946534620F0070070
:10042000854618B020B5FFF73FFFBDE820404FF0EC
:1004300000064FF000074FF000084FF0000B21F0CE
:100440000701AC46ACE8C009ACE8C009ACE8C0099B
:10045000ACE8C0098D46704710B50446AFF3008084
:100460002046BDE81040FFF70ABF00000048704773
:10047000D405002001491820ABBEFEE7260002008B
:10048000704700BFFEE7000010B5024800F0C1FA57
:1004900010BD00008404002010B5024800F0B9FA35
:1004A00010BD00008404002010B5024800F0E6FDF5
:1004B00010BD0000F404002010B5024800F0DEFD7D
:1004C00010BD000054050020704772B600BFFEE763
:1004D00010B5002201B909E0012901D10A0205E0A5
:1004E000022901D10A0201E04FF440720B2800D921
:1004F000001D0E4B1B6823F440730C4C23602346F5
:100500001B681343236023461B6823F0F803236012
:1005100023461B68022444EAC0042343034C23609F
:1005200023461B6843F48033236010BD103C024017
:100530001C48006800F40070B0B11A48006820F44C
:1005400000701849086000BF0846006840F4006069
:1005500008600846006820F40060086000BF084694
:10056000006840F4007008600E48006800F4806085
:10057000B0B10C48006820F480600A49086000BFF0
:100580000846006840F4805008600846006820F47F
:100590008050086000BF0846006840F48060086032
:1005A00070470000003C024070B504460025002062
:1005B0001449C86101F02CF9054609E0601C38B106
:1005C00024B101F025F9401BA04201D9032070BDE0
:1005D0000D48006800F480300028EFD10A48006818
:1005E00000F0010010B101200749086006480068CA
:1005F00000F4F97018B104F073F80120E7E7002067
:10060000E5E70000B40500200C3C0240F0B50446CC
:100610000D461E4694F8207020688368A86800B9CB
:1006200000E000BF012F01D0022F7DD103F08060D8
:1006300030B903F0006018B903F0805000287ED074
:10064000C3F30161012088403060A86860B9B5F843
:1006500000C0E86840EA4C5C206800F5C07000EB20
:100660000110C0F800C00FE0D5E901C040EACC009D
:10067000D5F80CC040EA0C00D4F800C00CF5C07CE2
:100680000CEB011CCCF80000D5F810C0206800F578
:10069000C07000EB0110C0F804C0287D01280ED105
:1006A000206800F5C07000EB0110406840F4807CC9
:1006B000206800F5C07000EB0110C0F804C0D079CC
:1006C000000692F806C040EA0C4092F805C040EAE5
:1006D0000C2092F804C040EA0C00D4F800C00CF5DD
:1006E000C07C0CEB011CCCF80C00D078000692F812
:1006F00002C040EA0C4092F801C040EA0C2092F897
:1007000000C040EA0C00D4F800C00CF5C07C0CEB33
:10071000011CCCF80800206800F5C07000EB011047
:10072000006840F0010C01E00FE008E0206800F5EF
:10073000C07000EB0110C0F800C00020F0BD606A7E
:1007400040F4001060620120F8E7606A40F4802005
:1007500060620120F2E70000F0B504460A46216815
:1007600094F82050012D01D0022D7ED1424901F58F
:100770000071086840F001000860086820F47C50AF
:1007800008600868566A40EA06200860107D00F09C
:100790001F06012000FA06F3C8699843C861A1F555
:1007A0000071D069C8B9D1F80C029843C1F80C02A5
:1007B000908880B2968940EA064601F51070576924
:1007C00040F83760108880B2168940EA064601F585
:1007D0001070576900EBC7004660D069012819D135
:1007E000D1F80C021843C1F80C02908880B2168828
:1007F00040EA064601F51070576940F83760908965
:1008000080B2168940EA064601F51070576900EB80
:10081000C7004660906928B9D1F804029843C1F82E
:10082000040204E0D1F804021843C1F8040210697C
:1008300028B9D1F814029843C1F8140204E0D1F8A1
:1008400014021843C1F81402106A012804D1D1F827
:100850001C021843C1F81C02D1F8000220F001006C
:10086000C1F800020020F0BDFFE7606A40F480207C
:1008700060620120F7E7000000640040704770B537
:10088000044694F82050012D01D0022D7DD151B99C
:100890002068C06800F0030080B9606A40F400106E
:1008A0006062012070BD2068006900F0030028B973
:1008B000606A40F4001060620120F3E7206800F5F0
:1008C000D87000EB0110006800F0040090609068A0
:1008D00040B9206800F5D87000EB01100068400DA9
:1008E000106007E0206800F5D87000EB0110006888
:1008F000C0085060206800F5D87000EB0110006857
:1009000000F00200D060206800F5D87000EB011004
:10091000406800F00F00082802D30820106108E0AA
:10092000206800F5D87000EB0110406800F00F005F
:100930001061206800F5D87000EB0110406800F4E9
:100940007F40000A9061206800F5D87000EB01102C
:100950004068000C5061206800F5D87000EB011071
:1009600080681870206800F5D87000EB011080686E
:1009700000F47F40000A5870206800F5D87000EB42
:100980000110806800F47F0000E03CE0000C9870EB
:10099000206800F5D87000EB01108068000ED87058
:1009A000206800F5D87000EB0110C068187120684D
:1009B00000F5D87000EB0110C06800F47F40000A19
:1009C0005871206800F5D87000EB0110C06800F481
:1009D0007F00000C9871206800F5D87000EB0110C2
:1009E000C068000ED87131B92068C06840F020009E
:1009F0002668F06005E02068006940F02000266865
:100A0000306100204EE7606A40F48020606201207F
:100A100048E72DE9F05F0446002520684669206814
:100A2000D0F80490206887682068D0F80CA020686F
:100A3000D0F810B02068D0F8188006F00100002827
:100A400055D007F00100C0B101202168886007F08F
:100A5000020018B1204600F09EFA0EE007F00400F4
:100A600010B145F4006508E007F0080010B145F446
:100A7000805502E0204600F08DFA07F48070C8B17E
:100A80004FF480702168886007F4007018B1204628
:100A900000F083FA0EE007F4806010B145F40055D1
:100AA00008E007F4006010B145F4804502E02046FC
:100AB00000F072FA07F48030C8B14FF4803021683A
:100AC000886007F4003018B1204600F068FA0EE0A4
:100AD00007F4802010B145F4004508E007F4002039
:100AE00010B145F4803502E0204600F057FA06F0D8
:100AF000080038B10AF0100020B145F4007510204C
:100B00002168C86006F0040040B10AF0080028B16E
:100B100008202168C860204600F0B0F906F0020005
:100B200038B12068C06800F0030010B1204600F022
:100B3000A7F906F0400038B10BF0100020B145F4E1
:100B4000806510202168086106F0200040B10BF09C
:100B5000080028B1082021680861204600F0BCF98F
:100B600006F0100038B12068006900F0030010B1F1
:100B7000204600F0B3F906F4003040B109F010004F
:100B800028B1102021684860204600F0D3F906F40F
:100B9000803040B109F0080028B108202168486081
:100BA000204600F0FDF906F4004088B309F0040087
:100BB00078B306F4807020B108F0010008B145F068
:100BC000010506F4007020B108F0020008B145F0FC
:100BD000020506F4806020B108F0040008B145F079
:100BE000040506F40060A0B108F0700088B108F0B8
:100BF0007000402817D006DC10280BD020280CD01D
:100C0000302819D10CE0502810D0602814D110E001
:100C10001DE019E045F008050FE045F010050CE077
:100C200045F0200509E045F0400506E045F0800567
:100C300003E045F4807500E000BF00BF20688069D4
:100C400020F07000216888610420216848602DB17F
:100C5000606A284360622046FFF710FEBDE8F09FFF
:100C600070B504460CB9012070BD94F8200010B98D
:100C7000204600F0AFF82068006840F001002168CD
:100C8000086000F0C5FD05460DE000F0C1FD401B09
:100C90000A2808D9606A40F400306062052084F8B0
:100CA00020000120E0E72068406800F001000028F3
:100CB000EBD02068006820F002002168086000F096
:100CC000A7FD05460DE000F0A3FD401B0A2808D94A
:100CD000606A40F400306062052084F82000012042
:100CE000C2E72068406800F002000028EBD1207EB7
:100CF000012806D12068006840F080002168086063
:100D000005E02068006820F0800021680860607EAF
:100D1000012806D12068006840F040002168086082
:100D200005E02068006820F0400021680860A07E8F
:100D3000012806D12068006840F020002168086082
:100D400005E02068006820F0200021680860E07E4F
:100D5000012806D12068006820F010002168086092
:100D600005E02068006840F0100021680860207FDE
:100D7000012806D12068006840F00800216808605A
:100D800005E02068006820F0080021680860607FA6
:100D9000012806D12068006840F00400216808603E
:100DA00005E02068006820F0040021680860D4E9AC
:100DB0000201084321690843616908436168491ECB
:100DC00008432168C86100206062012084F8200087
:100DD000002049E710B586B00446142101A8FFF7AA
:100DE000ECFA2349206888423FD100BF00200090E0
:100DF0002048006840F000701E49086008460068FE
:100E000000F00070009000BF00BF00BF0020009005
:100E100018481038006840F008001649103908607A
:100E20000846006800F00800009000BF00BF0320E3
:100E300001900220029000200390032004900920DA
:100E4000059001A90C4800F0D5FB002211461420A2
:100E500000F06CFD142000F055FD00221146152015
:100E600000F064FD152000F04DFD06B010BD00003F
:100E70000064004040380240000C0240704700000F
:100E800010B504461049206888420CD10F4BA3F1DD
:100E90001C0200212046FFF7F2FC0C482038816A32
:100EA000001D88470FE00A49206888420BD1094B92
:100EB000A3F11C0200212046FFF7E1FC0548203881
:100EC000816A001D884710BD006400405801002061
:100ED00000680040840100207047000010B50446FF
:100EE0001049206888420CD10F4BA3F11C0201214C
:100EF0002046FFF7C4FC0C482038816A001D884753
:100F00000FE00A49206888420BD1094BA3F11C026B
:100F100001212046FFF7B3FC05482038816A001DF7
:100F2000884710BD00640040580100200068004060
:100F300084010020704770B5044694F82000012811
:100F400022D1022084F820002068006820F00100EF
:100F50002168086000F05CFC05460DE000F058FCDC
:100F6000401B0A2808D9606A40F4003060620520FE
:100F700084F82000012070BD2068406800F0010066
:100F80000028EBD16062F6E7606A40F400206062FE
:100F90000120F0E77047704770477047704770470F
:100FA000704770B50446A56D00F032FC064694F813
:100FB0003500022808D08020606500BF002084F83A
:100FC000340000BF012070BD2068006820F01600CA
:100FD000216808602068406920F08000216848612D
:100FE000206C08B9A06C28B12068006820F00800C7
:100FF000216808602068006820F00100216808600E
:1010000010E000F005FC801B05280BD9202060654E
:10101000032084F8350000BF002084F8340000BFAE
:101020000320D0E72068006800F001000028E8D124
:1010300094F85C103F208840A860012084F83500B7
:1010400000BF002084F8340000BF00BFBBE70146AA
:1010500091F83500022803D08020486501207047B0
:10106000052081F835000868006820F001000A6852
:1010700010600020F3E70146486D7047F8B504465C
:10108000002000908C4800684FF41651B0FBF1F737
:10109000A56D2E6894F85C1008208840304098B107
:1010A0002068006800F0040070B12068006820F03B
:1010B00004002168086094F85C1008208840A8604B
:1010C000606D40F00100606594F85C10012088407C
:1010D000304068B12068406900F0800040B194F869
:1010E0005C1001208840A860606D40F002006065DF
:1010F00094F85C1004208840304068B12068006893
:1011000000F0020040B194F85C1004208840A86010
:10111000606D40F00400606594F85C101020884019
:10112000304078B32068006800F0080050B394F8AD
:101130005C1010208840A8602068006800F48020BF
:1011400080B12068006800F4002028B9206CC8B184
:101150002046216C884715E0A06C98B12046A16C10
:1011600088470FE02068006800F4807028B9206884
:10117000006820F0080021680860206C10B120464B
:10118000216C884794F85C1020208840304000286B
:1011900065D02068006800F0100000285FD094F847
:1011A0005C1020208840A86094F83500052828D1DC
:1011B0002068006820F016002168086020684069F7
:1011C00020F0800021684861206C08B9A06C28B12B
:1011D0002068006820F008002168086094F85C101E
:1011E0003F208840A860012084F8350000BF00201F
:1011F00084F8340000BF206D10B12046216D88476F
:10120000F8BD2068006800F4802080B12068006884
:1012100000F4002028B9606C10B12046616C88474A
:101220001DE0E06BD8B12046E16B884717E02068ED
:10123000006800F4807068B92068006820F0100031
:1012400021680860012084F8350000BF002084F880
:10125000340000BFE06B10B12046E16B8847606D41
:1012600038B3606D00F00100F0B1052084F835005E
:101270002068006820F001002168086000BF009825
:10128000401C0090B84200D905E02068006800F0DA
:1012900001000028F3D100BF012084F8350000BF11
:1012A000002084F8340000BFE06C10B12046E16CEF
:1012B000884700BFA4E70000340100202DE9F04179
:1012C0000446002500F0A4FA074614B90120BDE841
:1012D000F081606A00B100BF022084F8350000BFD1
:1012E000002084F8340000BF2068006820F001006E
:1012F000216808600AE000F08BFAC01B052805D9B8
:1013000020206065032084F83500E0E7206800684D
:1013100000F001000028EED1206805682148054052
:10132000D4E901010843E168084321690843616980
:101330000843A1690843E1690843216A084305435A
:10134000606A042803D1D4E90B01084305432068EF
:1013500005602068456925F00705606A0543606AF5
:1013600004280DD1A06A0543E06A48B1204602F086
:1013700034FE28B140206065012084F83500A6E7DE
:1013800020684561204602F07DFE064694F85C1018
:101390003F208840B06000206065012084F835005F
:1013A000002094E73F8010F02DE9F04704460D46F9
:1013B00016461F464FF00008D4F8589000BF94F826
:1013C0003400012802D10220BDE8F087012084F812
:1013D000340000BF94F83500012825D1022084F89C
:1013E0003500002060653B4632462946204602F023
:1013F000DEFD94F85C103F208840C9F808002068A2
:10140000006840F0160021680860206C28B1206850
:10141000006840F00800216808602068006840F01B
:1014200001002168086006E000BF002084F8340055
:1014300000BF4FF002084046C6E7000070B5044602
:1014400000F0E6F906462546681C10B1044800780D
:10145000054400BF00F0DCF9801BA842FAD370BD40
:10146000300100202DE9F04104460E4601270025F9
:1014700000BF2648007E012802D10220BDE8F0818D
:1014800001202249087600BF4CF25030FFF78CF85B
:101490000746002F32D1401E30602068012810D14D
:1014A000207C616803F0BEF94CF25030FFF77CF805
:1014B00007461748006848F2040188431449086049
:1014C0001AE0A56812E0217C2846FFF701F84CF2EB
:1014D0005030FFF769F807460D48006820F0FA0021
:1014E0000B4908600FB1356005E06D1CD4E90210AE
:1014F0000844A842E7D800BFFFF71AF800BF002051
:101500000249087600BF3846B8E70000B40500205D
:10151000103C02400348006840F000400149086068
:1015200000207047103C02402DE9F04106460F466E
:1015300014461D464FF0010800BF1F48007E0128D9
:1015400002D10220BDE8F08101201B49087600BFCE
:101550004CF25030FFF728F88046B8F1000F23D145
:1015600026B9E1B2384603F095F812E0012E04D115
:10157000A1B2384603F00EF90BE0022E04D1214649
:10158000384603F099F804E022462B46384603F02B
:1015900015F94CF25030FFF707F88046074800680D
:1015A00020F001000549086000BF002002490876CC
:1015B00000BF4046C6E70000B4050020103C0240D2
:1015C00000200949096801F0004159B10749064A5C
:1015D0000C3A1160064911600349096801F00041A5
:1015E00001B1012070470000103C02402301674513
:1015F000AB89EFCDF8B502460B460025002400204C
:101600000021E0E0012606FA01F51E6806EA05045D
:10161000AC4274D11E7906F00306012E04D01E7967
:1016200006F00306022E13D190684F000326BE4039
:10163000B0434F00DE68BE403043906050680126E2
:101640008E40B0431E79C6F300168E403043506082
:101650001E7906F00306032E09D0D0684F0003263A
:10166000BE40B0434F009E68BE403043D0601E79FC
:1016700006F00306022E13D1CF0802F1200656F819
:1016800027004E07F70E0F26BE40B0434F07FF0E50
:101690001E69BE403043CF0802F1200646F82700FD
:1016A00010684F000326BE40B0431E7906F00306C3
:1016B0004F00BE40304310605E6806F44036002E96
:1016C0001DD000BF00260096414E366846F4804685
:1016D0003F4F3E603E46366806F48046009600BFA7
:1016E00000BF3C4E8F0856F827008E07370F0F2695
:1016F000BE40B043384EB24202D100262EE061E037
:10170000364EB24201D1012628E0354EB24201D117
:10171000022623E0334EB24201D103261EE0324EB0
:10172000B24201D1042619E0304EB24201D1052661
:1017300014E02F4EB24201D106260FE02D4EB242E8
:1017400001D107260AE02C4EB24201D1082605E05D
:101750002A4EB24201D1092600E00A268F073F0F28
:10176000BE4030431B4E8F0846F82700244E306899
:10177000A0435E6806F4801606B12043204E306018
:10178000361D3068A0435E6806F4001606B120439B
:101790001B4E361D30601A4E361F3068A0435E68FF
:1017A00006F4003606B12043154E361F3060361F52
:1017B0003068A0435E6806F4803606B12043104EC0
:1017C000083E3060491C1029FFF41CAFF8BD000032
:1017D0004438024008380140000002400004024042
:1017E00000080240000C02400010024000140240B9
:1017F00000180240001C0240002002400024024069
:10180000083C01400AB1816101E00B04836170472B
:101810000148006870470000280100200348006864
:1018200003490978084401490860704728010020ED
:101830003001002010B50D48006840F400700B49DD
:1018400008600846006840F4806008600846006848
:1018500040F480700860032000F0A6F80F2000F02C
:1018600007F800F02BF8002010BD0000003C0240FB
:1018700070B504460E4800784FF47A71B1FBF0F071
:101880000C490968B1FBF0F5284600F075FC08B179
:10189000012070BD102C07D200222146501E00F0FE
:1018A00045F80548046001E00120F2E70020F0E778
:1018B00030010020340100202C01002008B500BFB9
:1018C000002000900E48006840F480400C490860F9
:1018D0000846006800F48040009000BF00BF00BFD1
:1018E00000200090081F006840F08050091F086029
:1018F0000846006800F08050009000BF00BF08BD9F
:10190000443802400146084600280DDB00BF00BFF6
:1019100000F01F0301229A4043099B0003F1E023DA
:10192000C3F8002100BF00BF00BF70472DE9F05F82
:1019300080460D461646002702F06CFF07463946E2
:101940002A46334601F00700C0F1070ABAF1040F36
:1019500002D94FF0040A01E0C0F1070AD14600F1B4
:10196000040ABAF1070F02D24FF0000A01E0A0F119
:10197000030AD4464FF0010A0AFA09FAAAF1010A49
:101980000AEA020A0AFA0CFA4FF0010B0BFA0CFBF6
:10199000ABF1010B0BEA030B4AEA0B04214640466C
:1019A00002F024FFBDE8F09F00BF00F00702064BE5
:1019B00019684FF6FF031940044B0B4343EA022119
:1019C000014B196000BF70470CED00E00000FA0504
:1019D00038B5002400BF002000901D48006840F08A
:1019E00080501B4908600846006800F08050009055
:1019F00000BF00BF012017490864FFF709FF044634
:101A000007E0FFF705FF001BB0F57A7F01D903203F
:101A100038BD1148406800F48030B0F5803FF0D107
:101A200001200C494864FFF7F3FE044607E0FFF786
:101A3000EFFE001BB0F57A7F01D90320E8E70648E6
:101A4000406800F40030B0F5003FF0D10020DFE73F
:101A50004038024000000E420070004070B504465D
:101A60000D460CB9012070BD5848006800F00F0009
:101A7000A84209D255490D700846006800F00F00D1
:101A8000A84201D00120EEE7207800F002000228F1
:101A90001DD1207800F00400042805D14C480068CE
:101AA00040F4E0504A490860207800F00800082817
:101AB00005D14748006840F4604045490860444803
:101AC000006820F0F000A1680843414908602078D0
:101AD00000F00100A8B36068012807D13C4808382D
:101AE0000068C0F34040B8B90120BCE76068022834
:101AF00002D06068032807D1354808380068C0F371
:101B0000406048B90120AEE7314808380068C0F3AA
:101B1000400008B90120A6E72D48006820F0030026
:101B2000616808432A490860FFF772FE064609E02B
:101B3000FFF76EFE801B41F28831884202D90320F4
:101B400091E707E02248006800F00C006168B0EB04
:101B5000810FEDD11D48006800F00F00A84209D99F
:101B60001A490D700846006800F00F00A84201D025
:101B7000012078E7207800F00400042807D11448F9
:101B8000006820F4E050E1680843114908602078BB
:101B900000F00800082808D10D48006820F46040D3
:101BA000216940EAC1000A49086000F03FF808498D
:101BB0000968C1F30311074A515CC840064908602F
:101BC00006480068FFF754FE00204CE7003C024046
:101BD00008380240C64C0008340100202C010020C7
:101BE00001480068704700003401002000B5FFF78D
:101BF000F7FF04490968C1F38221034A515CC840D8
:101C000000BD000008380240D64C000800B5FFF7C0
:101C1000E7FF04490968C1F34231034A515CC840F7
:101C200000BD000008380240D64C00082DE9F047FE
:101C3000002400250026A1462548006800F00C007D
:101C400020B1042805D008283AD105E0DFF88490B7
:101C500039E0DFF8849036E01D48001F006800F08E
:101C60003F041B48001F006800F4800078B11A4848
:101C70001749091F0968C1F38811A0FB01700146CB
:101C8000224600233846FEF721FB05460EE01148A8
:101C90000F49091F0968C1F38811A0FB01700146B3
:101CA000224600233846FEF711FB05460848001F70
:101CB0000068C0F30140401C4600B5FBF6F902E0A5
:101CC000DFF8109000BF00BF4846BDE8F087000075
:101CD000083802400024F400001BB700F8B50446A1
:101CE0000CB90120F8BD207800F00100002874D064
:101CF000F948006800F00C0004280DD0F648006890
:101D000000F00C00082813D1F348001F006800F40D
:101D10008000B0F5800F0BD1EF4808380068C0F3A1
:101D20004040002859D06068002856D10120D9E7EA
:101D300000BF6068B0F5803F08D1E7480838006808
:101D400040F48030E449083908601EE06068B0F56E
:101D5000A02F0DD1E0480838006840F48020DE490B
:101D6000083908600846006840F4803008600CE0DC
:101D7000D9480838006820F48030D749083908600D
:101D80000846006820F48020086000BF606890B1B9
:101D9000FFF73EFD054606E0FFF73AFD401B6428CD
:101DA00001D903209EE7CC4808380068C0F34040C2
:101DB0000028F1D011E0FFF72BFD054606E0FFF704
:101DC00027FD401B642801D903208BE7C24808384F
:101DD0000068C0F340400028F1D1207800F00200F4
:101DE00002285FD1BC48006800F00C0058B1BA4826
:101DF000006800F00C0008281CD1B748001F0068DC
:101E000000F48000B0B9B44808380068C0F340005E
:101E100020B1E068012801D0012063E7AE4808380E
:101E2000006820F0F800216940EAC100AA49083999
:101E3000086037E0E06800B30120A8490860FFF7B8
:101E4000E7FC054606E0FFF7E3FC401B022801D94A
:101E5000032047E7A04808380068C0F34000002886
:101E6000F1D09D480838006820F0F800216940EA68
:101E7000C10099490839086014E0002097490860BA
:101E8000FFF7C6FC054606E0FFF7C2FC401B022830
:101E900001D9032026E7904808380068C0F34000C5
:101EA0000028F1D1207800F0080008282CD16069C2
:101EB000A8B101208A490860FFF7AAFC054606E0A0
:101EC000FFF7A6FC401B022801D903200AE782483D
:101ED0006C300068C0F340000028F1D014E000200E
:101EE0007F490860FFF794FC054606E0FFF790FC89
:101EF000401B022801D90320F4E677486C300068C3
:101F0000C0F340000028F1D1207800F0040004283C
:101F100070D1002770483830006800F0805090B9C8
:101F200000BF002000906C483830006840F08050BE
:101F30006949383108600846006800F08050009018
:101F400000BF00BF01276748006800F48070B0B987
:101F50006448006840F4807062490860FFF758FCEC
:101F6000054606E0FFF754FC401B022801D9032078
:101F7000B8E65C48006800F480700028F2D000BF2A
:101F8000A068012808D154486830006840F001007A
:101F90005149683108601DE0A06805280DD14E4800
:101FA0006830006840F004004B496831086008461A
:101FB000006840F0010008600CE0474868300068A5
:101FC00020F001004449683108600846006820F0AC
:101FD0000400086000BFA068A8B1FFF719FC05461F
:101FE00009E0FFF715FC401B41F28831884202D915
:101FF000032077E626E0384868300068C0F34000E8
:102000000028EED013E0FFF703FC054608E0FFF7D9
:10201000FFFB401B41F28831884201D9032061E671
:102020002D4868300068C0F340000028EFD1012F30
:1020300007D129483830006820F0805026493831CF
:10204000086000BFA069002845D02348006800F060
:102050000C0008285DD0A069022845D100201F4946
:102060000866FFF7D5FB054606E0FFF7D1FB401BEE
:10207000022801D9032035E6174808380068C0F364
:1020800040600028F1D1D4E907010843616A40EAC1
:1020900081110122A06AC2EB500041EA00412C20CC
:1020A000005D41EA00600C49091F086001200B49EE
:1020B0000866FFF7ADFB054606E0FFF7A9FB401BEE
:1020C000022801D903200DE6034808380068C0F350
:1020D00040600028F1D049E0083802400000474243
:1020E000800E474200700040002021490866FFF73B
:1020F0008FFB054606E0FFF78BFB401B022801D94A
:102100000320EFE51B480068C0F340600028F2D1CF
:102110002CE0A069012800D1E4E51648001D0668FE
:10212000A069012820D006F48001E06981421BD11A
:1021300006F03F01206A814216D147F6C070304058
:10214000616AB0EB811F0FD106F440310122A06A11
:10215000C2EB5000B1EB004F06D106F070612C20AD
:10216000005DB1EB006F01D00120BBE50020B9E5B7
:10217000000047420038024070B504462546681EFC
:10218000B0F1807F01D301200FE0681E4FF0E02105
:1021900048610F214FF0FF3002F028FB00204FF084
:1021A000E021886107200861002070BDF8B5044671
:1021B0000E46174694F8420020282ED106B10FB9DA
:1021C0000120F8BD01202063002060633A463146BB
:1021D000204600F09DFC0546EDB9206B012819D181
:1021E00000BF0020009020680068009020684068D0
:1021F000009000BF00BF00BF00BF21680C3151E854
:10220000001F41F0100021680C3141E80002002A53
:10221000F3D100E001252846D3E70220D1E70000F2
:102220002DE9F047814688463949D9F800008842AF
:1022300001D0BDE8F0873748006840443549086060
:1022400000263AE03448875D0A2F01D00D2F21D1B6
:1022500032480088002819DD31480078B0B92F488D
:1022600005883F2D00DD3F25002405E02D48005D59
:102270002D490855601C84B2AC42F7DB00202A4986
:1022800048552A4805800120254908700020234927
:10229000088010E021480088782809DA21481F4981
:1022A000098847541D480088401C1C49088002E0EA
:1022B00000201A490880701C86B24645C2DB1748C8
:1022C000008800281CDD16480078C8B91348058826
:1022D0003F2D00DD3F25002405E01248005D124936
:1022E0000855601C84B2AC42F7DB00200E4948550B
:1022F0000E48058001200A4908700020074908801F
:10230000802205494846FFF751FF00BF91E70000D2
:102310000044004014010020280300201C0100207C
:1023200020010020A8030020200400201E0100201E
:1023300010B5044600BF00BF21680C3151E8001FF2
:1023400021F4907021680C3141E80002002AF3D199
:1023500000BF00BF00BF2168143151E8001F21F009
:1023600001002168143141E80002002AF3D100BFC6
:10237000206B01280ED100BF00BF21680C3151E84D
:10238000001F21F0100021680C3141E80002002AF2
:10239000F3D100BF2068406900F04000402820D100
:1023A00000BF00BF2168143151E8001F21F0400038
:1023B0002168143141E80002002AF3D100BFE06B2C
:1023C00078B10020E16B0865E06BFEF7EAFD40B1F3
:1023D000E06BFEF750FE202803D11020606403203C
:1023E00010BD0020E085202084F8420000202063FA
:1023F00000BFF5E738B504461D492068884200D083
:1024000038BD00BF00200090206800680090206860
:102410004068009000BF00BF00BF0020009020680F
:102420000068009020684068009000BF00BF00BFB7
:1024300000200090206800680090206840680090AC
:1024400000BF00BF00BF002000902068006800901F
:1024500020684068009000BF00BF2046FFF768FF7B
:10246000802204492046FFF7A1FE00BFC8E7000014
:1024700000440040280300202DE9F84F044620685E
:1024800005682068C668206847694FF00009CA4699
:1024900005F00F09B9F1000F0AD105F0200038B19D
:1024A00006F0200020B1204601F044FFBDE8F88F7F
:1024B000B9F1000F7CD007F0010018B906F4907054
:1024C000002875D005F0010030B106F4807018B115
:1024D000606C40F00100606405F0040030B107F06A
:1024E000010018B1606C40F00200606405F0020069
:1024F00030B107F0010018B1606C40F00400606476
:1025000005F0080048B106F0200010B907F00100FE
:1025100018B1606C40F008006064606C002846D020
:1025200005F0200028B106F0200010B1204601F08F
:1025300001FF20684069C0F3801A606C00F0080059
:1025400010B9BAF1000F2DD0204601F0BAFF206873
:10255000406900F04000402820D100BF00BF216842
:10256000143151E8001F21F040002168143141E886
:102570000002002AF3D100BFE06B50B17748E16B55
:102580000865E06BFEF763FD88B1E06B016D88477D
:102590000DE02046FFF72EFF09E009E02046FFF797
:1025A00029FF04E02046FFF725FF002060647DE757
:1025B000206B012878D105F01000002874D006F0B7
:1025C00010000028FAD000BF0020009020680068AA
:1025D000009020684068009000BF00BF20684069FC
:1025E00000F04000402860D1E06B006840681FFAAE
:1025F00080F8B8F1000F56D0A08D404553DDA4F807
:102600002E80E06BC069B0F5807F43D000BF00BF73
:1026100021680C3151E8001F21F4807021680C31D1
:1026200041E80002002AF3D100BF00BF00BF2168CB
:10263000143151E8001F21F001002168143141E8F4
:102640000002002AF3D100BF00BF00BF216814318F
:1026500051E8001F21F040002168143141E80002D8
:10266000002AF3D100BF202084F84200002020631C
:1026700000BF00BF21680C3151E8001F21F010009D
:1026800021680C3141E80002002AF3D100BFE06B61
:10269000FEF787FC02206063A08DE28D801A81B274
:1026A0002046FFF7BDFD01E742E0A08DE18D401A15
:1026B0001FFA80F8E08DD0B3B8F1000F37D000BF1B
:1026C00000BF21680C3151E8001F21F4907021688F
:1026D0000C3141E80002002AF3D100BF00BF00BF67
:1026E0002168143151E8001F21F0010021681431E4
:1026F00041E80002002AF3D100BF202084F8420004
:102700000020206300BF00BF21680C3151E8001F8A
:1027100021F0100021680C3141E80002002AF3D1B9
:1027200000BF0220606341462046FFF779FDBDE609
:1027300005F0800030B106F0800018B1204601F0AD
:1027400077FEB3E605F0400030B106F0400018B166
:10275000204601F059FFA9E600BFA7E62946000878
:1027600010B504460CB9012010BDA06900B100E00D
:1027700000BF94F8410028B9002084F840002046AA
:1027800000F02AF8242084F841002068C06820F472
:1027900000502168C860204601F0B6FC206800693E
:1027A00020F49040216808612068406920F02A00E8
:1027B000216848612068C06840F400502168C86002
:1027C00000206064202084F8410084F8420000204A
:1027D000606300BFC8E7000010B586B0044614214E
:1027E00001A8FDF7EAFD3D492068884273D100BF8A
:1027F000002000903A48006840F4003038490860F2
:102800000846006800F40030009000BF00BF00BF21
:102810000020009032481038006840F0080030492D
:10282000103908600846006800F00800009000BFFA
:1028300000BF60200190022002900020039003203E
:1028400004900720059001A92648FEF7D3FE2648EC
:10285000264908604FF000604860002123488160ED
:10286000C1604FF480610161002141618161C161FA
:1028700001624162FEF722FD08B1FDF726FE00BFAE
:102880001A48E063846300BF17481830184908608D
:102890004FF0006048604021154881600021C16010
:1028A0004FF480610161002141618161C161016278
:1028B0004162FEF703FD08B1FDF707FE00BF0C48BB
:1028C000A063846300BF002211462620FFF72EF884
:1028D0002620FFF717F806B010BD000000440040A6
:1028E00040380240000C024088600240F40400209E
:1028F0005405002070477047F7B50446154694F814
:102900004100202836D1019800B10DB90120FEBD4B
:1029100001982062A584E58400206064212084F869
:1029200041001548A16BC8631448A16B08641448A2
:10293000A16BC8640020A16B086501AE23681A1D55
:1029400031682B46A06BFEF72FFD6FF04000216829
:10295000086000BF00BF2168143151E8001F41F03A
:1029600080002168143141E80002002AF3D100BF41
:102970000020CCE70220CAE73D460008B544000825
:10298000B94000087047704700BFFEE710B50E4819
:102990000E4908600920486000210C488160C16030
:1029A0004FF480310161090141610021017601216B
:1029B000417600218176C17601774177FEF750F9A3
:1029C00008B1FDF782FD10BD0064004084040020C2
:1029D00008B500BF002000900E48006840F40010C9
:1029E0000C4908600846006800F40010009000BF21
:1029F00000BF002211461020FEF798FF1020FEF7BE
:102A000081FF002211461120FEF790FF1120FEF7F2
:102A100079FF08BD3038024000B587B0142102A804
:102A2000FDF7CBFC00BF002001901F48006840F07C
:102A300001001D4908600846006800F0010001908F
:102A400000BF00BF00BF002001900846006840F0B2
:102A5000080008600846006800F00800019000BF08
:102A600000BF00BF002001900846006840F08000D1
:102A700008600846006800F08000019000BF00BFB9
:102A800000223C210948FEF7BDFE3C2002900120B7
:102A90000390022004900020059002A90348FEF74D
:102AA000A9FD07B000BD000030380240001C024004
:102AB00010B50A480A4908600A48486000210848D9
:102AC0008160C16001610C21416100218161C161AE
:102AD000FFF746FE08B1FDF7F8FC10BD00440040CA
:102AE000AC04002040420F0000BFFEE700BFFEE73D
:102AF0007047704710B5FEF791FE10BD034800689F
:102B000040F47000014908607047000088ED00E063
:102B100077B581B0044615460298A062A5850020CD
:102B20006064222084F842002848E16BC86328488A
:102B3000E16B08642748E16BC8640020E16B08651D
:102B400002AE32682368191D2B46E06BFEF72CFCA1
:102B500000BF002000902068006800902068406856
:102B6000009000BF00BF206970B100BF00BF2168A6
:102B70000C3151E8001F41F4807021680C3141E8AC
:102B80000002002AF3D100BF00BF00BF216814314A
:102B900051E8001F41F001002168143141E80002B2
:102BA000002AF3D100BF00BF00BF2168143151E8F3
:102BB000001F41F040002168143141E80002002A62
:102BC000F3D100BF002004B070BD000055450008DF
:102BD00091440008B940000810B50248FFF74CFCCA
:102BE00010BD0000AC04002000BFFEE7F0B587B0C8
:102BF00006460C4617461D4601940020029003909D
:102C0000049005956B463A4601A93046FDF7FEFC57
:102C100007B0F0BD00B593B0302107A8FDF7CDFB9C
:102C2000142102A8FDF7C9FB00BF0020019026482F
:102C3000006840F08050244908600846006800F0B1
:102C40008050019000BF00BF00BF002001901F48CE
:102C5000006840F440401D4908600846006800F4E0
:102C60004040019000BF00BF012007900004089081
:102C700002200D9041050E9106210F91B421109173
:102C8000022111910421129107A8FFF727F808B13A
:102C9000FDF71BFCFEF79CFE08B1FDF716FC0F20AC
:102CA000029002200390002004904FF4A050059061
:102CB0004FF480500690052102A8FEF7CFFE08B120
:102CC000FDF703FC13B000BD403802400070004027
:102CD00070B5064606F11C04318888B200F004FB8A
:102CE000054605B970BDE868401CE8602078B22848
:102CF00007D1601C01F063F8A862012085F832005A
:102D000071E02078D02807D1601C01F058F82862C3
:102D1000012085F8300066E02078D12807D1601CBA
:102D200001F04DF86862012085F831005BE0207801
:102D3000B32807D1601C01F042F8E862012085F851
:102D4000330050E02078B62808D1601C01F028F844
:102D500085ED040A012085F8340044E02078B72886
:102D600008D1601C01F01CF885ED050A012085F8EA
:102D7000350038E02078B82808D1601C01F010F840
:102D800085ED060A012085F836002CE02078B92868
:102D900008D1601C01F004F885ED070A012085F8D0
:102DA000370020E02078A3280ED02078C2280BD04E
:102DB0002078C32808D02078C42805D02078DA28C5
:102DC00002D02078DC2804D1E01C00F0F8FF686015
:102DD00009E02078A22802D02078C12803D1601C05
:102DE00000F0EDFFA86000BF7CE7F0B58BB00746B0
:102DF0000C4615461E4604F0020080B1E80401901E
:102E0000E80004F0030140EA41000290F00403905E
:102E1000F00004F0030140EA4100049009E0680179
:102E20000190A007400F029070010390A007400F8F
:102E30000490E0100690C4F38000059001200990F2
:102E400000200790012008900E200A9001A9384622
:102E5000FDF782FC0BB0F0BD70B504460D46204670
:102E6000FEF769F82068406940F002002168486177
:102E70002068406940F010002168486113492068CB
:102E800088420FD112480460856200231A46194611
:102E90002046FFF7AAFF00231A460C212046FFF721
:102EA000A4FF12E00B49206888420ED10A48046052
:102EB000856200231A4670212046FFF796FF002303
:102EC0001A467C212046FFF790FF70BD0064004049
:102ED00038010020006800406401002070B52DED2D
:102EE000028B04466568216F681A00F095FC00EEBD
:102EF000100AB8EEC00ADFED200A20EE200ADFED4E
:102F00001F0A80EE201A84ED1E1AA06800EE100A37
:102F1000B8EEC00ADFED1A0A20EE200A84ED1F0A7F
:102F200094ED1F0AB0EE408AB5EEC08AF1EE10FAB9
:102F30000DD294ED200AF1EE480AB4EEE00AF1EE6B
:102F400010FA0DD2B1EE480A84ED200A08E094EDA3
:102F5000200AB4EEC80AF1EE10FA01D284ED208AFC
:102F600094F8880008B1322000E00020C4F88C00FA
:102F7000BDEC028B70BD00000000B4430000804631
:102F80000AD7233C2DE9F04104460D46D4F88400CD
:102F900008B1BDE8F081204600F0C6F90646A81B3E
:102FA00000F03AFC0746606800EB0708A566C4F825
:102FB0006C80284600F030FC00EE100AB8EEC00A23
:102FC000DFED100A20EE200ADFED0F0A80EE201A56
:102FD00084ED1D1AE068C4F8A4000120C4F8840040
:102FE0000A480068C4F89C0008480068C4F8B000AB
:102FF00006480068C4F8B4006168207800F0DAFA86
:1030000000BFC6E70000B443000080460000002077
:103010002DE9FC5F04464FF0000BAF4800680190BB
:10302000D4F8AC100198401A642801D2BDE8FC9F86
:103030000198C4F8AC00D4ED140A9FEDA81AB6EEBE
:10304000000A00EE810ABDEEC00A10EE105AD4ED5F
:10305000150A9FEDA21AB6EE000A00EE810ABDEE37
:10306000C00A10EE106A94ED120ABDEEC00A10EE0E
:1030700010AA64200AFB00F9D4ED130A9FED981AF8
:10308000B6EE000A00EE810ABDEEC00A10EE107A1C
:1030900094F85C00002842D194F8340048B194EDD3
:1030A000040A84ED0E0A002084F83400012084F81C
:1030B000580094F8350048B194ED050A84ED0F0AE4
:1030C000002084F83500012084F8590094F8360077
:1030D00048B194ED060A84ED100A002084F8360009
:1030E000012084F85A0094F8370048B194ED070A9B
:1030F00084ED110A002084F83700012084F85B0079
:1031000094F8580058B194F8590040B194F85A0016
:1031100028B194F85B0010B1012084F85C004FF0F6
:103120000008B7E0B8F1080F18D2DFE808F004187B
:103130002C3F52698097D4F8B800A84205D194F882
:10314000300058B1206AA84208D020782A46D02101
:1031500000F012FEC4F8B8504FF0010B95E0D4F81F
:10316000BC00B04205D194F8310058B1606AB04259
:1031700008D020783246D12100F0FEFDC4F8BC60B2
:103180004FF0010B81E0D4F8C000484505D194F818
:10319000320050B1A06A484507D02078514600F06F
:1031A0001FFAC4F8C0904FF0010B6EE0D4F8C400D1
:1031B000B84205D194F8330050B1E06AB84207D064
:1031C0002078394600F0D2F9C4F8C4704FF0010BF2
:1031D0005BE094F85C0090B194ED0E0AD4ED040A23
:1031E000B4EE600AF1EE10FA09D0D4ED0E0AB0EE9A
:1031F000600A2078B62100F0A7FE4FF0010B44E0F2
:1032000094F85C0090B194ED0F0AD4ED050AB4EE89
:10321000600AF1EE10FA09D0D4ED0F0AB0EE600AA0
:103220002078B72100F090FE4FF0010B2DE094F8CC
:103230005C0090B194ED100AD4ED060AB4EE600A79
:10324000F1EE10FA09D0D4ED100AB0EE600A207841
:10325000B82100F079FE4FF0010B16E094F85C0005
:1032600090B194ED110AD4ED070AB4EE600AF1EEC4
:1032700010FA09D0D4ED110AB0EE600A2078B92115
:1032800000F062FE4FF0010B00BF00BF08F101002B
:1032900000F0FF08B8F1080F03DABBF1000F3FF4AC
:1032A00041AFBBF1000F15D194F8C8000D49085C7F
:1032B000009094F8C810481CC11700EB5171C91058
:1032C000A0EBC10184F8C81020780122694600F003
:1032D00047FB00BF00BFA9E6000000200000C84275
:1032E00000007A44B64C000801460848007888423D
:1032F00001D106487047054890F8CC00884202D1B9
:103300000248CC30F6E70020F4E7000090010020EE
:1033100010B5044600F032FB6100491CB0FBF1F22D
:1033200001FB1200001B10BD10B504466168226F3E
:10333000881A00F071FA10BD70B504465D48056842
:10334000D4F88400052818D2DFE800F003182945D6
:10335000910094F8900080B1D4F8A000281A0CD401
:10336000B420FFF7D5FF80034FF4B47190FBF1F662
:1033700031462046FFF706FE00BF98E0D4F89C00D7
:10338000281A3C280AD32078002100F033FAC4F828
:10339000B4500220C4F88400C4F89C5087E0D4F8EC
:1033A000B400281A642805DB2078002100F022FAF6
:1033B000C4F8B450D4F89C00281AC8280AD320783E
:1033C000E16E00F0F7F8C4F8B0500320C4F88400B0
:1033D000C4F89C506BE0D4F8B000281AB0F5967F82
:1033E0000BDB2078E16E00F0E5F82078002100F09A
:1033F00001FAC4F8B050C4F8B4502046FFF794FF67
:10340000A16E461A16F1100F07DD102E05DA042002
:10341000C4F88400C4F89C5028E0E068D4F8A410F4
:1034200088420FD1D4F89C00281A40F6B83188425F
:1034300008D9042044F8840FA5616069401C6061CC
:10344000843C13E0E068D4F8A41088420ED0D4F88D
:103450009C00281A47F23051884207D9042044F8CA
:10346000840FA5616069401C6061843C1FE0D4F852
:103470009C00281A502819D394F8910010B141F2F9
:10348000883001E04FF4FA6006460020743460771B
:1034900014F8740C012100F0ADF900202061206ABD
:1034A000401C2062A819E062743C00BF00BF00BF4E
:1034B00070BD00000000002030B52DED048B81B000
:1034C00005460095002421E0009800782D280BD0B7
:1034D000009800782B2807D000980078302812DB5D
:1034E0000098007839280EDC684600F0C5FCB0EE84
:1034F000409A14B9B0EE498A03E0012C01D1F0EEF4
:10350000498A641C02E00098401C009000980078F2
:103510000028D9D1022C08DBB0EE480A00F078F878
:10352000B0EE680A012000F073F801B0BDEC048B26
:1035300030BD000038B5044604A0006800900122A8
:103540006946204600F00CFA38BD0000A3000000D8
:1035500038B5044604A00068009001226946204660
:1035600000F0FEF938BD0000A20000007CB5044662
:103570000D4607A103C9CDE9000129460DF101005F
:1035800000F00DFD05226946204600F0E9F97CBDFA
:10359000B30000000000000038B5044604A0006835
:1035A000009001226946204600F0DAF938BD00009B
:1035B000B10000007CB504460D4607A103C9CDE962
:1035C000000129460DF1020000F0E9FC06226946DF
:1035D000204600F0C5F97CBDDA00000000000000C4
:1035E0007CB505460C4608A103C9CDE9000164205D
:1035F00004FB00F10DF1010000F0D1FC0522694649
:10360000284600F0ADF97CBDB200000000000000CB
:103610002DE9F0412DED028B0546B0EE408A9FED7D
:10362000220AB4EEC08AF1EE10FA04DD9FED1E0A04
:10363000B0EE408A0AE09FED1D0AB4EEC08AF1EEBA
:1036400010FA03D29FED190AB0EE408A0DB918485E
:1036500001E01748CC3004460DB9164800E0164882
:103660000646002084F8900086ED008AD4F8840095
:1036700088B984ED198A9FED110A28EE000ADFED62
:10368000100A80EE201ABDEEC10A10EE107A3946FB
:103690002046FFF777FC0B480068401C094908608A
:1036A000BDEC028BBDE8F08100003443000034C360
:1036B000900100204C000020D00000200000804637
:1036C0000000B4431801002030B52DED028B89B005
:1036D0002B4D2C4890ED000A8DED010A2A4890ED03
:1036E000000A8DED020A294890ED000A8DED030ACB
:1036F000274890ED000A8DED040A264890ED000A57
:103700008DED050A244890ED000A8DED060A234848
:10371000006800EE100AB8EE400A8DED070A204856
:10372000006800EE100AB8EE400A8DED080A002489
:103730000BE001A800EB840090ED008AB0EE480A8F
:10374000284600F01DFC2D1D641C082CF1DB002018
:103750000B4981F8200081F82100802081F82200A7
:103760007F2081F823000F4890F84100202803D1E2
:1037700024220C48FFF7C0F809B0BDEC028B30BD25
:103780006004002010000020140000201800002019
:1037900094000020980000209C00002014010020CC
:1037A00018010020AC04002000B587B00020019073
:1037B000FDF706FF002002900420049001200590F0
:1037C0000220069001A902A8FDF74CFEFDF7A2FE1B
:1037D00007B000BD10B50446FDF7F2FE044A002311
:1037E00021460220FDF7A0FEFDF794FE10BD00006B
:1037F000025A5A5A38B505460C46CE208DF80000BC
:103800000CB1012000E000208DF801000222694681
:10381000284600F0A5F838BD01460A46CB1701EB53
:1038200093439B13A1EB8330B0F5005F02DBA0F55F
:10383000804004E010F5005F01DC00F58040704737
:103840000178012931D13249097880F89010314945
:1038500091ED000A80ED180A2F4991ED000A80EDE4
:103860000E0A2E4991ED000A80ED0F0A2C4991EDC8
:10387000000A80ED100A2B4991ED000A80ED110A33
:10388000294991ED000A80ED120A284991ED000ABC
:1038900080ED130A264991ED000A80ED140A2549AE
:1038A00091ED000A80ED150A30E02349097880F88F
:1038B0009010224991ED000A80ED180A204991EDFF
:1038C000000A80ED0E0A1F4991ED000A80ED0F0AF3
:1038D0001D4991ED000A80ED100A1C4991ED000A86
:1038E00080ED110A1A4991ED000A80ED120A19497A
:1038F00091ED000A80ED130A174991ED000A80ED61
:10390000140A164991ED000A80ED150A704700006F
:10391000280000204C00002050000020540000200F
:10392000580000205C00002060000020640000209F
:10393000680000206C000020AC000020D0000020B7
:10394000D4000020D8000020DC000020E00000208F
:10395000E4000020E8000020EC000020F00000203F
:1039600070B504460D46164633462A46214602489F
:10397000FFF73CF970BD0000840400200548006892
:10398000054948430549084402490860084600685B
:10399000704700000C0100200D6619005FF36E3CBB
:1039A0002DE9F04F93B090F800B0BBF1010F5BD15F
:1039B000B349B44AB44BB54CB54DB64EB64FDFF82B
:1039C000DCC2DFF8DC82DFF8DC92DFF8DCA2DFF8B3
:1039D000DCB2CDF848B0DFF8D8B2CDF844B0DFF8AB
:1039E000D4B2CDF840B0DFF8D0B2CDF83CB0DFF8BB
:1039F000CCB2CDF838B0DFF8C8B2CDF834B0DFF8CB
:103A0000C4B2CDF830B0DFF8C0B2CDF82CB0DFF8DA
:103A1000BCB2CDF828B0DFF8B8B2CDF824B0DFF8EA
:103A2000B4B2CDF820B0DFF8B0B2CDF81CB0DFF8FA
:103A3000ACB2CDF818B0DFF8A8B2CDF814B0DFF80A
:103A4000A4B2CDF810B0DFF8A0B2CDF80CB0DFF81A
:103A50009CB2CDF808B0DFF898B2CDF804B0DFF82A
:103A600094B2CDF800B05AE0A349A44AA44BA54CA7
:103A7000A54DA64EA64FDFF89CC2DFF89C82DFF86A
:103A80009C92DFF89CA2DFF89CB2CDF848B0DFF83A
:103A900098B2CDF844B0DFF894B2CDF840B0DFF87A
:103AA00090B2CDF83CB0DFF88CB2CDF838B0DFF88A
:103AB00088B2CDF834B0DFF884B2CDF830B0DFF89A
:103AC00080B2CDF82CB0DFF87CB2CDF828B0DFF8AA
:103AD00078B2CDF824B0DFF874B2CDF820B0DFF8BA
:103AE00070B2CDF81CB0DFF86CB2CDF818B0DFF8CA
:103AF00068B2CDF814B0DFF864B2CDF810B0DFF8DA
:103B000060B2CDF80CB0DFF85CB2CDF808B0DFF8E9
:103B100058B2CDF804B0DFF854B2CDF800B0D0F808
:103B200004B0C1F800B0D0F86CB0C2F800B0D0F862
:103B300070B0C3F800B0D0F884B0C4F800B0D0F8CA
:103B40008CB0C5F800B0D0F820B0C6F800B0D0F8FE
:103B500024B0C7F800B0D0F828B0CCF800B0D0F846
:103B60002CB0C8F800B090ED1D0A89ED000A90ED68
:103B70001E0A8AED000A90ED1F0ADDF848B08BEDB1
:103B8000000A90ED200ADDF844B08BED000AD0F871
:103B90000CE0DDF840B0CBF800E0D0F894E0DDF8C0
:103BA0003CB0CBF800E0D0F898E0DDF838B0CBF8C6
:103BB00000E090F888E0DDF834B08BF800E090F891
:103BC00090E0DDF830B08BF800E090ED0E0ADDF803
:103BD0002CB08BED000A90ED0F0ADDF828B08BEDCC
:103BE000000A90ED100ADDF824B08BED000A90ED8C
:103BF000110ADDF820B08BED000A90ED120ADDF815
:103C00001CB08BED000A90ED130ADDF818B08BEDB7
:103C1000000A90ED040ADDF814B08BED000A90ED77
:103C2000050ADDF810B08BED000A90ED060ADDF80C
:103C30000CB08BED000A90ED070ADDF808B08BEDB3
:103C4000000AD0F828B000EE10BAB8EEC00ADFEDD6
:103C5000480A20EE200ADDF804B08BED000AD0F807
:103C60002CB000EE10BAB8EEC00ADFED420A20EE2A
:103C7000200ADDF800B08BED000A13B0BDE8F08F2C
:103C8000040000200C000020340000201C00002054
:103C9000240000203C0000204000002044000020C0
:103CA0004800002010000020140000201800002010
:103CB00038000020080000202C00002030000020E8
:103CC0002000002028000020500000205400002088
:103CD000580000205C0000206000002064000020EC
:103CE0007000002074000020780000207C0000207C
:103CF0008000002084000020880000209000002028
:103D0000B8000020A0000020A8000020C000002073
:103D1000C4000020C8000020CC0000209400002037
:103D2000980000209C000020BC0000208C00002097
:103D3000B0000020B4000020A4000020AC0000204F
:103D4000D4000020D8000020DC000020E00000208B
:103D5000E4000020E8000020F4000020F80000202B
:103D6000FC000020000100200401002008010020C8
:103D70000AD7233C6F12833A7CB506460C4615469B
:103D80000020009001908DF8004029460DF10100BF
:103D900000F005F9052269463046FFF7E1FD7CBDDC
:103DA00008B50278437842EA0322837842EA034264
:103DB000C37842EA036100919DED000A08BD014607
:103DC00008784A7840EA02208A7840EA0240CA78B5
:103DD00040EA026070472DE9FC41044661682078A2
:103DE000FFF7E8FB3C20FDF729FB20780021FFF7D7
:103DF00001FDC820FDF722FBC4200190207801229C
:103E000001A9FFF7ADFD6768FDF702FD05462E46E7
:103E10002AE0A3200090FDF7FBFC401B40F6C411F4
:103E2000884200D921E0207801226946FFF798FDF9
:103E30001420FDF703FB6068B84204D06768FDF703
:103E4000E7FC064606E0FDF7E3FC801BB0F5C87F03
:103E500000D30AE0E06830B9FDF7DAFC401BB0F5AA
:103E6000966F00D901E000BFD3E700BF20780121A1
:103E7000FFF7C0FCBDE8FC8170B502461068002168
:103E80009FED2F0AF0EE400A9FED2E0AB0EE401A89
:103E90000023002400E0401C0578202DFBD005788D
:103EA000092DF8D005782D2D02D10123401C03E007
:103EB00005782B2D00D1401C07E00578303D01EB43
:103EC000810605EB46010124401C0578302D02DBFC
:103ED0000578392DF1DD05782E2D1BD1401C13E01E
:103EE0000578303D00EE105AF8EEC01AB0EE600AC8
:103EF00001EE210AF0EE400A9FED120A21EE000ABF
:103F0000B0EE401A0124401C0578302D02DB057804
:103F1000392DE5DD106014B99FED090A70BD43B17C
:103F200000EE101AB8EEC00A30EE200AB1EE400AD8
:103F3000F4E700EE101AB8EEC00A30EE200AEDE702
:103F400000000000CDCCCC3D30B52DED028B83B010
:103F500005460C46B0EE408A0020019002908DF894
:103F60000440B0EE480A0DF1050000F009F8052202
:103F700001A92846FFF7F4FC03B0BDEC028B30BD6D
:103F800008B58DED000A009901700099090A417089
:103F90000099090C81700099090EC17008BD01706B
:103FA0000A0A42700A0C82700A0EC270704730B55D
:103FB0000468246824F4802405682C600468636025
:103FC0008468402C04D10468A2600468E16003E0C6
:103FD0000468A1600468E26030BD014600208A6A7E
:103FE0008B69CBB932B1012A0DD0022A03D0032A42
:103FF00010D10EE000BFCB6A03F08073B3F1807F75
:1040000000D1012007E0CB6AB3F1C07F00D10120CD
:1040100001E000E000BF34E08B69B3F5005F1AD126
:1040200032B1012A07D0022A03D0032A11D10AE0B3
:1040300000BF01200EE0CB6A03F08073B3F1807FF4
:1040400000D1012006E0CB6AB3F1C07F00D101208E
:1040500000E000BF15E032B1012A05D0022A04D0E9
:10406000032A0CD103E000BF00BF012008E0CB6AA7
:1040700003F08073B3F1807F00D1012000E000BF26
:1040800000BF70470146087810381823B0FBF3F2E0
:104090000848805CC865032A05D908686FF30900E1
:1040A000001D886503E008686FF309008865886D66
:1040B00070470000BE4C000870B506460025B46B82
:1040C00020684069C0F3C01594F84100212805D14B
:1040D00025B10020E084204600F029FA20684069DC
:1040E000C0F3801594F84200222805D125B10020A4
:1040F000E085204600F0E5F9606C40F01000606457
:104100002046FEF777F970BD2DE9F84F0446206888
:10411000006920F44050E168084321680861216982
:10412000A068084361690843E1690843009020687A
:10413000C06849F20C618843009908432168C8604F
:104140002068406920F44070A169084321684861F3
:1041500076492068884203D075492068884203D197
:10416000FDF754FD814602E0FDF740FD8146E06920
:10417000B0F5004F6CD102206168A0FB01500346EE
:104180001920A9FB007001462A463846FCF79EF824
:104190006421B0FBF1F04FEA001A02206168A0FB35
:1041A00001510B461920A9FB00712A463846FCF73D
:1041B0008DF8834602206168A0FB01500346192058
:1041C000A9FB00712A463846FCF780F86421B0FB51
:1041D000F1F000EBC00101EB0010ABEB80003221ED
:1041E00001EBC0006421B0FBF1F000F0F8000AEB35
:1041F000400A02206168A0FB015003461920A9FB78
:10420000007001462A463846FCF760F883460220D3
:104210006168A0FB015003461920A9FB00712A46E2
:104220003846FCF753F86421B0FBF1F000EBC00115
:1042300001EB0010ABEB8000322101EBC0006421E8
:10424000B0FBF1F000F007005044216888606AE09C
:1042500004206168A0FB015003461920A9FB0070EF
:1042600001462A463846FCF731F882460420616848
:10427000A0FB015003461920A9FB007001462A4605
:104280003846FCF723F86421B0FBF1F000EBC001E5
:1042900001EB0010AAEB8000322101EB0010642139
:1042A000B0FBF1F000F0F00A04206168A0FB01709F
:1042B00003461920A9FB00513A462846FCF706F8A8
:1042C0006421B0FBF1F00AEB001A04206168A0FB46
:1042D00001510B461920A9FB00712A463846FBF70D
:1042E000F5FF834604206168A0FB015003461920B6
:1042F000A9FB007001462A463846FBF7E7FF642118
:10430000B0FBF1F000EBC00101EB0010ABEB800063
:10431000322101EB00106421B0FBF1F000F00F003E
:10432000504421688860BDE8F88F0000001001400B
:1043300000140140F8B5044694F84200222875D1D3
:10434000A068B0F5805F0CD1206950B90025A66A3D
:1043500020684068C0F308003080A06A801CA0621A
:1043600015E0A56A0026A068B0F5805F03D0A068BC
:1043700028B9206918B920684068287004E02068CE
:10438000406800F07F002870A06A401CA062E08DA9
:10439000401E80B2E085002846D12068C06820F029
:1043A00020002168C8602068C06820F480702168FF
:1043B000C8602068406920F0010021684861202021
:1043C00084F8420000206063206B012826D1002081
:1043D000206300BF00BF21680C3151E8001F21F0AD
:1043E000100021680C3141E80002002AF3D100BF1F
:1043F0002068006800F0100010280AD100BF0020DB
:10440000009020680068009020684068009000BF1D
:1044100000BFA18D2046FDF703FF02E02046FEF716
:1044200069FA0020F8BD01E00020FBE70220F9E76F
:10443000014691F84100212828D18868B0F5805FB5
:104440000BD1086948B90A6A1088C0F308000B68E4
:104450005860086A801C086205E00B6A581C0862F4
:1044600018780B685860C88C401E80B2C88458B950
:104470000868C06820F080000B68D8600868C068D1
:1044800040F040000B68D860002070470220FCE735
:1044900070B50546AC6B01206063206B012805D127
:1044A000A08D41082046FDF7BBFE02E02046FEF746
:1044B00022FA70BD70B50446A56B2846FEF763FA74
:1044C00070BD00BF00BF02680C3252E8002F22F41A
:1044D000907102680C3242E80013002BF3D100BF48
:1044E00000BF00BF0268143252E8002F22F0010121
:1044F0000268143242E80013002BF3D100BF016BB5
:1045000001290ED100BF00BF02680C3252E8002F13
:1045100022F0100102680C3242E80013002BF3D1A4
:1045200000BF202180F8421000210163704700BFC6
:1045300000BF02680C3252E8002F22F0C00102686E
:104540000C3242E80013002BF3D100BF202180F889
:104550004110704770B50546AC6B2868006800F4E0
:104560008070002842D1E08500BF00BF21680C3177
:1045700051E8001F21F4807021680C3141E80002ED
:10458000002AF3D100BF00BF00BF2168143151E8F9
:10459000001F21F001002168143141E80002002AC7
:1045A000F3D100BF00BF00BF2168143151E8001FE4
:1045B00021F040002168143141E80002002AF3D1C3
:1045C00000BF202084F84200206B01280ED100BFDC
:1045D00000BF21680C3151E8001F21F01000216854
:1045E0000C3141E80002002AF3D100BF00206063D3
:1045F000206B012804D1A18D2046FDF711FE02E0B9
:104600002046FEF777F970BD10B504462068C068F3
:1046100020F040002168C860202084F84100204636
:10462000FEF7B0F9002010BD70B50546AC6B002058
:10463000E085E0842046FDF7DDFE70BD70B50546DF
:10464000AC6B2868006800F48070F8B90020E08442
:1046500000BF00BF2168143151E8001F21F0800025
:104660002168143141E80002002AF3D100BF00BFE5
:1046700000BF21680C3151E8001F41F04000216863
:104680000C3141E80002002AF3D102E02046FEF797
:1046900079F970BD074A126822F44072054B1A601E
:1046A0001A4612681A601A46126842F001021A602D
:1046B00001707047103C0240084A126822F44072B0
:1046C000064B1A601A46126842F400721A601A46C3
:1046D000126842F001021A6001607047103C02400B
:1046E0002A48006800F0100040B12948C06940F035
:1046F00010002749C8611020244908602348006839
:1047000000F0200040B12248C06940F00800204974
:10471000C86120201D4908601C48006800F0400066
:1047200040B11B48C06940F004001949C8614020ED
:10473000164908601548006800F0800040B1144830
:10474000C06940F002001249C86180200F4908602A
:104750000E48006800F4807048B10D48C06940F010
:1047600001000B49C8614FF4807008490860074890
:10477000006800F0020040B10548C06940F0200028
:104780000349C86102200149086070470C3C02409F
:10479000B4050020084A126822F44072064B1A60E1
:1047A0001A46126842F480721A601A46126842F081
:1047B00001021A6001807047103C024010B50A499E
:1047C000096821F44071084C21602146096841F4D0
:1047D000407121602146096841F0010121600260B9
:1047E000BFF36F8F436010BD103C024010B500282E
:1047F00004DB0A07130E054A135406E00A07140ED9
:10480000034A00F00F031B1FD45410BD00E400E066
:1048100018ED00E002480068C0F302207047000075
:104820000CED00E0134A126822F44072114B1A603A
:10483000032906D11A461268DB131A430D4B1A607E
:104840000EE0012906D10B4A126842F00402094B1E
:104850001A6005E0074A126842F40042054B1A60EC
:10486000044A12684FF4803343EA00231A43014B91
:104870001A607047103C024090B0002475E00CB9FB
:10488000012000E0022004EB041101EB4101F34A96
:1048900002F82100012004EB041101EB410102EBBD
:1048A000810181F88800002004EB041101EB410133
:1048B00002EB810181F89000012004EB041101EB6F
:1048C000410102EB810181F891009FEDE50A04EBC3
:1048D000041000EB4000114601EB800080ED120A4D
:1048E0009FEDE00A04EB041000EB400001EB8000B8
:1048F00080ED130A9FEDDC0A04EB041000EB40008E
:1049000001EB800080ED140A9FEDD70A04EB041040
:1049100000EB400001EB800080ED150A43F6982083
:1049200004EB041101EB410102EB8101C1F8B80075
:1049300004EB041101EB410102EB8101C1F8BC0061
:1049400042F2283004EB041101EB410102EB81013A
:10495000C1F8C00042F2602004EB041101EB4101F8
:1049600002EB8101C1F8C400641C022C87DBFCF758
:1049700061FFFEF74FF9FEF74FF8FEF729F8FEF753
:1049800097F88022B949BA48FDF710FCFDF7FEFF01
:10499000B849B948FEF760FA0020B8490860002419
:1049A0004DE004EB041101EB4101AC4B03EB810141
:1049B000D1ED140A9FEDB21AB6EE000A00EE810A9C
:1049C000BDEEC00A10EE102A04EB041101EB410108
:1049D00013F82100D021FFF7CFF904EB041101EB0C
:1049E00041019E4B03EB8101D1ED150A9FEDA41A05
:1049F000B6EE000A00EE810ABDEEC00A10EE102AE3
:104A000004EB041101EB410113F82100D121FFF760
:104A1000B3F904EB041101EB4101904A12F82100B3
:104A20005A21FEF7DDFD04EB041101EB41018B4A35
:104A300012F8210042F26021FEF798FD641C022C5E
:104A4000AFDB9048066847688F48864201D0012056
:104A500000E0002080468C48874201D0012000E021
:104A60000020814600242FE004EB041000EB4000FE
:104A70007A4901EB80050CB9404600E04846834680
:104A8000BBF1000F10D02878FEF786FDC820FCF798
:104A9000D5FC2878FEF74EFD9620FCF7CFFC287851
:104AA0000121FEF7A7FE02E02846FFF794F96868A7
:104AB0002867002085F891007048006841F288312D
:104AC0000844C5F8A000641C022CCDDB4FF0000A9E
:104AD000B8F1000F03D0701C08B14FF0010AB9F112
:104AE000000F03D0781C08B14FF0010AB8F1000F95
:104AF00002D1B9F1000F14D0BAF1000F04D0FEF7C3
:104B000053FE012081468046B8F1000F02D05D4877
:104B1000FEF760FEB9F1000F03D05A48001DFEF702
:104B200059FEFCF775FE59490860002409E004EBC2
:104B3000041101EB4101494A02EB8100FEF730FF0D
:104B4000641C022CF3DB87E0FCF762FE83464B48D3
:104B5000C0F800B04E480078B8B100204C49087049
:104B6000002505E04B48405D0DF80500681C85B246
:104B700049480088854201DA3F2DF3DB00200DF81B
:104B800005006846FEF798FC00BF002453E004EBE4
:104B9000041000EB4000314901EB80052846FEF788
:104BA0004FFE2846FEF79AF92846FEF731FAD5F867
:104BB000A800ABEB0000142811D3C5F8A8B02878E2
:104BC000FEF7B8FC3548007800F0030010B92878EB
:104BD000FEF7BEFC31480078401C3049087028467A
:104BE000FEF7AAFB95ED180AD5ED190AB4EE600A96
:104BF000F1EE10FA1BD0D5F88400C0B995ED180A73
:104C000085ED190A002085F8900095ED180ADFED72
:104C1000240A20EE200ADFED230A80EE201ABDEEE2
:104C2000C10A8DED0F0A28460F99FEF7ABF9284609
:104C3000FEF7B6FE641C022CA9DB1B480068ABEB38
:104C40000000142804DB1848C0F800B0FEF73CFD53
:104C50000520FCF7F3FB00BF76E700009001002081
:104C60000000B442CDCC0C410000164328030020C4
:104C7000AC040020D12C0008840400200000002097
:104C80000000C84200000108025A5A5A0C010020D4
:104C900020010020200400201E010020100100201F
:104CA000000080460000B443240100204FF0407013
:104CB000E1EE100A7047D0D1B2B3B6B7B8B900066A
:104CC000101600061016000000000000000001028F
:104CD00003040607080900000000010203040000A5
:104CE000004D00080000002038010000E801000825
:104CF000244D000838010020000B00004402000889
:104D000001203201023D3227B442CDCC0C414B167A
:104D100043040132096684051CB979379E5A108C08
:044D2000111324F453
:04000005080001AD41
:00000001FF
