:020000040800F2
:10000000300D00208D020008292B0008C5290008AA
:10001000252B000883040008252C000800000000A0
:100020000000000000000000000000002F2B00086E
:10003000C9040008000000002D2B0008312B000827
:10004000A7020008A7020008A7020008A7020008EC
:10005000A7020008A7020008A7020008A7020008DC
:10006000A7020008A7020008A7020008A7020008CC
:10007000A7020008A7020008A7020008A7020008BC
:10008000A9040008B9040008A7020008A702000894
:100090008904000899040008A7020008A7020008C4
:1000A000A7020008A7020008A7020008A70200088C
:1000B000A7020008A7020008A7020008A70200087C
:1000C000A7020008A7020008A7020008A70200086C
:1000D000A7020008A7020008152C0008A7020008C4
:1000E000A7020008A7020008A7020008A70200084C
:1000F000A7020008A7020008A7020008A70200083C
:10010000A7020008A7020008A7020008A70200082B
:10011000A7020008A7020008A7020008A70200081B
:10012000A7020008A7020008A7020008A70200080B
:10013000A7020008A7020008A7020008A7020008FB
:10014000A7020008A7020008A7020008A7020008EB
:10015000A7020008A7020008A7020008A7020008DB
:10016000A7020008A7020008A7020008A7020008CB
:10017000A7020008A7020008A7020008000000006C
:10018000A7020008A7020008A7020008A7020008AB
:10019000A7020008A7020008A7020008A70200089B
:1001A0000000000000000000A702000800F002F8B4
:1001B00000F05CF80AA090E8000C82448344AAF1A5
:1001C0000107DA4501D100F051F8AFF2090EBAE8A3
:1001D0000F0013F0010F18BFFB1A43F0010318477B
:1001E00028510000485100000A444FF0000C10F85C
:1001F000013B13F0070408BF10F8014B1D1108BFA5
:1002000010F8015B641E05D010F8016B641E01F844
:10021000016BF9D113F0080F1EBF10F8014BAD1C94
:100220000C1B09D16D1E58BF01F801CBFAD505E0B2
:1002300014F8016B01F8016B6D1EF9D59142D6D30C
:10024000704700000023002400250026103A28BF34
:1002500078C1FBD8520728BF30C148BF0B60704738
:100260001FB505F037F81FBD10B510BD00F0CFF871
:100270001146FFF7F5FF04F0D9FD00F0EDF803B4E7
:10028000FFF7F2FF03BC00F0F5F8000009488047D3
:1002900009480047FEE7FEE7FEE7FEE7FEE7FEE768
:1002A000FEE7FEE7FEE7FEE704480549054A064B80
:1002B00070470000392B0008AD010008300700200E
:1002C000300D0020300900203009002053EA020CD4
:1002D00000F069802DE9F04B4FF00006002B1FBFA6
:1002E000B3FA83F503FA05F424FA05F65E4012BF6B
:1002F0001643B2FA82F502FA05F4C5F120051EBFD5
:1003000022FA05FC44EA0C04203556EA044C4FEA74
:10031000144418BF641C4FF000084FF000099042CD
:1003200071EB030C39D3002919BFB1FA81F701FA37
:1003300007F6B0FA80F700FA07F6C7F120071EBFEC
:1003400020FA07FC46EA0C062037B6FBF4FCA7EBC4
:100350000507103F07F01F0BCBF120060CFA0BFB33
:100360002CFA06F644BFB3460026202FA4BF5E46F3
:100370004FF0000B5BEA060C08BF4FF0010B19EBC6
:100380000B09ABFB027C48EB0608C01B06FB02CC4A
:100390000BFB03CC71EB0C01C1E70B460246414657
:1003A0004846BDE8F08B13B54FF000004FF0000158
:1003B000AFF30080BDE81C4070474FF0000200B56D
:1003C000134694469646203922BFA0E80C50A0E878
:1003D0000C50B1F12001BFF4F7AF090728BFA0E826
:1003E0000C5048BF0CC05DF804EB890028BF40F8F2
:1003F000042B08BF704748BF20F8022B11F0804F34
:1004000018BF00F8012B704770477047704775465A
:1004100000F02CF8AE4605006946534620F0070070
:10042000854618B020B5FFF73FFFBDE820404FF0EC
:1004300000064FF000074FF000084FF0000B21F0CE
:100440000701AC46ACE8C009ACE8C009ACE8C0099B
:10045000ACE8C0098D46704710B50446AFF3008084
:100460002046BDE81040FFF70ABF00000048704773
:10047000D006002001491820ABBEFEE7260002008E
:10048000704700BFFEE7000010B5024800F0DFFA39
:1004900010BD00008005002010B5024800F0D7FA1A
:1004A00010BD00008005002010B5024800F004FED9
:1004B00010BD0000F005002010B5024800F0FCFD62
:1004C00010BD000050060020704772B600BFFEE766
:1004D00010B5002201B909E0012901D10A0205E0A5
:1004E000022901D10A0201E04FF440720B2800D921
:1004F000001D0E4B1B6823F440730C4C23602346F5
:100500001B681343236023461B6823F0F803236012
:1005100023461B68022444EAC0042343034C23609F
:1005200023461B6843F48033236010BD103C024017
:100530001C48006800F40070B0B11A48006820F44C
:1005400000701849086000BF0846006840F4006069
:1005500008600846006820F40060086000BF084694
:10056000006840F4007008600E48006800F4806085
:10057000B0B10C48006820F480600A49086000BFF0
:100580000846006840F4805008600846006820F47F
:100590008050086000BF0846006840F48060086032
:1005A00070470000003C024070B504460025002062
:1005B0001449C86101F04AF9054609E0601C38B1E8
:1005C00024B101F043F9401BA04201D9032070BDC2
:1005D0000D48006800F480300028EFD10A48006818
:1005E00000F0010010B101200749086006480068CA
:1005F00000F4F97018B104F04DFB0120E7E700208A
:10060000E5E70000B00600200C3C0240F0B50446CF
:100610000D461E4694F8207020688368A86800B9CB
:1006200000E000BF012F01D0022F7DD103F08060D8
:1006300030B903F0006018B903F0805000287ED074
:10064000C3F30161012088403060A86860B9B5F843
:1006500000C0E86840EA4C5C206800F5C07000EB20
:100660000110C0F800C00FE0D5E901C040EACC009D
:10067000D5F80CC040EA0C00D4F800C00CF5C07CE2
:100680000CEB011CCCF80000D5F810C0206800F578
:10069000C07000EB0110C0F804C0287D01280ED105
:1006A000206800F5C07000EB0110406840F4807CC9
:1006B000206800F5C07000EB0110C0F804C0D079CC
:1006C000000692F806C040EA0C4092F805C040EAE5
:1006D0000C2092F804C040EA0C00D4F800C00CF5DD
:1006E000C07C0CEB011CCCF80C00D078000692F812
:1006F00002C040EA0C4092F801C040EA0C2092F897
:1007000000C040EA0C00D4F800C00CF5C07C0CEB33
:10071000011CCCF80800206800F5C07000EB011047
:10072000006840F0010C01E00FE008E0206800F5EF
:10073000C07000EB0110C0F800C00020F0BD606A7E
:1007400040F4001060620120F8E7606A40F4802005
:1007500060620120F2E70000F0B504460A46216815
:1007600094F82050012D01D0022D7ED1424901F58F
:100770000071086840F001000860086820F47C50AF
:1007800008600868566A40EA06200860107D00F09C
:100790001F06012000FA06F3C8699843C861A1F555
:1007A0000071D069C8B9D1F80C029843C1F80C02A5
:1007B000908880B2968940EA064601F51070576924
:1007C00040F83760108880B2168940EA064601F585
:1007D0001070576900EBC7004660D069012819D135
:1007E000D1F80C021843C1F80C02908880B2168828
:1007F00040EA064601F51070576940F83760908965
:1008000080B2168940EA064601F51070576900EB80
:10081000C7004660906928B9D1F804029843C1F82E
:10082000040204E0D1F804021843C1F8040210697C
:1008300028B9D1F814029843C1F8140204E0D1F8A1
:1008400014021843C1F81402106A012804D1D1F827
:100850001C021843C1F81C02D1F8000220F001006C
:10086000C1F800020020F0BDFFE7606A40F480207C
:1008700060620120F7E70000006400407047014615
:10088000486A704770B5044694F82050012D01D095
:10089000022D7DD151B92068C06800F0030080B9F5
:1008A000606A40F400106062012070BD2068006939
:1008B00000F0030028B9606A40F400106062012073
:1008C000F3E7206800F5D87000EB0110006800F035
:1008D00004009060906840B9206800F5D87000EB83
:1008E00001100068400D106007E0206800F5D87026
:1008F00000EB01100068C0085060206800F5D87057
:1009000000EB0110006800F00200D060206800F5E4
:10091000D87000EB0110406800F00F00082802D3E7
:100920000820106108E0206800F5D87000EB011085
:10093000406800F00F001061206800F5D87000EBEF
:100940000110406800F47F40000A9061206800F5C3
:10095000D87000EB01104068000C5061206800F571
:10096000D87000EB011080681870206800F5D8700E
:1009700000EB0110806800F47F40000A5870206886
:1009800000F5D87000EB0110806800F47F0000E0F3
:100990003CE0000C9870206800F5D87000EB011066
:1009A0008068000ED870206800F5D87000EB011048
:1009B000C0681871206800F5D87000EB0110C0689D
:1009C00000F47F40000A5871206800F5D87000EBF1
:1009D0000110C06800F47F00000C9871206800F5D9
:1009E000D87000EB0110C068000ED87131B92068D2
:1009F000C06840F020002668F06005E020680069CB
:100A000040F020002668306100204EE7606A40F424
:100A100080206062012048E70146002091F82020F4
:100A2000012A01D0022A11D10B689B6803F0806370
:100A300003B1401C0B689B6803F0006303B1401CCA
:100A40000B689B6803F0805303B1401C70472DE98D
:100A5000F05F04460025206846692068D0F80490BD
:100A6000206887682068D0F80CA02068D0F810B003
:100A70002068D0F8188006F00100002855D007F053
:100A80000100C0B101202168886007F0020018B1A0
:100A9000204600F09EFA0EE007F0040010B145F485
:100AA000006508E007F0080010B145F4805502E049
:100AB000204600F08DFA07F48070C8B14FF48070C2
:100AC0002168886007F4007018B1204600F083FAAE
:100AD0000EE007F4806010B145F4005508E007F41B
:100AE000006010B145F4804502E0204600F072FA43
:100AF00007F48030C8B14FF480302168886007F473
:100B0000003018B1204600F068FA0EE007F48020AB
:100B100010B145F4004508E007F4002010B145F499
:100B2000803502E0204600F057FA06F0080038B1A0
:100B30000AF0100020B145F4007510202168C8604B
:100B400006F0040040B10AF0080028B1082021682E
:100B5000C860204600F0B0F906F0020038B1206805
:100B6000C06800F0030010B1204600F0A7F906F0BD
:100B7000400038B10BF0100020B145F48065102022
:100B80002168086106F0200040B10BF0080028B190
:100B9000082021680861204600F0BCF906F010002A
:100BA00038B12068006900F0030010B1204600F061
:100BB000B3F906F4003040B109F0100028B110205C
:100BC00021684860204600F0D3F906F4803040B137
:100BD00009F0080028B1082021684860204600F08C
:100BE000FDF906F4004088B309F0040078B306F478
:100BF000807020B108F0010008B145F0010506F44D
:100C0000007020B108F0020008B145F0020506F4BA
:100C1000806020B108F0040008B145F0040506F436
:100C20000060A0B108F0700088B108F070004028A2
:100C300017D006DC10280BD020280CD0302819D172
:100C40000CE0502810D0602814D110E01DE019E00D
:100C500045F008050FE045F010050CE045F02005D3
:100C600009E045F0400506E045F0800503E045F465
:100C7000807500E000BF00BF2068806920F0700030
:100C8000216888610420216848602DB1606A28438A
:100C900060622046FFF7F2FDBDE8F09F70B50446A4
:100CA0000CB9012070BD94F8200010B9204600F066
:100CB000AFF82068006840F001002168086000F08B
:100CC000C5FD05460DE000F0C1FD401B0A2808D90E
:100CD000606A40F400306062052084F82000012042
:100CE000E0E72068406800F001000028EBD02068B1
:100CF000006820F002002168086000F0A7FD0546AA
:100D00000DE000F0A3FD401B0A2808D9606A40F4FA
:100D100000306062052084F820000120C2E72068CE
:100D2000406800F002000028EBD1207E012806D1A7
:100D30002068006840F080002168086005E02068B5
:100D4000006820F0800021680860607E012806D1DC
:100D50002068006840F040002168086005E02068D5
:100D6000006820F0400021680860A07E012806D1BC
:100D70002068006840F020002168086005E02068D5
:100D8000006820F0200021680860E07E012806D17C
:100D90002068006820F010002168086005E02068E5
:100DA000006840F0100021680860207F012806D10B
:100DB0002068006840F008002168086005E02068AD
:100DC000006820F0080021680860607F012806D1D3
:100DD0002068006840F004002168086005E0206891
:100DE000006820F0040021680860D4E9020108438B
:100DF00021690843616908436168491E0843216805
:100E0000C86100206062012084F82000002049E7CA
:100E100010B586B00446142101A8FFF7CEFA234985
:100E2000206888423FD100BF002000902048006821
:100E300040F000701E4908600846006800F000702D
:100E4000009000BF00BF00BF00200090184810387D
:100E5000006840F00800164910390860084600682C
:100E600000F00800009000BF00BF032001900220A6
:100E7000029000200390032004900920059001A90E
:100E80000C4800F0D5FB00221146142000F06CFD48
:100E9000142000F055FD00221146152000F064FDDD
:100EA000152000F04DFD06B010BD000000640040AC
:100EB00040380240000C02407047000010B5044664
:100EC0001049206888420CD10F4BA3F11C0200216D
:100ED0002046FFF7D7FC0C482038816A001D884760
:100EE0000FE00A49206888420BD1094BA3F11C028C
:100EF00000212046FFF7C6FC05482038816A001D06
:100F0000884710BD00640040C40100200068004014
:100F1000F00100207047000010B504461049206819
:100F200088420CD10F4BA3F11C0201212046FFF790
:100F3000A9FC0C482038816A001D88470FE00A4947
:100F4000206888420BD1094BA3F11C0201212046E5
:100F5000FFF798FC05482038816A001D884710BDBE
:100F600000640040C401002000680040F00100203F
:100F7000704770B5044694F82000012822D1022061
:100F800084F820002068006820F0010021680860D3
:100F900000F05CFC05460DE000F058FC401B0A2800
:100FA00008D9606A40F400306062052084F82000AF
:100FB000012070BD2068406800F001000028EBD1DE
:100FC0006062F6E7606A40F4002060620120F0E7AA
:100FD000704770477047704770477047704770B5EB
:100FE0000446A56D00F032FC064694F83500022850
:100FF00008D08020606500BF002084F8340000BF66
:10100000012070BD2068006820F01600216808608B
:101010002068406920F0800021684861206C08B990
:10102000A06C28B12068006820F0080021680860E2
:101030002068006820F001002168086010E000F0DE
:1010400005FC801B05280BD920206065032084F84F
:10105000350000BF002084F8340000BF0320D0E733
:101060002068006800F001000028E8D194F85C10C6
:101070003F208840A860012084F8350000BF002090
:1010800084F8340000BF00BFBBE7014691F835008B
:10109000022803D08020486501207047052081F890
:1010A00035000868006820F001000A681060002020
:1010B000F3E70146486D7047F8B5044600200090FC
:1010C0008C4800684FF41651B0FBF1F7A56D2E68FF
:1010D00094F85C1008208840304098B1206800687F
:1010E00000F0040070B12068006820F0040021685E
:1010F000086094F85C1008208840A860606D40F09B
:101100000100606594F85C1001208840304068B1AF
:101110002068406900F0800040B194F85C10012024
:101120008840A860606D40F00200606594F85C1033
:1011300004208840304068B12068006800F0020058
:1011400040B194F85C1004208840A860606D40F0C5
:101150000400606594F85C1010208840304078B33B
:101160002068006800F0080050B394F85C1010206C
:101170008840A8602068006800F4802080B1206862
:10118000006800F4002028B9206CC8B12046216C0A
:10119000884715E0A06C98B12046A16C88470FE005
:1011A0002068006800F4807028B92068006820F08A
:1011B000080021680860206C10B12046216C884727
:1011C00094F85C10202088403040002865D02068CA
:1011D000006800F0100000285FD094F85C10202018
:1011E0008840A86094F83500052828D12068006858
:1011F00020F01600216808602068406920F0800017
:1012000021684861206C08B9A06C28B1206800688A
:1012100020F008002168086094F85C103F208840A6
:10122000A860012084F8350000BF002084F8340055
:1012300000BF206D10B12046216D8847F8BD2068A1
:10124000006800F4802080B12068006800F400206D
:1012500028B9606C10B12046616C88471DE0E06BD6
:10126000D8B12046E16B884717E02068006800F499
:10127000807068B92068006820F01000216808605C
:10128000012084F8350000BF002084F8340000BF3E
:10129000E06B10B12046E16B8847606D38B3606D3C
:1012A00000F00100F0B1052084F8350020680068E6
:1012B00020F001002168086000BF0098401C0090E9
:1012C000B84200D905E02068006800F0010000285D
:1012D000F3D100BF012084F8350000BF002084F85E
:1012E000340000BFE06C10B12046E16C884700BFBD
:1012F000A4E70000A00100202DE9F04104460025EC
:1013000000F0A4FA074614B90120BDE8F081606A34
:1013100000B100BF022084F8350000BF002084F82F
:10132000340000BF2068006820F0010021680860D8
:101330000AE000F08BFAC01B052805D92020606563
:10134000032084F83500E0E72068006800F0010021
:101350000028EED12068056821480540D4E9010144
:101360000843E16808432169084361690843A169AA
:101370000843E1690843216A08430543606A042879
:1013800003D1D4E90B0108430543206805602068B8
:10139000456925F00705606A0543606A04280DD198
:1013A000A06A0543E06A48B1204603F0F0F828B18E
:1013B00040206065012084F83500A6E7206845617B
:1013C000204603F039F9064694F85C103F20884027
:1013D000B06000206065012084F83500002094E7AB
:1013E0003F8010F02DE9F04704460D4616461F4693
:1013F0004FF00008D4F8589000BF94F8340001284A
:1014000002D10220BDE8F087012084F8340000BF3B
:1014100094F83500012825D1022084F835000020F9
:1014200060653B4632462946204603F09AF894F818
:101430005C103F208840C9F808002068006840F030
:10144000160021680860206C28B12068006840F010
:101450000800216808602068006840F001002168E9
:10146000086006E000BF002084F8340000BF4FF0A1
:1014700002084046C6E7000070B5044600F0E6F9F1
:1014800006462546681C10B104480078054400BF94
:1014900000F0DCF9801BA842FAD370BD9C0100204B
:1014A0002DE9F04104460E460127002500BF2648DD
:1014B000007E012802D10220BDE8F08101202249EE
:1014C000087600BF4CF25030FFF76EF80746002F49
:1014D00032D1401E30602068012810D1207C616824
:1014E00003F07AFC4CF25030FFF75EF807461748DD
:1014F000006848F204018843144908601AE0A568AE
:1015000012E0217C2846FEF7E3FF4CF25030FFF753
:101510004BF807460D48006820F0FA000B490860B8
:101520000FB1356005E06D1CD4E902100844A842F3
:10153000E7D800BFFEF7FCFF00BF00200249087695
:1015400000BF3846B8E70000B0060020103C02405B
:101550000348006840F000400149086000207047DF
:10156000103C02402DE9F04106460F4614461D4648
:101570004FF0010800BF1F48007E012802D1022061
:10158000BDE8F08101201B49087600BF4CF25030C5
:10159000FFF70AF88046B8F1000F23D126B9E1B26F
:1015A000384603F051FB12E0012E04D1A1B23846B7
:1015B00003F0CAFB0BE0022E04D12146384603F0AB
:1015C00055FB04E022462B46384603F0D1FB4CF293
:1015D0005030FEF7E9FF80460748006820F0010020
:1015E0000549086000BF00200249087600BF404658
:1015F000C6E70000B0060020103C02400020094968
:10160000096801F0004159B10749064A0C3A1160D6
:10161000064911600349096801F0004101B1012048
:1016200070470000103C024023016745AB89EFCDB5
:10163000F8B502460B460025002400200021E0E01A
:10164000012606FA01F51E6806EA0504AC4274D1CB
:101650001E7906F00306012E04D01E7906F003065B
:10166000022E13D190684F000326BE40B0434F00B6
:10167000DE68BE4030439060506801268E40B04323
:101680001E79C6F300168E40304350601E7906F076
:101690000306032E09D0D0684F000326BE40B04396
:1016A0004F009E68BE403043D0601E7906F00306AE
:1016B000022E13D1CF0802F1200656F827004E075C
:1016C000F70E0F26BE40B0434F07FF0E1E69BE4007
:1016D0003043CF0802F1200646F8270010684F007B
:1016E0000326BE40B0431E7906F003064F00BE40FD
:1016F000304310605E6806F44036002E1DD000BFF7
:1017000000260096414E366846F480463F4F3E60C4
:101710003E46366806F48046009600BF00BF3C4E49
:101720008F0856F827008E07370F0F26BE40B043AC
:10173000384EB24202D100262EE061E0364EB2426F
:1017400001D1012628E0354EB24201D1022623E024
:10175000334EB24201D103261EE0324EB24201D1D5
:10176000042619E0304EB24201D1052614E02F4E76
:10177000B24201D106260FE02D4EB24201D107261A
:101780000AE02C4EB24201D1082605E02A4EB242B0
:1017900001D1092600E00A268F073F0FBE403043E3
:1017A0001B4E8F0846F82700244E3068A0435E6821
:1017B00006F4801606B12043204E3060361D306896
:1017C000A0435E6806F4001606B120431B4E361D8A
:1017D00030601A4E361F3068A0435E6806F400364B
:1017E00006B12043154E361F3060361F3068A043C7
:1017F0005E6806F4803606B12043104E083E306025
:10180000491C1029FFF41CAFF8BD00004438024009
:101810000838014000000240000402400008024075
:10182000000C024000100240001402400018024068
:10183000001C02400020024000240240083C0140FD
:101840000AB1816101E00B048361704701480068BF
:10185000704700009401002003480068034909789C
:101860000844014908607047940100209C01002051
:1018700010B50D48006840F400700B490860084638
:10188000006840F4806008600846006840F480709A
:101890000860032000F0A6F80F2000F007F800F021
:1018A0002BF8002010BD0000003C024070B504463B
:1018B0000E4800784FF47A71B1FBF0F00C490968DA
:1018C000B1FBF0F5284600F075FC08B1012070BDB1
:1018D000102C07D200222146501E00F045F8054882
:1018E000046001E00120F2E70020F0E79C01002005
:1018F000A00100209801002008B500BF0020009042
:101900000E48006840F480400C49086008460068B2
:1019100000F48040009000BF00BF00BF0020009096
:10192000081F006840F08050091F086008460068E2
:1019300000F08050009000BF00BF08BD4438024056
:101940000146084600280DDB00BF00BF00F01F0362
:1019500001229A4043099B0003F1E023C3F80021D0
:1019600000BF00BF00BF70472DE9F05F80460D4605
:101970001646002703F028FA074639462A4633461A
:1019800001F00700C0F1070ABAF1040F02D94FF0C5
:10199000040A01E0C0F1070AD14600F1040ABAF1D5
:1019A000070F02D24FF0000A01E0A0F1030AD4466B
:1019B0004FF0010A0AFA09FAAAF1010A0AEA020A30
:1019C0000AFA0CFA4FF0010B0BFA0CFBABF1010B0E
:1019D0000BEA030B4AEA0B042146404603F0E0F908
:1019E000BDE8F09F00BF00F00702064B19684FF6F4
:1019F000FF031940044B0B4343EA0221014B1960DA
:101A000000BF70470CED00E00000FA0538B5002477
:101A100000BF002000901D48006840F080501B4926
:101A200008600846006800F08050009000BF00BFCA
:101A3000012017490864FFF709FF044607E0FFF794
:101A400005FF001BB0F57A7F01D9032038BD11488E
:101A5000406800F48030B0F5803FF0D101200C499F
:101A60004864FFF7F3FE044607E0FFF7EFFE001BB4
:101A7000B0F57A7F01D90320E8E70648406800F412
:101A80000030B0F5003FF0D10020DFE740380240E1
:101A900000000E420070004070B504460D460CB9BF
:101AA000012070BD5848006800F00F00A84209D21C
:101AB00055490D700846006800F00F00A84201D09B
:101AC0000120EEE7207800F0020002281DD12078E6
:101AD00000F00400042805D14C48006840F4E050B0
:101AE0004A490860207800F00800082805D14748D6
:101AF000006840F46040454908604448006820F0B0
:101B0000F000A168084341490860207800F0010016
:101B1000A8B36068012807D13C4808380068C0F3C2
:101B20004040B8B90120BCE76068022802D0606874
:101B3000032807D1354808380068C0F3406048B929
:101B40000120AEE7314808380068C0F3400008B90A
:101B50000120A6E72D48006820F0030061680843D3
:101B60002A490860FFF772FE064609E0FFF76EFE9D
:101B7000801B41F28831884202D9032091E707E0B7
:101B80002248006800F00C006168B0EB810FEDD1D5
:101B90001D48006800F00F00A84209D91A490D70CD
:101BA0000846006800F00F00A84201D0012078E745
:101BB000207800F00400042807D11448006820F4BD
:101BC000E050E168084311490860207800F00800FF
:101BD000082808D10D48006820F46040216940EAD7
:101BE000C1000A49086000F03FF808490968C1F3DC
:101BF0000311074A515CC84006490860064800685E
:101C0000FFF754FE00204CE7003C02400838024039
:101C1000EE520008A0010020980100200148006851
:101C200070470000A001002000B5FFF7F7FF04494E
:101C30000968C1F38221034A515CC84000BD00001D
:101C400008380240FE52000800B5FFF7E7FF0449DC
:101C50000968C1F34231034A515CC84000BD00002D
:101C600008380240FE5200082DE9F0470024002504
:101C70000026A1462548006800F00C0020B1042889
:101C800005D008283AD105E0DFF8849039E0DFF884
:101C9000849036E01D48001F006800F03F041B4898
:101CA000001F006800F4800078B11A481749091F26
:101CB0000968C1F38811A0FB017001462246002388
:101CC0003846FEF703FB05460EE011480F49091F91
:101CD0000968C1F38811A0FB017001462246002368
:101CE0003846FEF7F3FA05460848001F0068C0F3BF
:101CF0000140401C4600B5FBF6F902E0DFF8109009
:101D000000BF00BF4846BDE8F08700000838024029
:101D10000024F400001BB700F8B504460CB90120FC
:101D2000F8BD207800F00100002874D0F948006860
:101D300000F00C0004280DD0F648006800F00C00FC
:101D4000082813D1F348001F006800F48000B0F5A4
:101D5000800F0BD1EF4808380068C0F340400028DE
:101D600059D06068002856D10120D9E700BF6068CB
:101D7000B0F5803F08D1E7480838006840F480306B
:101D8000E449083908601EE06068B0F5A02F0DD165
:101D9000E0480838006840F48020DE4908390860CF
:101DA0000846006840F4803008600CE0D9480838E4
:101DB000006820F48030D749083908600846006878
:101DC00020F48020086000BF606890B1FFF73EFDFE
:101DD000054606E0FFF73AFD401B642801D90320C1
:101DE0009EE7CC4808380068C0F340400028F1D096
:101DF00011E0FFF72BFD054606E0FFF727FD401B2E
:101E0000642801D903208BE7C24808380068C0F372
:101E100040400028F1D1207800F0020002285FD174
:101E2000BC48006800F00C0058B1BA48006800F0E7
:101E30000C0008281CD1B748001F006800F480007F
:101E4000B0B9B44808380068C0F3400020B1E06879
:101E5000012801D0012063E7AE480838006820F06F
:101E6000F800216940EAC100AA490839086037E052
:101E7000E06800B30120A8490860FFF7E7FC0546C9
:101E800006E0FFF7E3FC401B022801D9032047E7E7
:101E9000A04808380068C0F340000028F1D09D48F1
:101EA0000838006820F0F800216940EAC10099492B
:101EB0000839086014E0002097490860FFF7C6FC65
:101EC000054606E0FFF7C2FC401B022801D90320AB
:101ED00026E7904808380068C0F340000028F1D198
:101EE000207800F0080008282CD16069A8B10120F2
:101EF0008A490860FFF7AAFC054606E0FFF7A6FC42
:101F0000401B022801D903200AE782486C30006890
:101F1000C0F340000028F1D014E000207F490860A1
:101F2000FFF794FC054606E0FFF790FC401B0228F3
:101F300001D90320F4E677486C300068C0F3400014
:101F40000028F1D1207800F00400042870D1002787
:101F500070483830006800F0805090B900BF002011
:101F600000906C483830006840F080506949383142
:101F700008600846006800F08050009000BF00BF75
:101F800001276748006800F48070B0B964480068B1
:101F900040F4807062490860FFF758FC054606E08F
:101FA000FFF754FC401B022801D90320B8E65C4827
:101FB000006800F480700028F2D000BFA0680128FB
:101FC00008D154486830006840F001005149683138
:101FD00008601DE0A06805280DD14E4868300068F3
:101FE00040F004004B49683108600846006840F042
:101FF000010008600CE047486830006820F00100EC
:102000004449683108600846006820F00400086010
:1020100000BFA068A8B1FFF719FC054609E0FFF76B
:1020200015FC401B41F28831884202D9032077E633
:1020300026E0384868300068C0F340000028EED041
:1020400013E0FFF703FC054608E0FFF7FFFB401B2A
:1020500041F28831884201D9032061E62D48683079
:102060000068C0F340000028EFD1012F07D12948B4
:102070003830006820F0805026493831086000BFB1
:10208000A069002845D02348006800F00C0008280B
:102090005DD0A069022845D100201F490866FFF7DE
:1020A000D5FB054606E0FFF7D1FB401B022801D90E
:1020B000032035E6174808380068C0F34060002860
:1020C000F1D1D4E907010843616A40EA8111012294
:1020D000A06AC2EB500041EA00412C20005D41EAB9
:1020E00000600C49091F086001200B490866FFF7D2
:1020F000ADFB054606E0FFF7A9FB401B022801D90E
:1021000003200DE6034808380068C0F3406000284B
:10211000F1D049E00838024000004742800E4742B3
:1021200000700040002021490866FFF78FFB05463C
:1021300006E0FFF78BFB401B022801D90320EFE5E7
:102140001B480068C0F340600028F2D12CE0A06971
:10215000012800D1E4E51648001D0668A0690128A1
:1021600020D006F48001E06981421BD106F03F01D6
:10217000206A814216D147F6C0703040616AB0EBE8
:10218000811F0FD106F440310122A06AC2EB50003A
:10219000B1EB004F06D106F070612C20005DB1EB71
:1021A000006F01D00120BBE50020B9E500004742E7
:1021B0000038024070B504462546681EB0F1807FA5
:1021C00001D301200FE0681E4FF0E02148610F218C
:1021D0004FF0FF3002F0E4FD00204FF0E021886175
:1021E00007200861002070BDF8B504460E4617466A
:1021F00094F8420020282ED106B10FB90120F8BD75
:1022000001202063002060633A463146204600F0FA
:102210009DFC0546EDB9206B012819D100BF0020B7
:10222000009020680068009020684068009000BF1F
:1022300000BF00BF00BF21680C3151E8001F41F012
:10224000100021680C3141E80002002AF3D100E0BF
:1022500001252846D3E70220D1E700002DE9F04709
:10226000814688463949D9F80000884201D0BDE846
:10227000F0873748006840443549086000263AE056
:102280003448875D0A2F01D00D2F21D132480088B4
:10229000002819DD31480078B0B92F4805883F2D56
:1022A00000DD3F25002405E02D48005D2D4908553F
:1022B000601C84B2AC42F7DB00202A4948552A480A
:1022C000058001202549087000202349088010E07E
:1022D00021480088782809DA21481F49098847548D
:1022E0001D480088401C1C49088002E000201A4953
:1022F0000880701C86B24645C2DB1748008800285B
:102300001CDD16480078C8B9134805883F2D00DD4C
:102310003F25002405E01248005D12490855601C65
:1023200084B2AC42F7DB00200E4948550E480580C8
:1023300001200A49087000200749088080220549C9
:102340004846FFF751FF00BF91E7000000440040FE
:102350007C010020D403002084010020880100209B
:1023600054040020CC0400208601002010B504464F
:1023700000BF00BF21680C3151E8001F21F49070AC
:1023800021680C3141E80002002AF3D100BF00BFF0
:1023900000BF2168143151E8001F21F001002168BD
:1023A000143141E80002002AF3D100BF206B01285C
:1023B0000ED100BF00BF21680C3151E8001F21F091
:1023C000100021680C3141E80002002AF3D100BF5F
:1023D0002068406900F04000402820D100BF00BFC5
:1023E0002168143151E8001F21F0400021681431A8
:1023F00041E80002002AF3D100BFE06B78B1002071
:10240000E16B0865E06BFEF7EAFD40B1E06BFEF7BB
:1024100050FE202803D110206064032010BD00204E
:10242000E085202084F842000020206300BFF5E70B
:1024300038B504461D492068884200D038BD00BF29
:10244000002000902068006800902068406800909C
:1024500000BF00BF00BF002000902068006800900F
:1024600020684068009000BF00BF00BF00200090BF
:1024700020680068009020684068009000BF00BF9E
:1024800000BF00200090206800680090206840682D
:10249000009000BF00BF2046FFF768FF802204497C
:1024A0002046FFF7A1FE00BFC8E70000004400403F
:1024B000D40300202DE9F84F044620680568206801
:1024C000C668206847694FF00009CA4605F00F0941
:1024D000B9F1000F0AD105F0200038B106F0200054
:1024E00020B1204602F000FABDE8F88FB9F1000FE4
:1024F0007CD007F0010018B906F49070002875D060
:1025000005F0010030B106F4807018B1606C40F045
:102510000100606405F0040030B107F0010018B15B
:10252000606C40F00200606405F0020030B107F01A
:10253000010018B1606C40F00400606405F0080010
:1025400048B106F0200010B907F0010018B1606C26
:1025500040F008006064606C002846D005F0200060
:1025600028B106F0200010B1204602F0BDF9206825
:102570004069C0F3801A606C00F0080010B9BAF12D
:10258000000F2DD0204602F076FA2068406900F056
:102590004000402820D100BF00BF2168143151E81D
:1025A000001F21F040002168143141E80002002A98
:1025B000F3D100BFE06B50B17748E16B0865E06B89
:1025C000FEF763FD88B1E06B016D88470DE02046A2
:1025D000FFF72EFF09E009E02046FFF729FF04E09E
:1025E0002046FFF725FF002060647DE7206B01286F
:1025F00078D105F01000002874D006F010000028F3
:10260000FAD000BF00200090206800680090206889
:102610004068009000BF00BF2068406900F04000A3
:10262000402860D1E06B006840681FFA80F8B8F17C
:10263000000F56D0A08D404553DDA4F82E80E06BEE
:10264000C069B0F5807F43D000BF00BF21680C3166
:1026500051E8001F21F4807021680C3141E800022C
:10266000002AF3D100BF00BF00BF2168143151E838
:10267000001F21F001002168143141E80002002A06
:10268000F3D100BF00BF00BF2168143151E8001F23
:1026900021F040002168143141E80002002AF3D102
:1026A00000BF202084F842000020206300BF00BF4C
:1026B00021680C3151E8001F21F0100021680C3115
:1026C00041E80002002AF3D100BFE06BFEF787FC6F
:1026D00002206063A08DE28D801A81B22046FFF750
:1026E000BDFD01E742E0A08DE18D401A1FFA80F8A0
:1026F000E08DD0B3B8F1000F37D000BF00BF216824
:102700000C3151E8001F21F4907021680C3141E830
:102710000002002AF3D100BF00BF00BF21681431BE
:1027200051E8001F21F001002168143141E8000246
:10273000002AF3D100BF202084F84200002020634B
:1027400000BF00BF21680C3151E8001F21F01000CC
:1027500021680C3141E80002002AF3D100BF0220B9
:10276000606341462046FFF779FDBDE605F0800035
:1027700030B106F0800018B1204602F033F9B3E61C
:1027800005F0400030B106F0400018B1204602F0DC
:1027900015FAA9E600BFA7E6DD4B000810B5044610
:1027A0000CB9012010BDA06900B100E000BF94F891
:1027B000410028B9002084F84000204600F02AF8A3
:1027C000242084F841002068C06820F4005021686B
:1027D000C860204601F072FF2068006920F4904034
:1027E000216808612068406920F02A00216848615A
:1027F0002068C06840F400502168C8600020606410
:10280000202084F8410084F842000020606300BF6B
:10281000C8E7000010B586B00446142101A8FDF7F2
:10282000CCFD3D492068884273D100BF0020009054
:102830003A48006840F400303849086008460068AB
:1028400000F40030009000BF00BF00BF00200090E7
:1028500032481038006840F00800304910390860EC
:102860000846006800F00800009000BF00BF60202C
:102870000190022002900020039003200490072082
:10288000059001A92648FEF7D3FE26482649086090
:102890004FF000604860002123488160C1604FF420
:1028A00080610161002141618161C1610162416218
:1028B000FEF722FD08B1FDF708FE00BF1A48E063ED
:1028C000846300BF17481830184908604FF0006053
:1028D00048604021154881600021C1604FF480614B
:1028E0000161002141618161C16101624162FEF7C4
:1028F00003FD08B1FDF7E9FD00BF0C48A063846348
:1029000000BF002211462620FFF72EF82620FFF7F1
:1029100017F806B010BD00000044004040380240E7
:10292000000C024088600240F005002050060020A4
:1029300070477047F7B50446154694F841002028C3
:1029400036D1019800B10DB90120FEBD0198206279
:10295000A584E58400206064212084F841001548A6
:10296000A16BC8631448A16B08641448A16BC864C8
:102970000020A16B086501AE23681A1D31682B4643
:10298000A06BFEF72FFD6FF040002168086000BFCC
:1029900000BF2168143151E8001F41F08000216818
:1029A000143141E80002002AF3D100BF0020CCE737
:1029B0000220CAE7F14B0008694A00086D4600088A
:1029C0007047704700BFFEE710B50E480E4908601B
:1029D0000920486000210C488160C1604FF48031BB
:1029E0000161090141610021017601214176002147
:1029F0008176C17601774177FEF750F908B1FDF78E
:102A000064FD10BD006400408005002008B500BFD3
:102A1000002000900E48006840F400100C49086047
:102A20000846006800F40010009000BF00BF0022BC
:102A300011461020FEF798FF1020FEF781FF0022BC
:102A400011461120FEF790FF1120FEF779FF08BD17
:102A50003038024000B587B0142102A8FDF7ADFC64
:102A600000BF002001901F48006840F001001D4990
:102A700008600846006800F00100019000BF00BF38
:102A800000BF002001900846006840F00800086080
:102A90000846006800F00800019000BF00BF00BFBA
:102AA000002001900846006840F080000860084659
:102AB000006800F08000019000BF00BF00223C21B0
:102AC0000948FEF7BDFE3C20029001200390022041
:102AD00004900020059002A90348FEF7A9FD07B065
:102AE00000BD000030380240001C024010B50A480A
:102AF0000A4908600A484860002108488160C160AE
:102B000001610C21416100218161C161FFF746FE35
:102B100008B1FDF7DAFC10BD00440040A805002014
:102B200040420F0000BFFEE700BFFEE7704770475E
:102B300010B5FEF791FE10BD0348006840F4700028
:102B4000014908607047000088ED00E077B581B06A
:102B5000044615460298A062A585002060642220E4
:102B600084F842002848E16BC8632848E16B086498
:102B70002748E16BC8640020E16B086502AE32684B
:102B80002368191D2B46E06BFEF72CFC00BF0020CC
:102B9000009020680068009020684068009000BFA6
:102BA00000BF206970B100BF00BF21680C3151E83F
:102BB000001F41F4807021680C3141E80002002AB6
:102BC000F3D100BF00BF00BF2168143151E8001FDE
:102BD00041F001002168143141E80002002AF3D1DC
:102BE00000BF00BF00BF2168143151E8001F41F051
:102BF00040002168143141E80002002AF3D100BFEF
:102C0000002004B070BD0000094B0008454A0008D0
:102C10006D46000810B50248FFF74CFC10BD0000DF
:102C2000A805002000BFFEE72DE9F04387B0074666
:102C30000C4690461D46FEF709FE81460BE0FEF766
:102C400005FEA0EB0900052805D914480068401CC2
:102C50001249086004E03846FDF7DEFE0028EED099
:102C600000BF0194002002900390049005956B46EC
:102C7000424601A93846FDF7C9FC06462EB9084868
:102C80000068401C0649086004E006480068401CD3
:102C900004490860304607B0BDE8F08358010020C1
:102CA000500100205401002000B593B0302107A846
:102CB000FDF783FB142102A8FDF77FFB00BF002076
:102CC00001902648006840F080502449086008467A
:102CD000006800F08050019000BF00BF00BF0020DE
:102CE00001901F48006840F440401D4908600846B4
:102CF000006800F44040019000BF00BF0120079031
:102D00000004089002200D9041050E9106210F91BC
:102D1000B4211091022111910421129107A8FEF70C
:102D2000FBFF08B1FDF7D1FBFEF770FE08B1FDF720
:102D3000CCFB0F20029002200390002004904FF45F
:102D4000A05005904FF480500690052102A8FEF790
:102D5000A3FE08B1FDF7B9FB13B000BD4038024037
:102D60000070004070B5064606F11C04318888B238
:102D700000F044FB05462DB955480068401C5449F5
:102D8000086070BDE868401CE860207885F8350070
:102D90002078CE2806D1607885F83400A86B401CD6
:102DA000A86393E02078DA2807D1E01C01F0E1FA6B
:102DB0006860E86B401CE86388E02078AE280BD19F
:102DC0006078A17840EA01206886A07985F8300013
:102DD000E07985F8310079E02078B22807D1601CCD
:102DE00001F0C7FAA862012085F84C006EE0207857
:102DF000D02807D1601C01F0BCFA2862012085F8B8
:102E00004A0063E02078D12807D1601C01F0B1FAB4
:102E10006862012085F84B0058E02078B32807D17C
:102E2000601C01F0A6FAE862012085F84D004DE033
:102E30002078B62808D1601C01F08CFA85ED040AD0
:102E4000012085F84E0041E02078B72808D1601CA9
:102E500001F080FA85ED050A012085F84F0035E084
:102E60002078B82808D1601C01F074FA85ED060AB4
:102E7000012085F8500029E02078B92808D1601C8D
:102E800001F068FA85ED070A012085F851001DE080
:102E90002078A3280BD02078C22808D02078C32817
:102EA00005D02078C42802D02078DC2804D1E01C8A
:102EB00001F05FFA686009E02078A22802D020784B
:102EC000C12803D1601C01F054FAA86000BF58E784
:102ED0005C010020F0B58BB007460C4615461E4637
:102EE00004F0020080B1E8040190E80004F003015E
:102EF00040EA41000290F0040390F00004F0030166
:102F000040EA4100049009E068010190A007400FE9
:102F1000029070010390A007400F0490E01006900B
:102F2000C4F3800005900120099000200790012043
:102F300008900E200A9001A93846FDF70DFC0BB051
:102F4000F0BD000070B504460D462046FEF711F8AE
:102F50002068406940F002002168486120684069AB
:102F600040F01000216848611349206888420FD161
:102F700012480460856200231A4619462046FFF76E
:102F8000A9FF00231A460C212046FFF7A3FF12E0F9
:102F90000B49206888420ED10A48046085620023EC
:102FA0001A4670212046FFF795FF00231A467C2120
:102FB0002046FFF78FFF70BD00640040A401002091
:102FC00000680040D001002070B52DED028B044652
:102FD0006568D4F88C10681A00F0E9FD00EE100A5C
:102FE000B8EEC00ADFED1F0A20EE200ADFED1E0A50
:102FF00080EE201A84ED251AA06800EE100AB8EEC3
:10300000C00ADFED1A0A20EE200A84ED260A94EDAC
:10301000260AB0EE408AB5EEC08AF1EE10FA0DD263
:1030200094ED270AF1EE480AB4EEE00AF1EE10FA48
:103030000DD2B1EE480A84ED270A08E094ED270A84
:10304000B4EEC80AF1EE10FA01D284ED278A94F8A2
:10305000A40008B1322000E00020C4F8A800BDECB4
:10306000028B70BD0000B443000080460AD7233CA9
:103070002DE9F04104460D46204600F0DFF90646F2
:10308000A81B00F094FD0746606800EB0708C4F831
:103090008450C4F88880284600F089FD00EE100AAC
:1030A000B8EEC00ADFED1C0A20EE200ADFED1B0A95
:1030B00080EE201A84ED241AE068C4F8C000D4F829
:1030C000A00098B90120C4F8A00015480068C4F811
:1030D000B80013480068C4F8D00011480068C4F86C
:1030E000D4006168207800F057FB13E02078D4F812
:1030F000881000F051FB0A480068C4F8D000D4F8EA
:10310000A000042806D10320C4F8A00004480068E9
:10311000C4F8B800BDE8F0810000B4430000804668
:10312000000000202DE9FC5F04464FF0000BAF4883
:1031300000680190D4F8C8100198401A642801D2A0
:10314000BDE8FC9F0198C4F8C800D4ED1B0A9FEDB0
:10315000A81AB6EE000A00EE810ABDEEC00A10EE13
:10316000105AD4ED1C0A9FEDA21AB6EE000A00EE2A
:10317000810ABDEEC00A10EE106A94ED190ABDEE88
:10318000C00A10EE10AA64200AFB00F9D4ED1A0A56
:103190009FED981AB6EE000A00EE810ABDEEC00A55
:1031A00010EE107A94F87800002842D194F84E007E
:1031B00048B194ED040A84ED150A002084F84E000D
:1031C000012084F8740094F84F0048B194ED050A8A
:1031D00084ED160A002084F84F00012084F8750061
:1031E00094F8500048B194ED060A84ED170A0020C7
:1031F00084F85000012084F8760094F8510048B11A
:1032000094ED070A84ED180A002084F8510001208B
:1032100084F8770094F8740058B194F8750040B1C0
:1032200094F8760028B194F8770010B1012084F862
:1032300078004FF00008B7E0B8F1080F18D2DFE8C7
:1032400008F004182C3F52698097D4F8D800A8429F
:1032500005D194F84A0058B1206AA84208D02078D5
:103260002A46D02101F062F8C4F8D8504FF0010B83
:1032700095E0D4F8DC00B04205D194F84B0058B189
:10328000606AB04208D020783246D12101F04EF871
:10329000C4F8DC604FF0010B81E0D4F8E000484551
:1032A00005D194F84C0050B1A06A484507D0207869
:1032B000514600F087FAC4F8E0904FF0010B6EE041
:1032C000D4F8E400B84205D194F84D0050B1E06A5A
:1032D000B84207D02078394600F02CFAC4F8E470E0
:1032E0004FF0010B5BE094F8780090B194ED150A73
:1032F000D4ED040AB4EE600AF1EE10FA09D0D4ED70
:10330000150AB0EE600A2078B62101F0F7F84FF008
:10331000010B44E094F8780090B194ED160AD4EDD6
:10332000050AB4EE600AF1EE10FA09D0D4ED160ADF
:10333000B0EE600A2078B72101F0E0F84FF0010B01
:103340002DE094F8780090B194ED170AD4ED060AB8
:10335000B4EE600AF1EE10FA09D0D4ED170AB0EE1F
:10336000600A2078B82101F0C9F84FF0010B16E08F
:1033700094F8780090B194ED180AD4ED070AB4EEF1
:10338000600AF1EE10FA09D0D4ED180AB0EE600A26
:103390002078B92101F0B2F84FF0010B00BF00BF57
:1033A00008F1010000F0FF08B8F1080F03DABBF1E3
:1033B000000F3FF441AFBBF1000F15D194F8E800C6
:1033C0000D49085C009094F8E810481CC11700EB08
:1033D0005171C910A0EBC10184F8E81020780122D6
:1033E000694600F095FC00BF00BFA9E60000002080
:1033F0000000C84200007A44DE5200080146084836
:103400000078884201D106487047054890F8EC00E2
:10341000884202D10248EC30F6E70020F4E70000D1
:10342000FC01002010B5044600F0D6FC6100491CE8
:10343000B0FBF1F201FB1200001B10BD10B50446F9
:103440006168D4F88C20881A00F0B1FB10BD000030
:1034500070B504466C480568D4F8A000052818D259
:10346000DFE800F003182844B00094F8AC0080B105
:10347000D4F8BC00281A0CD4B420FFF7D3FF800383
:103480004FF4B47190FBF1F631462046FFF7F0FDA2
:1034900000BFB7E0D4F8B800281A3C2809D30021AF
:1034A000204600F067FBA034656302202060A56120
:1034B000A03CA7E0D4F8D400281A642805DB00213A
:1034C000204600F057FBC4F8D450D4F8B800281AAE
:1034D000C8280AD354F8881F14F8880C00F05CF947
:1034E000A5640320A0612563883C8BE047480078F1
:1034F00098B1D4F8D000281AB0F5967F27DB207851
:10350000D4F8881000F048F90021204600F032FB82
:10351000C4F8D050C4F8D45019E0D4F8D000281A18
:10352000B0F5967F07DB2078D4F8881000F034F9E6
:10353000C4F8D0500BE0D4F8D400281AB0F5967F28
:1035400005DB0021204600F015FBC4F8D4502046CE
:10355000FFF774FFD4F88410461A16F1100F07DD38
:10356000102E05DA0420C4F8A000C4F8B85028E0F2
:10357000E068D4F8C01088420FD1D4F8B800281AF7
:1035800040F6B831884208D9042044F8A00FA5615C
:103590006069401C6061A03C13E0E068D4F8C01092
:1035A00088420ED0D4F8B800281A47F23051884229
:1035B00007D9042044F8A00FA5616069401C606130
:1035C000A03C1FE0D4F8B800281A502819D394F86A
:1035D000AD0010B141F2883001E04FF4FA600646C8
:1035E000002084F8AD000121204600F0C3FA00203D
:1035F00044F8A00F2069401C2061A819E061A03C9C
:1036000000BF00BF00BF70BD00000020740100209B
:1036100070B52DED048B82B0054601950024661E21
:1036200002E00198401C0190019800782028F8D011
:10363000019800780928F4D0019800786D2803D00B
:10364000019800784D2810D101984078312804D194
:1036500000260198801C019007E0019840783228EC
:1036600003D101260198801C019021E00198007887
:103670002D280BD0019800782B2807D001980078CE
:10368000302812DB0198007839280EDC01A800F000
:10369000CDFEB0EE409A14B9B0EE498A03E0012C99
:1036A00001D1F0EE498A641C02E00198401C0190AF
:1036B000019800780028D9D136B9012C1ADBB0EE78
:1036C000480A00F097F815E0012E07D1012C11DB14
:1036D000B0EE480A012000F08DF80BE0022C09DB67
:1036E000B0EE480A002000F085F8B0EE680A01202C
:1036F00000F080F802B0BDEC048B70BD38B5044614
:1037000004A00068009001226946204600F000FBFA
:1037100038BD0000A300000038B5044604A00068CE
:10372000009001226946204600F0F2FA38BD000000
:10373000A20000007CB504460D4607A103C9CDE9EF
:10374000000129460DF1010000F003FF0522694642
:10375000204600F0DDFA7CBDB30000000000000050
:1037600038B5044604A0006800900222694620464D
:1037700000F0CEFA38BD0000CEFF000038B5044698
:1037800004A00068009001226946204600F0C0FABB
:1037900038BD0000B10000007CB504460D4607A10D
:1037A00003C9CDE9000129460DF1020000F0D1FE68
:1037B00006226946204600F0ABFA7CBDDA00000024
:1037C000000000007CB505460C4608A103C9CDE900
:1037D0000001642004FB00F10DF1010000F0B9FECE
:1037E00005226946284600F093FA7CBDB20000002D
:1037F000000000002DE9F0412DED028B0446B0EEF3
:10380000408A9FED210AB4EEC08AF1EE10FA04DD81
:103810009FED1D0AB0EE408A0AE09FED1C0AB4EE4F
:10382000C08AF1EE10FA03D29FED180AB0EE408A7A
:103830000CB9174801E01648EC3005460CB915489C
:1038400000E015480646002085F8AC0086ED008AA9
:1038500085ED208A9FED110A28EE000ADFED100A9F
:1038600080EE201ABDEEC10A10EE107A39462846C5
:10387000FFF7FEFB0B480068401C0A490860BDECDE
:10388000028BBDE8F081000000003443000034C327
:10389000FC01002058000020EC00002000008046C1
:1038A0000000B4438001002038B5044604A000683D
:1038B000009001226946204600F02AFA38BD000037
:1038C000AE00000030B52DED028B9DB0784D7948EB
:1038D00090ED000A8DED010A774890ED000A8DED1C
:1038E000020A764890ED000A8DED030A744890EDC7
:1038F000000A8DED040A734890ED000A8DED050A6B
:10390000714890ED000A8DED060A7048006800EEDF
:10391000100AB8EE400A8DED070A6D48006800EE07
:10392000100AB8EE400A8DED080A6A48006800EEF9
:10393000100AB8EEC00A8DED090A6748006800EE6B
:10394000100AB8EEC00A8DED0A0A6448007800EE4D
:10395000100AB8EE400A8DED0B0A6148007800EEBF
:10396000100AB8EE400A8DED0C0A5E48006800EEC1
:10397000100AB8EEC00A8DED0D0A5B48006800EE33
:10398000100AB8EEC00A8DED0E0A5848006800EE25
:10399000100AB8EEC00A8DED0F0A5548006800EE17
:1039A000100AB8EEC00A8DED100A524890ED000AD8
:1039B0008DED110A504890ED000A8DED120A4F4826
:1039C000007800EE100AB8EE400A8DED130A4C485C
:1039D000007800EE100AB8EE400A8DED140A49484E
:1039E000006800EE100AB8EE400A8DED150A464850
:1039F000006800EE100AB8EE400A8DED160A434842
:103A0000006800EE100AB8EE400A8DED170A404833
:103A1000006800EE100AB8EE400A8DED180A3D4825
:103A2000006800EE100AB8EE400A8DED190A3A4817
:103A3000006800EE100AB8EE400A8DED1A0A374809
:103A4000006800EE100AB8EE400A8DED1B0A3448FB
:103A5000006800EE100AB8EE400A8DED1C0A002442
:103A60000BE001A800EB840090ED008AB0EE480A5C
:103A7000284600F05FFD2D1D641C1C2CF1DB00208E
:103A80000B4981F8700081F87100802081F8720084
:103A90007F2081F87300234890F84100202803D14B
:103AA00074222048FEF746FF1DB0BDEC028B30BDEE
:103AB0000C05002010000020140000201800002039
:103AC000A4000020A8000020AC0000207C01002001
:103AD000800100201C000020B000002020000020F9
:103AE000B40000204C000020E00000205000002026
:103AF000E400002054000020E80000202C010020F9
:103B00002D01002030010020340100203801002068
:103B10003C010020540100205C01002064010020D1
:103B200068010020A805002000B587B000200190A2
:103B3000FDF764FD00200290042004900120059010
:103B40000220069001A902A8FDF7AAFCFDF700FDDE
:103B500007B000BD10B50446FDF750FD044A002330
:103B600021460220FDF7FEFCFDF7F2FC10BD00002F
:103B7000DEC00108F8B504460D460DB1012000E095
:103B80000020064694F8A50020B10EB9012000E0FF
:103B900000200646CE208DF800008DF801602078C8
:103BA0000222694600F0B4F884F8A450F8BD01463A
:103BB0000A46CB1701EB93439B13A1EB8330B0F57F
:103BC000005F02DBA0F5804004E010F5005F01DC3F
:103BD00000F58040704700000178012935D1364951
:103BE000097880F8AC10354991ED000A80ED1F0A84
:103BF000334991ED000A80ED150A324991ED000A32
:103C000080ED160A304991ED000A80ED170A2F4920
:103C100091ED000A80ED180A2D4991ED000A80ED22
:103C2000190A2C4991ED000A80ED1A0A2A4991EDF2
:103C3000000A80ED1B0A294991ED000A80ED1C0A5B
:103C40002749097880F8A51034E02649097880F8DA
:103C5000AC10254991ED000A80ED1F0A234991ED32
:103C6000000A80ED150A224991ED000A80ED160A3E
:103C7000204991ED000A80ED170A1F4991ED000AD5
:103C800080ED180A1D4991ED000A80ED190A1C49C2
:103C900091ED000A80ED1A0A1A4991ED000A80EDB3
:103CA0001B0A194991ED000A80ED1C0A1749097891
:103CB00080F8A51070470000280000205800002060
:103CC0005C000020600000206400002068000020EC
:103CD0006C0000207000002074000020780000209C
:103CE0007C000020BC000020EC000020F000002040
:103CF000F4000020F8000020FC000020000100205B
:103D000004010020080100200C0100201001002007
:103D10002DE9F0470546894692462B48D0F80080A9
:103D2000B8F1050F01D94FF00508B8F1000F0CD01C
:103D300026480088854208D1FDF788FD074600BF68
:103D4000FDF784FDC01B4045FAD353464A46294639
:103D50001F48FEF769FF06461C48058000242EE038
:103D600004EB8400C0EB84101A4911F82000A8422B
:103D700023D186B904EB8400C0EB841001EB8000F2
:103D8000006C401C04EB8401C1EB8411114A02EB6E
:103D90008101086410E004EB8400C0EB84100D493D
:103DA00001EB8000406C401C04EB8401C1EB8411EA
:103DB000084A02EB8101486403E0601CC4B2022C93
:103DC000CEDB00BFBDE8F087700100208A01002033
:103DD00080050020FC010020054800680549484393
:103DE0000549084402490860084600687047000019
:103DF000780100200D6619005FF36E3C2DE9F04F4D
:103E00009CB090F800B0BBF1010F7DD1F749F84AA2
:103E1000F84BF94CF94DFA4EFA4FDFF8ECC3DFF8E6
:103E2000EC83DFF8EC93DFF8ECA3DFF8ECB3CDF82C
:103E30006CB0DFF8E8B3CDF868B0DFF8E4B3CDF8E4
:103E400064B0DFF8E0B3CDF860B0DFF8DCB3CDF8F4
:103E50005CB0DFF8D8B3CDF858B0DFF8D4B3CDF804
:103E600054B0DFF8D0B3CDF850B0DFF8CCB3CDF814
:103E70004CB0DFF8C8B3CDF848B0DFF8C4B3CDF824
:103E800044B0DFF8C0B3CDF840B0DFF8BCB3CDF834
:103E90003CB0DFF8B8B3CDF838B0DFF8B4B3CDF844
:103EA00034B0DFF8B0B3CDF830B0DFF8ACB3CDF854
:103EB0002CB0DFF8A8B3CDF828B0DFF8A4B3CDF864
:103EC00024B0DFF8A0B3CDF820B0DFF89CB3CDF874
:103ED0001CB0DFF898B3CDF818B0DFF894B3CDF884
:103EE00014B0DFF890B3CDF810B0DFF88CB3CDF894
:103EF0000CB0DFF888B3CDF808B0DFF884B3CDF8A4
:103F000004B0DFF880B300E002E0CDF800B07EE05E
:103F1000DD49DE4ADE4BDF4CDF4DE04EE04FDFF89F
:103F200084C3DFF88483DFF88493DFF884A3DFF8A9
:103F300084B3CDF86CB0DFF880B3CDF868B0DFF8AB
:103F40007CB3CDF864B0DFF878B3CDF860B0DFF8BB
:103F500074B3CDF85CB0DFF870B3CDF858B0DFF8CB
:103F60006CB3CDF854B0DFF868B3CDF850B0DFF8DB
:103F700064B3CDF84CB0DFF860B3CDF848B0DFF8EB
:103F80005CB3CDF844B0DFF858B3CDF840B0DFF8FB
:103F900054B3CDF83CB0DFF850B3CDF838B0DFF80B
:103FA0004CB3CDF834B0DFF848B3CDF830B0DFF81B
:103FB00044B3CDF82CB0DFF840B3CDF828B0DFF82B
:103FC0003CB3CDF824B0DFF838B3CDF820B0DFF83B
:103FD00034B3CDF81CB0DFF830B3CDF818B0DFF84B
:103FE0002CB3CDF814B0DFF828B3CDF810B0DFF85B
:103FF00024B3CDF80CB0DFF820B3CDF808B0DFF86B
:104000001CB3CDF804B0DFF818B3CDF800B0D0F889
:1040100004B0C1F800B0D0F888B0C2F800B0D0F851
:104020008CB0C3F800B0D0F8A0B0C4F800B0D0F89D
:10403000A8B0C5F800B0D0F820B0C6F800B0D0F8ED
:1040400024B0C7F800B0D0F828B0CCF800B0D0F851
:104050002CB0C8F800B090F830B0C9F800B090F8B3
:1040600031B0CAF800B0B0F832B000EE10BAB8EE15
:10407000400ADFEDAC0A20EE200ADDF86CB08BEDD3
:10408000000A90ED240ADDF868B08BED000A90ED8F
:10409000250ADDF864B08BED000A90ED260ADDF804
:1040A00060B08BED000A90ED270ADDF85CB08BED77
:1040B000000AD0F80CE0DDF858B0CBF800E0D0F8FA
:1040C000B0E0DDF854B0CBF800E0D0F8B4E0DDF8B3
:1040D00050B0CBF800E090F8A4E0DDF84CB08BF8DD
:1040E00000E090F8ACE0DDF848B08BF800E090ED2F
:1040F000150ADDF844B08BED000A90ED160ADDF8E4
:1041000040B08BED000A90ED170ADDF83CB08BED66
:10411000000A90ED180ADDF838B08BED000A90ED3A
:10412000190ADDF834B08BED000A90ED1A0ADDF8BB
:1041300030B08BED000A90ED040ADDF82CB08BED69
:10414000000A90ED050ADDF828B08BED000A90ED2D
:10415000060ADDF824B08BED000A90ED070ADDF8C1
:1041600020B08BED000AD0F828B000EE10BAB8EEFF
:10417000C00ADFED6C0A20EE200ADDF81CB08BEDE2
:10418000000AD0F82CB000EE10BAB8EEC00ADFED8D
:10419000660A20EE200ADDF818B08BED000A90F8D0
:1041A00034E0DDF814B08BF800E090F835E0DDF88D
:1041B00010B08BF800E0D0F838E0DDF80CB0CBF8A8
:1041C00000E0D0F83CE0DDF808B0CBF800E0D0F833
:1041D00040E0DDF804B0CBF800E0D0F844E0DDF8D2
:1041E00000B0CBF800E01CB0BDE8F08F0400002068
:1041F0000C000020340000201C00002024000020BF
:104200003C00002040000020440000204800002026
:104210004C0000205000002054000020100000201E
:1042200014000020180000203800002008000020A2
:104230002C0000203000002020000020280000205A
:104240005C00002060000020640000206800002066
:104250006C000020700000208000002084000020FE
:10426000880000208C000020900000209400002096
:104270002C0100202E0100203001002038010020F8
:10428000400100204801002098000020A0000020EC
:10429000C8000020B0000020B8000020D00000209E
:1042A000D4000020D8000020DC000020E000002026
:1042B000E4000020E8000020A4000020A800002066
:1042C000AC000020CC0000209C000020C00000209A
:1042D000C4000020B4000020BC000020F00000203A
:1042E000F4000020F8000020FC0000200001002065
:1042F0000401002014010020180100201C010020EE
:104300002001002024010020280100202D01002090
:104310002F010020340100203C0100204401002036
:104320004C0100200AD7233C6F12833A7CB5064625
:104330000C4615460020009001908DF8004029465B
:104340000DF1010000F005F9052269463046FFF73E
:10435000DFFC7CBD08B50278437842EA032283780B
:1043600042EA0342C37842EA036100919DED000AEC
:1043700008BD014608784A7840EA02208A7840EA77
:104380000240CA7840EA026070472DE9FC410446C9
:1043900061682078FFF700FA3C20FDF76DF80021F6
:1043A0002046FFF7E7FBC820FDF766F8C420019020
:1043B0002078012201A9FFF7ABFC6768FDF746FAF8
:1043C00005462E462AE0A3200090FDF73FFA401B49
:1043D00040F6C411884200D921E0207801226946C4
:1043E000FFF796FC1420FDF747F86068B84204D048
:1043F0006768FDF72BFA064606E0FDF727FA801BF3
:10440000B0F5C87F00D30AE0E06830B9FDF71EFAC6
:10441000401BB0F5966F00D901E000BFD3E700BFA5
:1044200001212046FFF7A6FBBDE8FC8170B50246DE
:10443000106800219FED2F0AF0EE400A9FED2E0A32
:10444000B0EE401A0023002400E0401C0578202D27
:10445000FBD00578092DF8D005782D2D02D1012348
:10446000401C03E005782B2D00D1401C07E00578A7
:10447000303D01EB810605EB46010124401C057827
:10448000302D02DB0578392DF1DD05782E2D1BD17D
:10449000401C13E00578303D00EE105AF8EEC01ACB
:1044A000B0EE600A01EE210AF0EE400A9FED120A1A
:1044B00021EE000AB0EE401A0124401C0578302D90
:1044C00002DB0578392DE5DD106014B99FED090A8E
:1044D00070BD43B100EE101AB8EEC00A30EE200AEB
:1044E000B1EE400AF4E700EE101AB8EEC00A30EE62
:1044F000200AEDE700000000CDCCCC3D30B52DED1D
:10450000028B83B005460C46B0EE408A0020019035
:1045100002908DF80440B0EE480A0DF1050000F05D
:1045200009F8052201A92846FFF7F2FB03B0BDEC0C
:10453000028B30BD08B58DED000A0099017000991D
:10454000090A41700099090C81700099090EC17027
:1045500008BD01700A0A42700A0C82700A0EC2700D
:10456000704730B50468246824F4802405682C6002
:10457000046863608468402C04D10468A260046805
:10458000E16003E00468A1600468E26030BD0146B8
:1045900000208A6A8B69CBB932B1012A0DD0022A78
:1045A00003D0032A10D10EE000BFCB6A03F0807362
:1045B000B3F1807F00D1012007E0CB6AB3F1C07F67
:1045C00000D1012001E000E000BF34E08B69B3F5C9
:1045D000005F1AD132B1012A07D0022A03D0032A80
:1045E00011D10AE000BF01200EE0CB6A03F0807316
:1045F000B3F1807F00D1012006E0CB6AB3F1C07F28
:1046000000D1012000E000BF15E032B1012A05D041
:10461000022A04D0032A0CD103E000BF00BF01200E
:1046200008E0CB6A03F08073B3F1807F00D10120F2
:1046300000E000BF00BF704701460878103818231B
:10464000B0FBF3F20848805CC865032A05D9086806
:104650006FF30900001D886503E008686FF3090027
:104660008865886D70470000E652000870B5064600
:104670000025B46B20684069C0F3C01594F8410070
:10468000212805D125B10020E084204600F029FA38
:1046900020684069C0F3801594F84200222805D1B3
:1046A00025B10020E085204600F0E5F9606C40F07F
:1046B000100060642046FDF7BBFE70BD2DE9F84F89
:1046C00004462068006920F44050E16808432168EE
:1046D00008612169A068084361690843E1690843EA
:1046E00000902068C06849F20C6188430099084333
:1046F0002168C8602068406920F44070A1690843BF
:104700002168486176492068884203D0754920684D
:10471000884203D1FDF798FA814602E0FDF784FA5A
:104720008146E069B0F5004F6CD102206168A0FBC2
:10473000015003461920A9FB007001462A4638465D
:10474000FBF7C4FD6421B0FBF1F04FEA001A022030
:104750006168A0FB01510B461920A9FB00712A4694
:104760003846FBF7B3FD834602206168A0FB015089
:1047700003461920A9FB00712A463846FBF7A6FD1F
:104780006421B0FBF1F000EBC00101EB0010ABEBDA
:104790008000322101EBC0006421B0FBF1F000F099
:1047A000F8000AEB400A02206168A0FB01500346B2
:1047B0001920A9FB007001462A463846FBF786FD02
:1047C000834602206168A0FB015003461920A9FB23
:1047D00000712A463846FBF779FD6421B0FBF1F001
:1047E00000EBC00101EB0010ABEB8000322101EBCC
:1047F000C0006421B0FBF1F000F0070050442168D4
:1048000088606AE004206168A0FB0150034619201B
:10481000A9FB007001462A463846FBF757FD824641
:1048200004206168A0FB015003461920A9FB007019
:1048300001462A463846FBF749FD6421B0FBF1F0FA
:1048400000EBC00101EB0010AAEB8000322101EB6C
:1048500000106421B0FBF1F000F0F00A0420616860
:10486000A0FB017003461920A9FB00513A462846D7
:10487000FBF72CFD6421B0FBF1F00AEB001A0420D9
:104880006168A0FB01510B461920A9FB00712A4663
:104890003846FBF71BFD834604206168A0FB0150EE
:1048A00003461920A9FB007001462A463846FBF74B
:1048B0000DFD6421B0FBF1F000EBC00101EB001035
:1048C000ABEB8000322101EB00106421B0FBF1F072
:1048D00000F00F00504421688860BDE8F88F0000A8
:1048E0000010014000140140F8B5044694F842005D
:1048F000222875D1A068B0F5805F0CD1206950B92D
:104900000025A66A20684068C0F308003080A06ACD
:10491000801CA06215E0A56A0026A068B0F5805F43
:1049200003D0A06828B9206918B9206840682870A9
:1049300004E02068406800F07F002870A06A401CF6
:10494000A062E08D401E80B2E085002846D120683C
:10495000C06820F020002168C8602068C06820F48A
:1049600080702168C8602068406920F001002168DB
:104970004861202084F8420000206063206B0128F9
:1049800026D10020206300BF00BF21680C3151E810
:10499000001F21F0100021680C3141E80002002ABC
:1049A000F3D100BF2068006800F0100010280AD181
:1049B00000BF0020009020680068009020684068D8
:1049C000009000BF00BFA18D2046FDF747FC02E02C
:1049D0002046FDF7ADFF0020F8BD01E00020FBE719
:1049E0000220F9E7014691F84100212828D1886882
:1049F000B0F5805F0BD1086948B90A6A1088C0F326
:104A000008000B685860086A801C086205E00B6AA1
:104A1000581C086218780B685860C88C401E80B219
:104A2000C88458B90868C06820F080000B68D86056
:104A30000868C06840F040000B68D86000207047EC
:104A40000220FCE770B50546AC6B01206063206B6B
:104A5000012805D1A08D41082046FDF7FFFB02E0AB
:104A60002046FDF766FF70BD70B50446A56B28466D
:104A7000FDF7A7FF70BD00BF00BF02680C3252E80F
:104A8000002F22F4907102680C3242E80013002BD0
:104A9000F3D100BF00BF00BF0268143252E8002FFC
:104AA00022F001010268143242E80013002BF3D116
:104AB00000BF016B01290ED100BF00BF02680C329C
:104AC00052E8002F22F0100102680C3242E8001375
:104AD000002BF3D100BF202180F842100021016398
:104AE000704700BF00BF02680C3252E8002F22F06E
:104AF000C00102680C3242E80013002BF3D100BF62
:104B0000202180F84110704770B50546AC6B2868CD
:104B1000006800F48070002842D1E08500BF00BF2B
:104B200021680C3151E8001F21F4807021680C319C
:104B300041E80002002AF3D100BF00BF00BF216896
:104B4000143151E8001F21F001002168143141E8BF
:104B50000002002AF3D100BF00BF00BF216814315A
:104B600051E8001F21F040002168143141E80002A3
:104B7000002AF3D100BF202084F84200206B0128D6
:104B80000ED100BF00BF21680C3151E8001F21F099
:104B9000100021680C3141E80002002AF3D100BF67
:104BA00000206063206B012804D1A18D2046FDF711
:104BB00055FB02E02046FDF7BBFE70BD10B5044674
:104BC0002068C06820F040002168C860202084F878
:104BD00041002046FDF7F4FE002010BD70B50546EB
:104BE000AC6B0020E085E0842046FDF721FC70BD21
:104BF00070B50546AC6B2868006800F48070F8B9A1
:104C00000020E08400BF00BF2168143151E8001F7C
:104C100021F080002168143141E80002002AF3D11C
:104C200000BF00BF00BF21680C3151E8001F41F0F8
:104C3000400021680C3141E80002002AF3D102E073
:104C40002046FDF7BDFE70BD074A126822F440728F
:104C5000054B1A601A4612681A601A46126842F02A
:104C600001021A6001707047103C0240084A126845
:104C700022F44072064B1A601A46126842F400721F
:104C80001A601A46126842F001021A600160704709
:104C9000103C02402A48006800F0100040B129484A
:104CA000C06940F010002749C861102024490860FD
:104CB0002348006800F0200040B12248C06940F05D
:104CC00008002049C86120201D4908601C48006870
:104CD00000F0400040B11B48C06940F00400194991
:104CE000C8614020164908601548006800F080003F
:104CF00040B11448C06940F002001249C8618020E8
:104D00000F4908600E48006800F4807048B10D48F3
:104D1000C06940F001000B49C8614FF48070084938
:104D200008600748006800F0020040B10548C0690B
:104D300040F020000349C861022001490860704723
:104D40000C3C0240B0060020084A126822F440726F
:104D5000064B1A601A46126842F480721A601A46AC
:104D6000126842F001021A6001807047103C024054
:104D700010B50A49096821F44071084C21602146A8
:104D8000096841F4407121602146096841F0010140
:104D900021600260BFF36F8F436010BD103C024082
:104DA00010B5002804DB0A07130E054A135406E069
:104DB0000A07140E034A00F00F031B1FD45410BD42
:104DC00000E400E018ED00E002480068C0F30220B3
:104DD000704700000CED00E0134A126822F44072A4
:104DE000114B1A60032906D11A461268DB131A43C5
:104DF0000D4B1A600EE0012906D10B4A126842F0F1
:104E00000402094B1A6005E0074A126842F40042A6
:104E1000054B1A60044A12684FF4803343EA0023BA
:104E20001A43014B1A607047103C024090B00024B6
:104E300075E00CB9012000E0022004EB8401C1EB15
:104E40008411FE4A02F82100012004EB8401C1EB29
:104E5000841102EB810181F8A400002004EB84019D
:104E6000C1EB841102EB810181F8AC00012004EB5D
:104E70008401C1EB841102EB810181F8AD009FED4B
:104E8000F00A04EB8400C0EB8410114601EB8000B3
:104E900080ED190A9FEDEB0A04EB8400C0EB84104F
:104EA00001EB800080ED1A0A9FEDE70A04EB840015
:104EB000C0EB841001EB800080ED1B0A9FEDE20A3D
:104EC00004EB8400C0EB841001EB800080ED1C0A31
:104ED00043F6982004EB8401C1EB841102EB8101BD
:104EE000C1F8D80004EB8401C1EB841102EB81010D
:104EF000C1F8DC0042F2283004EB8401C1EB8411DC
:104F000002EB8101C1F8E00042F2602004EB840171
:104F1000C1EB841102EB8101C1F8E400641C022C96
:104F200087DBFCF7A5FCFDF7BFFEFDF793FDFDF762
:104F30006DFDFDF7DBFD8022C449C548FDF754F93E
:104F4000FDF742FDC349C448FDF7FCFF0020C349FB
:104F5000086000244DE004EB8401C1EB8411B74BE1
:104F600003EB8101D1ED1B0A9FEDBD1AB6EE000ADD
:104F700000EE810ABDEEC00A10EE102A04EB840197
:104F8000C1EB841113F82100D021FFF7CFF904EB16
:104F90008401C1EB8411A94B03EB8101D1ED1C0A03
:104FA0009FEDAF1AB6EE000A00EE810ABDEEC00A10
:104FB00010EE102A04EB8401C1EB841113F82100D8
:104FC000D121FFF7B3F904EB8401C1EB84119B4AB3
:104FD00012F821005A21FEF7F5FB04EB8401C1EB26
:104FE0008411964A12F8210042F26021FEF7A2FBDA
:104FF000641C022CAFDB9B480768D0F804809A48F9
:10500000874201D0012000E000208146964880457B
:1050100001D0012000E00020824600242EE004EBB5
:105020008400C0EB8410854901EB80050CB948462B
:1050300000E05046064686B12878FEF79FFBC82060
:10504000FCF71AFA2878FEF759FB9620FCF714FAB9
:1050500001212846FEF78EFD02E02846FFF795F96C
:105060006868C5F88C00002085F8AD007B480068B2
:1050700041F288310844C5F8BC00641C022CCEDB28
:105080004FF0000BB9F1000F03D0781C08B14FF0BE
:10509000010BBAF1000F04D008F1010008B14FF084
:1050A000010BB9F1000F02D1BAF1000F14D0BBF11E
:1050B000000F04D0FEF738FD012082468146B9F189
:1050C000000F02D06748FEF745FDBAF1000F03D08C
:1050D0006448001DFEF73EFDFCF7B8FB634908601D
:1050E000002409E004EB8401C1EB8411534A02EB74
:1050F0008100FEF783FE641C022CF3DBDFE0FCF78B
:10510000A5FB06465548066059480078B8B100200E
:1051100057490870002505E05648405D0DF8050028
:10512000681C85B254480088854201DA3F2DF3DBC4
:1051300000200DF805006846FEF76AFA00BF00245B
:1051400067E004EB8400C0EB84103C4901EB800570
:105150002846FEF741FD2846FDF736FF2846FDF7B5
:10516000E1FFD5F8C400301A142811D34935C5F829
:105170007B602878401C287015F8490900F003006E
:1051800018B92878FEF7C8FA02E02878FEF7B6FAD0
:10519000D5F8CC00301AB0F5967F11D3C5F8CC60A5
:1051A00095F8480018B12878FEF7DAFA02E0287876
:1051B000FEF77AFB95F8480080F0010085F848007A
:1051C0002846FEF745F995ED1F0AD5ED200AB4EE05
:1051D000600AF1EE10FA18D095ED1F0A85ED200A4D
:1051E000002085F8AC0095ED1F0ADFED240A20EEC3
:1051F000200ADFED230A80EE201ABDEEC10A8DEDF4
:105200000F0A28460F99FDF733FF2846FEF7F6FDF3
:10521000641C022C95DB1B480068301AC82841D357
:10522000184806600C4800688069174908600846FD
:105230000068C0F307401549086029E0FC01002020
:105240000000B442CDCC0C4100001643D403002032
:10525000A8050020652D0008800500200000002022
:105260000000C84200000108DEC0010878010020EB
:1052700088010020CC040020860100200000804628
:105280000000B44390010020600100206401002070
:105290000B480068000E0B4908600B48FBF7EFFA5B
:1052A0000A4908600A480068301A142803DB0848D5
:1052B0000660FEF707FB0520FCF7DEF800BF1EE7DF
:1052C0006001002068010020800500206C010020A2
:1052D0008C0100204FF04070E1EE100A7047D0D1F1
:1052E000B2B3B6B7B8B90006101600061016000023
:1052F0000000000000000102030406070809000086
:1053000000000102030400002853000800000020F0
:10531000A4010000E801000854530008A401002083
:105320008C0B0000440200080120320102493227A0
:10533000B442CDCC0C414B1643040136097694039C
:1053400042FFFF29BC410D1AB979379E5E6A102CC5
:045350001324F4002E
:04000005080001AD41
:00000001FF
